:020000040800F2
:1000000018110020C900000869300008D923000831
:1000100000000000000000000000000000000000E0
:1000200000000000000000000000000081480008FF
:100030000000000000000000533B0008FD640008C1
:10004000DB00000800000000DB000008DB00000807
:10005000DB000008DB000008DB000008DB00000814
:1000600000000000DB000008DB000008DB000008E7
:10007000DB000008DB000008DB00000800000000D7
:10008000DB000008DB00000800000000DB000008C7
:10009000DB000008DB000008DB000008DB000008D4
:1000A000DB000008DB000008DB00000841690008F5
:1000B000DB0000080348854600F0C8FB0048004705
:1000C000757700081811002004488047044800474D
:1000D000FEE7FEE7FEE7FEE7FEE7FEE7C96500088C
:1000E000B500000830B50B4601460020202201244F
:1000F00009E00D46D5409D4205D31D469540491B5C
:100100002546954040191546521E002DF1DC30BDA4
:1001100070B500242546002801DA01244042002958
:1001200001DA01254942FFF7DDFFAC4200D0404231
:10013000002C00D0494270BD10B5202A04DB0846CF
:10014000203AD040002110BD0B46D340D04020249F
:10015000A21A91400843194610BD03460B439B0762
:1001600003D009E008C9121F08C0042AFAD203E02C
:100170000B780370401C491C521EF9D27047D2B252
:1001800001E00270401C491EFBD270470022F6E7D6
:1001900010B513460A4604461946FFF7F0FF2046FD
:1001A00010BD421C0178401C0029FBD1801A704709
:1001B0000321001D401E037812021A43491EF9D57F
:1001C00010467047F0B507460846584087B0C00F44
:1001D000049048000E46590040084908BC1A88415E
:1001E00005D2384631461E4617460B460246580091
:1001F000400810434CD0300D039040055900400D8D
:10020000490D0590401A0290402872DA1803012126
:10021000000B09050843019004980092002805D0BE
:100220000199524200208841009201900298402199
:100230000A1A0199009800F029FA05460C466B4607
:1002400007CB00F033FAC0197141039A0E0D002359
:10025000D71756401A467A40164344D0049A002ACB
:100260002DD0029A012A039A15DC1205C01A914179
:1002700001263605001C7141D20F059ED20700935E
:10028000019202962A46234600F030FA07B0F0BDEC
:1002900038463146FAE71605224A0F46B218C01A08
:1002A000B74101210905001C4F4100187F4111464B
:1002B00018187941E20F10436D19644113E0E20709
:1002C0006D0815436408C2071443039A01261205FA
:1002D000C01A91413605001C7141CE0740083043D9
:1002E0004908C01851412A46234600F0F2F9CDE7EB
:1002F000FFE7049801224000C117121A00238B4126
:1003000004983146C417381AA141EEE730B40124ED
:10031000E407634030BC55E730B40124E407614092
:1003200030BC4FE70000E0FFF0B51FB488B00B9978
:100330000998002448400999C00F490049080991CB
:10034000C0070B990090490049080B91099908983A
:10035000A64608431CD00B990A98084318D0099860
:1003600001244000420D4800410D09982405000376
:10037000000B204309900B980003000B20430B90C7
:1003800050181C494018002201901446104605E000
:10039000002001460DB0F0BD032801DA034600E05D
:1003A00003239C46C11A0AAE0AE05F0008ADED5B6C
:1003B0004F00F75B7D430027AA187C41491C5B1E58
:1003C0006145F2DD410004AB5A522104120C0A438C
:1003D000240C401C0828DFDB01980290009970462D
:1003E00001910090059B049A0799069800F07EF908
:1003F000D0E700000DFCFFFFF0B50C465C4085B077
:10040000E40FE40703944C00002664085900944666
:10041000490802460296224321D062460A431ED072
:100420006200570D4A000E032303550D01240246B6
:100430002C492405781B1B0B360B401823432643FD
:10044000614600901C46501AB44103D30098401CEA
:10045000009002E0921800985B41002803DA002027
:10046000014605B0F0BD002001210905074686467A
:1004700011E064461D46141BB54106D36546521B68
:10048000B341744607430C43A646CD0740084908CC
:10049000284392185B4105460D43EAD110461843A4
:1004A00013D06046194650407140084306D060465C
:1004B000101AB34106D20122002306E000220123D4
:1004C000DB0702E00122D243531000987446010575
:1004D000381C6141029C039D0019694100F0F9F844
:1004E000BFE70000FD03000070B54B005B0803434D
:1004F0000BD04B005C0D002633466542B341D41748
:10050000AD1AA34102DB0020014670BD1205301870
:10051000514170BD0EB5C217C10F5040CA074018F7
:100520000021054B0293019200910A460B4600F010
:10053000DDF803B000BD0000330400000EB505492E
:100540000291002100910A460B46019100F0CEF87D
:1005500003B000BD3304000070B5CD0F4A0009039D
:100560000123090B1B0519430B4BED070024520D0A
:100570009A4201DA002070BD074B34339A4203DC03
:100580009A1AFFF7D9FD02E00449511888402C431C
:10059000F1D0404270BD0000FF030000CDFBFFFF23
:1005A0004A0009030123090B1B051943094B10B528
:1005B000520D9A4201DA002010BD064B34339A42A4
:1005C00003DC9A1AFFF7B8FD10BD034951188840A3
:1005D00010BD0000FF030000CDFBFFFF10B5002998
:1005E00004DB0124E40740428C412146002B04DB5C
:1005F0001C460123DB075242A3418B4200D18242B9
:1006000010BD000010B5002904DB0124E4074042BE
:100610008C412146002B04DB1C460123DB075242A0
:10062000A341994200D1904210BD0000F0B51FB423
:100630000646002082B005464024019100901BE050
:10064000019922460F463046FFF776FD049A059B36
:10065000801A994110D310461946224600F016F828
:10066000361A8F410197224601200021009F00F099
:100670000DF838184D4100902046641E0028DFDC3C
:10068000019B00982946324607B0F0BD10B5202ADC
:1006900004DB0146203A9140002010BD9140202308
:1006A0009C1A0346E3401943904010BD10B5202A20
:1006B00006DBCB170846203A1041C1170B4306E072
:1006C0000B461341D0402024A21A914008431946FA
:1006D00010BD10B5002B08DA0024401C61419218AF
:1006E0005B411A4301D14008400010BDF0B51FB472
:1006F00082B005460C0003D0084606F0D7F902E0A8
:1007000006F0D4F920300246009021462846FFF733
:10071000BDFF049B059A04460F4618431143084346
:1007200014D0184610431BD0009840210A1A1846CE
:100730000599FFF701FD05460E46009A05990498B4
:10074000FFF7A4FF084305D0012004E02046394606
:1007500007B0F0BD0020C11705430E432C433743BB
:1007600000990E986305401A7905E40A00220C43AB
:10077000FD0A0A3002D500200146E9E701051019FB
:1007800069410C9C0D9D00196941FFF7A2FFDFE74D
:10079000F8B50546480040080C46284304D06000E0
:1007A000184A400D904201DD2846F8BD15493539FB
:1007B000884210DC88420BDB290D20030843290303
:1007C000014305D0E00F1049C00741180020F8BDD3
:1007D00000200146F8BD161A4020821B28462146FB
:1007E000FFF754FF07460091284621463246FFF79F
:1007F000A3FC3A46009BFFF76CFF3246FFF746FF2B
:10080000F8BD0000330400000000F03F4A00090377
:100810000123090B1B0519430A4B10B5520D9A42CF
:1008200002DA0020014610BD064B34339A4203DC45
:100830009A1AFFF781FC10BD034BD218FFF726FF71
:1008400010BD0000FF030000CDFBFFFF064C01259B
:10085000064E05E0E36807CC2B430C3C9847103468
:10086000B442F7D3FFF72AFCCC810008EC810008E2
:10087000F0B589B00C46074610220021684607F003
:1008800053F869462246084606F09FFD6846007800
:1008900087260106684600290FDA00214318425CCA
:1008A0005B785200DB091A434254491C0F29F5DBDF
:1008B000C17B0246490071400DE000214318425CB3
:1008C0005B785200DB091A434254491C0F29F5DBBF
:1008D000C17B02464900D173E21DF93251691029EA
:1008E00012D0017809061BD500214518435C6D78AC
:1008F0005B00ED092B434354491C0F29F5DBC17BF9
:1009000003464900714019E000216218FF320132AC
:100910005378455C491C6B4053701029F5DB26E089
:1009200000214518435C6D785B00ED092B4343546F
:10093000491C0F29F5DBC17B03464900D973E11D32
:1009400055698023FA316B54002500E05D545369EA
:100950005B1C5361102BF9D300216218FF32013266
:100960005378455C491C6B4053701029F5DB00211E
:1009700062181046FF32E0300132437C5278491C45
:10098000534043741029F3DB21461022F13104A8AF
:1009900006F0B2FF2246394604A806F016FD1022E2
:1009A0000021684606F0C0FF09B0F0BD10B504464E
:1009B00010220021F13006F0B7FFFF200021153092
:1009C0000151F022204606F0AFFF10BD0B4610B5D6
:1009D00002461021184606F023FD10BDF0B504466E
:1009E000FF308BB00F4601300890E11D4069FA31AD
:1009F0000091103915460791002843D010210E1A96
:100A0000AE4200D316460099B2B24018394606F0FD
:100A100073FF0898089940698019486110283AD3F3
:100A2000B54238D0002162181046FF32E030013262
:100A3000437C5278491C534043741029F3DB0799D7
:100A40002246084606F0C1FCBF19AD1B1AE0002083
:100A50002118E0314A7C3B5C401C5A404A74102803
:100A6000F6DB102202A8079906F046FF02A92246EB
:100A7000084606F0AAFC102202A9079806F03CFFDF
:100A8000103D1037102DE2D8AAB23946009806F072
:100A900033FF089845610BB0F0BD0000F7B51F4962
:100AA0000F22497A1D4B511ACDB2197A5B7A0F2663
:100AB000F31A0A46DEB2871E491C0124C9B2761E0B
:100AC0003B0006F00AF807050B050B150B0529007E
:100AD000124BAA421ED2124CA05407E00F4BB24256
:100AE00018DA0F4CA05401986054491C19720DE09B
:100AF0000A4BAD1EAA420DDA094CA054019860546D
:100B0000491CC8B202992154401C187200240348A1
:100B10000121C1712046FEBD0220FEBD2C00002037
:100B2000B603002070B51646144A01240025145758
:100B3000002820D000231248002C0BD0C06A402887
:100B400001D301251370602815D3C006C00E0128FB
:100B500002D010E0C3620EE0002C0CDD641E64B213
:100B6000002C08D1002906D004490C226431084623
:100B7000383806F0C1FE3470284670BDD405002018
:100B80002C00002070B5054600243021FFF7AAFA9A
:100B900000290CD0E8060CD018212846FFF7A2FA4D
:100BA000002908D0280708D0680708D00524204667
:100BB00070BD0124FBE70224F9E70324F7E70424CE
:100BC000F5E7000010B586B0134805F09BFB03F075
:100BD00095FF0024009423460322602102A801947B
:100BE00000F07CFA009400230322612102A8019402
:100BF00000F074FA002300941A462E2102A80194F2
:100C000000F06CFA002300941A462F2102A80194E8
:100C100000F064FA06B010BD940A002072B60248D3
:100C20008178491C81707047EE0000200449887863
:100C3000401E0006000E887000D162B670470000AA
:100C4000EE000020024900208880FF20704700004D
:100C5000EE00002038B5194C2078002824D005F08B
:100C600089FC0020C0430090052306220721144878
:100C700005F0C8FB03F062FF2078002813D10120A3
:100C80002070607800280ED10E490F4805F0D2FC84
:100C90007D21C9000C4805F03DFD0B4805F042FDE3
:100CA00060780028FDD038BD00F012FC05F02CFC67
:100CB00003F0AEFC00F00BF8D3E70000EE000020DC
:100CC000940A0020E9300008180C0020704710B585
:100CD000002486B0009423460322214602A80194F2
:100CE00000F0FCF9009400230322012102A80194E2
:100CF00000F0F4F9009400230322022102A80194D9
:100D000000F0ECF9032200940023114602A801949C
:100D100000F0E4F9009400230322042102A80194C6
:100D200000F0DCF9009400230322052102A80194BD
:100D300000F0D4F9009400230322062102A80194B4
:100D400000F0CCF9009400230322072102A80194AB
:100D500000F0C4F9009400230322082102A80194A2
:100D600000F0BCF9009400230322092102A8019499
:100D700000F0B4F90094002303220A2102A8019490
:100D800000F0ACF90094002303220B2102A8019487
:100D900000F0A4F90094002303220C2102A801947E
:100DA00000F09CF90094002303220F2102A8019473
:100DB00000F094F9009400230322142102A8019466
:100DC00000F08CF9009400230322152102A801945D
:100DD00000F084F9009400230322162102A8019454
:100DE00000F07CF9009400230322172102A801944B
:100DF00000F074F9009400230322182102A8019442
:100E000000F06CF9009400230322192102A8019438
:100E100000F064F90094002303221A2102A801942F
:100E200000F05CF90094002303221B2102A8019426
:100E300000F054F90094002303221C2102A801941D
:100E400000F04CF90094002303221D2102A8019414
:100E500000F044F90094002303221E2102A801940B
:100E600000F03CF90094002303221F2102A8019402
:100E700000F034F90094002303222D2102A80194EC
:100E800000F02CF906B010BDF8B5C1001C481D4E8D
:100E90000F1878790C214843355A002281193446BD
:100EA000683C8A60E07800280FD0E07C002804D0FD
:100EB000A06B02466A43101A8860A18BA06B414365
:100EC000081A616D40186065F8BD206B05F0AEFB37
:100ED0000D49884201D2642006E00C49884202D2C2
:100EE0007D20C00000E00A48854200D92846A16B59
:100EF0000C224843411A7879504380198160DCE71D
:100F0000D40300209400002080EE3600803F5C0275
:100F100010270000F7B586B000200D460090019024
:100F2000694602900D704149AA008958404A01243F
:100F30008B18002B05D0D34200D102206A46507096
:100F400001E0684644700846FFF7F8FA074637485C
:100F50000E462438405D84402046FFF7DBFA3A46CF
:100F60003346FFF749FA0022324BFFF7DDF904461A
:100F700008980D464000FFF7E1FA07462E48049115
:100F80000391067A70000838FFF7C4FA22462B4610
:100F900002910190FFF7C8F93A46039BFFF712F957
:100FA00022462B46FFF728FA06F0B8FAFFF7F8FAC0
:100FB000B04215D904993E460F4622462B46029967
:100FC0000198FFF7B1F932463B46FFF7FBF822469E
:100FD0002B46FFF711FA06F0A1FAFFF7E1FA00E05D
:100FE00030460190FFF7AAFA22462B46FFF79CF9FC
:100FF0000022D243FFF778FA0E4607460222204627
:101000002946FFF771FA3A463346FFF77FF9002287
:101010000A4BFFF77BF906F081FAFFF79DFA029081
:101020006E460ECE06980EC009B0F0BD5080000886
:10103000702FFCFF00408F40D40500200000F03FDF
:1010400030B5034600200246012507E02C469440B7
:101050009C4301D1401CC0B2521CD2B28A42F5D38B
:1010600030BD10B500F065F910BD10B50A46018914
:10107000501CFFF737F888B210BD70B504460188E0
:10108000FFF7F3FF61680D5C21882046FFF7EDFF55
:101090002080284670BD70B50D4604464188FFF794
:1010A000E4FF608061680D5470BD0120704700004E
:1010B00010B5094A0021CB00D458844207D89B18A8
:1010C0009B68834203D9C8008018007910BD491C71
:1010D000C9B21529EFD3FEE7988000087CB50E1140
:1010E000079D069C062E03D80195009400F002F897
:1010F0007CBD0000F0B587B00D9D04460170481C12
:1011000051D00F0701203F0F0646BE4066800E06F5
:101110002649370F1DD0360F012E21D0022E24D0A4
:10112000234E66604F69060537434F614969314078
:101130000591618800910C99A1720291032103919C
:10114000002A17D0032A18D0022A18D0012B1ED04B
:101150001EE00926F60666604F6901267604E3E77D
:10116000144E66604F693602DEE7134E66604F69C3
:101170003602D9E70020019011E001910FE0012B28
:1011800003D002200495019009E01220FAE7112013
:101190000190012A03D12946204600F089F86946CA
:1011A000606800F0D5F807B0F0BD00000010024004
:1011B000000C00480004004800080048FFB5002665
:1011C000052585B01F460446002B65D06088009039
:1011D000012915D0022915D031480190A07A02903A
:1011E000032003906946606800F0B2F80798002871
:1011F0000AD0012808D0022808D0032809D107E026
:101200002848EAE72848E8E7032602E0022600E04B
:1012100001266188FF220132881A91422ED012DC09
:1012200010292BD008DC012929D0022927D0042934
:1012300034D0082923D131E020291FD040291DD0E6
:1012400080291CD11AE00F210902421A884215D0C8
:1012500009DCFF38401E11D0FF38FF38801E0DD04A
:101260000121890208E001200003101A06D00121A3
:101270004903401A02D04900884200D1072520784E
:101280000A490007800E0F5000223146284600F020
:101290004BF9284600F03EF909B0F0BD0625EEE70F
:1012A0000000311000001110000021102C0C002053
:1012B00010B500228256521C04D0CAB24188406840
:1012C00000F0EAF810BD10B5002404572411062CD4
:1012D00001D8FFF773FF10BD10B50022825612111E
:1012E000062A01D8FFF7E4FF10BD70B500240146BF
:1012F00020314A78022A03D004218163012416E0B8
:10130000026813680E25AB431360026813685B081C
:101310005B0013600122056C1346AB40C56B6B602C
:101320004A7000220A70416B002900D0884720468D
:1013300070BD31B500F0B6F8009C0546601C00D0C9
:10134000641C00F0AFF8401BA042FAD338BD000087
:10135000F8B500238DE001249C40A44622407DD0B6
:101360004C68022C01D0122C0CD1DC08A4002718E8
:101370003C6A5D07ED0E0F26AE40B4430E69AE40E9
:1013800026433E6205685E000324B4400F79A543FE
:10139000BF07BF0FB7402F4307604D68012D05D031
:1013A000022D03D0112D01D0122D0ED18568CF68EA
:1013B000A543B7402F43876047686546AF430D7923
:1013C000ED06ED0F9D403D434560C568A5438C6823
:1013D000B4402C43C4604C68E40049D5284CA5694E
:1013E00001263543A561A4699D0834400094254C2D
:1013F000AD002F19BC689D072E0F0F25B540AC43DB
:101400000925ED06A84201D100250FE01E4DA84296
:1014100001D101250AE01D4DA84201D1022505E0B8
:101420001B4DA84201D1032500E00525B540254309
:10143000BD60184C25684E689543F60300D51543EA
:10144000256065684E689543B60300D51543656011
:10145000A5684E689543F60202D500E008E0154302
:10146000A560E5684E689543B60200D51543E56072
:101470005B1C0A681446DC4000D06CE7F8BD000035
:10148000001002400000014000040048000800482D
:10149000000C004800040140002A01D0816170471F
:1014A000816270470148006870470000CC0000204E
:1014B000006802490160002070470000AAAA0000ED
:1014C00002480168491C016070470000CC00002000
:1014D00010B506480168102211430160002000F099
:1014E00007F800F016F8002010BD000000200240B0
:1014F00010B5044600F040F97D21C900FEF7F2FD69
:1015000000F008FE00222146501E00F00DF80020D9
:1015100010BD7047C106C90E01208840014908600E
:101520007047000000E100E010B501F09FFD10BD24
:101530000A4B1A689208920002431A60084803692D
:10154000042213430361012906D040BF20BF20BFFE
:10155000016991430161704730BFF9E700700040B5
:1015600000ED00E0F8B505460068354CC00352D5E3
:10157000E0690026C00007D4E16920040143E1616D
:10158000E1690140012600912E480168C90510D487
:101590000168821511430160FFF784FF074604E0EC
:1015A000FFF780FFC01B642824D826480068C005C8
:1015B000F6D5206A03273F02384020D069683940B9
:1015C00081421CD0206A226AB843012109040A43DF
:1015D0002262226A8A4322622062C0070FD0FFF78C
:1015E00061FF009008E0FFF75DFF0099411A16487F
:1015F000814201D90320F8BD206A8007F3D5206A13
:101600006968B84308432062002E04D0E1690120D4
:1016100000078143E1612878C00705D0206BA968E5
:1016200080088000084320632878800605D5206B59
:1016300010218843E968084320630020F8BD0000BA
:10164000001002400070004088130000F8B5054605
:1016500044480E460068C007C00FB0420AD2414855
:10166000016849084900314301600068C007C00FA4
:10167000B0425CD128783C4C800705D56068F021E9
:101680008843A968084360602878C0073FD068682D
:10169000012813D02168022813D08907002946DACF
:1016A00061688908890001436160FFF7FBFE696892
:1016B000074601290DD0022917D024E021688903AB
:1016C000ECE78901EAE7FFF7EDFEC11B27488142FD
:1016D00017D860680007800F0128F4D117E0FFF7E2
:1016E000E1FEC11B214881420BD860680007800FD2
:1016F0000228F4D10BE0FFF7D5FEC11B1B48814245
:1017000001D90320F8BD60680007800FF3D11548A8
:101710000168C907C90FB1420BD9016849084900DE
:10172000314301600068C007C00FB04201D0012002
:10173000F8BD2878400706D560680721090288436C
:10174000E9680843606000F01DF86168084A09060E
:10175000090F515CC840074908600020FFF7C8FE28
:101760000020F8BD00200240001002408813000055
:10177000BC81000808010020014800687047000093
:101780000801002010B512A30FCB88B06C460FC41F
:1017900013A30FCB0FC416494A680C20134603400D
:1017A0001448042B0FD0082B0DD193021B0F6C464D
:1017B000E45CC96A04AB0907090F595CD20304D57C
:1017C000FEF790FC604308B010BD0B486043FAE799
:1017D00002030405060708090A0B0C0D0E0F101072
:1017E0000102030405060708090A0B0C0D0E0F1071
:1017F0000010024000127A0000093D00FEB50446C8
:101800000078D04DC00747D068680007800F0128D6
:1018100007D068680007800F022809D16868C003F4
:1018200006D52868800337D5606800287ED033E06D
:10183000012062680004012A11D08100002A01D031
:10184000052A10D02A6882432A60286888432860C5
:101850006068002814D0FFF725FE06460CE02968D2
:1018600001432960F4E72A680A432A60F7E7FFF793
:1018700019FE801B64286FD828688003F7D50BE019
:10188000FFF710FE064604E0FFF70CFE801B6428FD
:10189000F1D828688003F7D4207801268007002833
:1018A0003BDA68680007800F07D068680007800F80
:1018B000022809D16868C00306D42868800715D5B6
:1018C000E068012832D111E0E0680028286815D0CE
:1018D00030432860FFF7E6FD074604E0FFF7E2FD2E
:1018E000C01B0228C7D828688007F7D52868F821C8
:1018F00088432169C900084328600EE04008400081
:101900002860FFF7CFFD074604E0FFF7CBFDC01BC3
:101910000228B0D828688007F7D42078000724D59B
:10192000E0690028686A10D0304300E008E168628E
:10193000FFF7B8FD074604E0FFF7B4FDC01B02281F
:1019400099D8686A8007F7D50FE0400840006862C0
:10195000FFF7A8FD074605E09DE0FFF7A3FDC01BCC
:10196000022888D8686A8007F7D4207804274007BF
:10197000002860DA00200190E869C00008D4E96915
:10198000B8060143E961E969014001200091019035
:101990006D480168C90511D40168821511430160C1
:1019A000FFF780FD009005E0FFF77CFD0099401AED
:1019B000642870D864480068C005F5D5A06801287F
:1019C0000AD0002801D0052810D0286A400840001D
:1019D0002862286AB84301E0286A30432862A06878
:1019E000002812D0FFF75EFD00900AE0286A384315
:1019F0002862F1E7FFF756FD0099411A53488142EA
:101A000049D8286A8007F5D50DE0FFF74BFD009017
:101A100006E0FFF747FD0099411A4C4881423AD849
:101A2000286A8007F5D40198002804D0E9690120CC
:101A300000078143E9612078C00635D56069012837
:101A40000CD0401D686B23D038436863686B400836
:101A500040006863FFF726FD064622E0686B3843C6
:101A60006863686B30436863FFF71CFD064604E05B
:101A7000FFF718FD801B02285BD8686B8007F7D53D
:101A8000686BF8218843A169C900084368630BE0CB
:101A9000B8436863F4E74CE0FFF704FD801B0228BD
:101AA00047D8686B8007F7D4206A002846D0696859
:101AB0000907890F022943D0012636060228286823
:101AC00005D0B0432860FFF7EDFC044633E0B04397
:101AD0002860FFF7E7FC074604E0FFF7E3FCC01BC4
:101AE000022826D828688001F7D4E86AE16A00094C
:101AF00000010843E862616AA06A084369683D2200
:101B00001204914308436860286830432860FFF757
:101B1000C9FC044604E0FFF7C5FC001B022808D8F6
:101B200028688001F7D509E0FFF7BCFC001B0228FC
:101B300001D90320FEBD28688001F5D40020FEBD38
:101B40000120FEBD0010024000700040881300001C
:101B5000F8B50446007F012818D001262677022018
:101B600060772168CA204862216853204862206853
:101B7000816832029143816020688168120191433B
:101B80008160FFF78FFC054600270FE00220F8BDBB
:101B9000FFF788FC411B7D20C000814206D92168E7
:101BA000FF204862032060772777F8BD2068C0686F
:101BB000C007EDD02168FF204862667727770020B4
:101BC000F8BD10B500680B464068C021C94301400C
:101BD0000002000ECC04D870E40E5C708C06A40EDB
:101BE0000904490F9C701970002A0AD102F0B4FA56
:101BF000D870587802F0B0FA5870987802F0ACFAC1
:101C00009870002010BD000030B50B460168896A4D
:101C10005960016809694904490C996000680468C1
:101C20000F482146014088024D04800E18706D0E49
:101C300049065D70490E99706102490E40242140A9
:101C4000D970002A0AD102F087FA1870587802F089
:101C500083FA5870987802F07FFA9870002030BDAF
:101C60007F7F7F0070B5040003D0607F002802D022
:101C700006E0012070BD00202077204600F04CF8DF
:101C8000022060772168CA20486221685320486298
:101C9000204602F074FAFF250426002824D120688B
:101CA00081681C4A114081602168886862686369A4
:101CB000104322691A43104388602168E068086174
:101CC0002068016922891204114301612068C168FA
:101CD00080229143C16020688068800608D4204635
:101CE00000F088F9002803D0206845626677C0E7D5
:101CF0002068016C01229204914301642068016C08
:101D0000A2691143016420684562012060770020C8
:101D100070BD0000BFFF8FFF70470000F8B504469C
:101D2000007F0B4601283ED00120207702206077FB
:101D300020681F46002620378068002A35D04006DC
:101D40004AD5187802F008FA387802F005FA1878BF
:101D50009D78000405435878D978000209040843A7
:101D600005433878996900060543D86905435869E1
:101D700005435868084300902168CA2048622168DA
:101D80005320486220688268FF2101318A438260C3
:101D90002168C86880221040FF388238C860FFF789
:101DA00081FB074628E00220F8BD400600D4DE7023
:101DB000187802F0D9F90504587802F0D5F9000234
:101DC0000543987802F0D0F90543D878000405431C
:101DD000387802F0C9F9C5E7DE70B5E7FFF762FBB6
:101DE000C11B7D20C000814206D92168FF204862C6
:101DF000032060772677F8BD2068C068C007EDD063
:101E00002068C56121680098486420688268FF21C5
:101E100001310A4382602068816801221203114364
:101E2000816008480268012149040A43026082680F
:101E30000A4382602168FF2048620120607726778C
:101E40000020F8BD00040140F8B50446007F0B46B1
:101E5000012815D001202077022060775878002AC9
:101E600010D002F079F9987802F076F9D8789D7858
:101E7000000405435878197800024903084316E026
:101E80000220F8BDC10603D5EF2108400A30587082
:101E9000D87802F069F90504587802F065F9000273
:101EA0000543987802F060F905431878400305432C
:101EB0002168CA204862216853204862204602F007
:101EC0005EF90026FF27002811D110480540206840
:101ED00045602068C16880229143C16020688068A5
:101EE00080060BD4204600F085F8002806D0206834
:101EF00047620420607726770120F8BD206847629A
:101F00000120607726770020F8BD00003FFFFF002A
:101F1000F8B50446007F0D4601280ED00120207739
:101F200002206077206800278068002A07D04006DA
:101F300018D5287802F010F915E00220F8BD400607
:101F400000D4EF70287802F00FF90604687802F0E8
:101F50000BF900020643A87802F006F90643E87878
:101F6000000409E0EF702878AE7800040643687832
:101F7000E97800020904084306432168CA20486240
:101F8000216853204862204602F0F9F800281ED14B
:101F90001748064020680660206881680122920484
:101FA000914381602969E868084321688A68104381
:101FB00088602068C16880229143C1602068806881
:101FC00080060CD4204600F015F8002807D02168C0
:101FD000FF2048620420607727770120F8BD216840
:101FE000FF2048620120607727770020F8BD0000BD
:101FF0007F7F7F0070B504460068C168A0229143CE
:10200000C160FFF74FFA7D260546F60006E0FFF7B0
:1020100049FA401BB04201D9032070BD2068C06856
:102020008006F4D5002070BD70B5040012D00221E6
:1020300020464030054641772068016840229143A0
:102040000160204600F063F8002121666977297756
:10205000084670BD012070BDF8B5040007D0002609
:1020600025464035A662687F002802D005E00120A1
:10207000F8BD2E77204600F04BF802226A772068E0
:102080000168402399430160E06800280BD00F23CA
:1020900000211B02984202D0002800D0A662236BC8
:1020A000002B03D008E001210903F8E7002801D044
:1020B000226301E001202063A26860686369104325
:1020C00022691A4310430123A2695B021A4010439C
:1020D000E2691043226A1043A26A1043226810602A
:1020E000626B606AA36910431B0C0427E2683B40E3
:1020F0001A4310430843216848602068C1697A0286
:102100009143C1612666012068770020F8BD7047C1
:1021100070477047094910B5401E884201D9012017
:1021200010BD074C60610321081F00F09FFF0020D5
:10213000A06107202061002010BD0000FFFFFF000C
:1021400000E000E010B5FFF7E4FF10BD10B501227C
:102150000249034800F090F810BD0000040100207F
:10216000A80C0020F8B503680446D96918680D0763
:102170002D0F07D18A0605D5820603D5204604F027
:102180006FFBF8BD9A68002D64D0D507ED0FFF26D0
:10219000213606402E435DD0CE0706D0C60504D5B5
:1021A00001261E62E36E3343E3668F070223042693
:1021B000002F06DAD70704D027683B62E76E374363
:1021C000E7664F0706D5D20704D022681662E26E92
:1021D0001A43E2660A0709D5202202402A4305D0A5
:1021E000236808221A62E36E1343E366E26E002A54
:1021F000C7D0890604D5800602D5204604F030FBFE
:10220000E06E000703D42068806840061CD5204695
:1022100004F00AFB20688168490611D581684022D4
:1022200091438160606E00280AD012494163606E5C
:10223000FFF75BF80028A4D0606E416B8847F8BDBB
:102240002046FFF783FFF8BD2046FFF77FFF002001
:10225000E066F8BD0A0605D5020603D5204604F05F
:102260003CFBF8BD4906FCD54006FAD5204604F0F3
:10227000EAFAF8BD1568000870B5034660339C7A29
:10228000202C39D100290BD0002A09D001258468DF
:102290002D03AC4206D10669002E03D1CE0701D032
:1022A000012070BD1E7A012E26D001261E724165C6
:1022B000014640310A834A83FF22AC4204D10469BB
:1022C000002C07D10D4A05E0002C04D10469002C34
:1022D00000D07F228A830021C16622229A7219725D
:1022E00001688A6832438A6000680168FF222132EF
:1022F00011430160002070BD022070BDFF0100008D
:1023000010B50C48044600F09FF8002804D10A4894
:1023100001782046FEF7BFFE06482838416B0029A9
:1023200001D001208847012203490448FFF7A4FF98
:1023300010BD0000080C002004010020A80C0020A3
:1023400030B5034660335C7A202C23D100290BD0B2
:10235000002A09D0012584682D03AC4206D1046906
:10236000002C03D1CC0701D0012030BD1C7A012CF8
:1023700010D0C164014640310A824A820021C16600
:1023800021225A721972006801688022114301608B
:10239000002030BD022030BD10B50C48044600F0CE
:1023A0004BF8002809D12046FEF767FE08490122B4
:1023B0004870491C0748FFF7C3FF04481C38416BAD
:1023C000002901D00020884710BD0000FC0B002030
:1023D00004010020A80C0020FEE730B5002803D03F
:1023E000002903D0002323E0012030BD022030BDAE
:1023F000C45C2409092C02D85D00303405E0254670
:102400000A3D062D02D85D0037345455C45C2407BC
:10241000240F092C03D85D00AD18303406E02546A2
:102420000A3D062D03D85D00AD1837346C705B1C77
:102430008B42DDD3002030BD01884088814201D12C
:10244000012070470020704710B504464188FEF710
:102450000CFE2188884201D1012010BD002010BD52
:10246000884200DC08467047F8B5174605460A461C
:102470001948069C089E0799447183711C0AC4710F
:102480001C0C04721B0E437281720B0AC3720B0C7C
:102490000373090E4173D4B2C4731048FEF786FA71
:1024A00039460E48FEF792FA10220B490B48FEF708
:1024B00095FA224629460948FEF790FA0749C81FAF
:1024C000FD38FEF7D5F9064C601CFDF771FE21784A
:1024D000000208433060F8BDA0000020280800205A
:1024E00024070020F0B585B000287DD00268002ABE
:1024F000FBD04268002AF8D08268002AF5D0554AFD
:102500000125D165906511460020173108701074BF
:102510005063507595759074106550654E49D07430
:1025200002220A7048700A224A60049206220A7245
:1025300003924A4ACA607D26F600029272000E613A
:102540004A610192464A8A6100920A46454F20320A
:10255000CF611570444B5070DA690C461B6A0C341D
:10256000E361A261FF228A85C8850886488688863D
:10257000C88600242046FDF7E1FF00223B4BFDF713
:10258000D3FE032252073A4BFDF71CFEFEF708F874
:102590000246E1003748641C4250081850220021CE
:1025A0000271E4B24171402CE4D32B4804993838CD
:1025B00041600399017202990661C160019941610C
:1025C0000099C7618161014620310D7001F0F4FD71
:1025D00021482949383004F02DF81F483146383059
:1025E00004F098F8254900E032E01B48683004F018
:1025F00021F8194822497C3004F01CF8164821497A
:10260000903004F017F814481F49BC3004F012F859
:1026100004F008F80F4E1D4930630F48204C4C3031
:1026200001601B4981601B4901611B4941601B49D5
:10263000C160216888476069804705F02FFB757489
:10264000A16D28468847E06A8047002005B0F0BDAC
:102650000320FBE72C0000200C060020B80B000034
:1026600088130000701700002C800008006A0841E1
:102670003508BC41D4030020F53000083D3A00087D
:10268000A9390008FD390008B13000088D3800086C
:1026900019330008E53700086D390008453800088F
:1026A00048810008F8B504461D4617460E460D48F9
:1026B000FEF77CF939460B48FEF788F9F2B221465D
:1026C0000848FEF78BF90749C81FFD38FEF7D0F818
:1026D000054C601CFDF76CFD217800020843286062
:1026E000F8BD00002808002024070020FFB585B0B1
:1026F0000F46044607ADF02200211D480E9E05F04E
:1027000013F91B4A1021204604F08AFE10220021F2
:10271000684605F009F9012168460170062239462C
:102720006C46401C05F0E8F802222946E01D05F041
:10273000E3F80F4A6846089904F047FE102200218A
:10274000684605F0F1F80221684601700622394614
:10275000601C05F0D1F802222946E01D05F0CCF8F6
:10276000034A3146684604F030FE09B0F0BD00006F
:1027700034070020F8B517460E4605461C46F022E1
:1027800000210B4805F0D0F8094A1021384604F022
:1027900047FE074A2146284604F017FE102E06D3AE
:1027A00021462846024A1031103004F00EFEF8BDD2
:1027B00034070020FEB50446002002260190002CBC
:1027C0005BD03348416BCA0701D1C80601D501204F
:1027D000FEBD002069460872014614222D4805F00E
:1027E000A3F82C48012545702078002804D0012842
:1027F0000AD003283FD119E0254869460573087AB5
:10280000C006C00E403008E021484573E17B0173EB
:102810006946087AC006C00E80300872207901909F
:10282000A06800900E26A789A6570CE018486946B4
:102830000573087AE02108436946087260680090D1
:102840000A262789A65712480079002808D10522B0
:102850000021304604F00EF900280ED00E484670D4
:102860003B4602A8009A019903F056FB060006D0E9
:102870000749002048713046FEBD0320FEBD0548D3
:102880002178017002481730017829430170F2E77E
:102890002C000020F4060020D405002070B504466A
:1028A0000025022235A1364804F076F8002C17D016
:1028B000354A2678114633483839330004F00DF98B
:1028C0001D121417191B1E20232527292E37353BCF
:1028D0003F41434547494B4F4D51535557595B0075
:1028E000032070BD007C00E0C078207144E00079D6
:1028F000FBE7806C00E0C06C60603DE02348FBE7D4
:1029000022481030F8E7407CEFE7807CEDE7204874
:10291000F2E71D497439086E496E03E01A490C311B
:102920008869C969A160606026E0174801E016481F
:1029300038382C30E0E7144818380078D5E7C868F4
:10294000DAE70869D8E74869D6E78869D4E7C8694B
:10295000D2E75078C9E74878C7E71078C5E7087824
:10296000C3E7406AC8E7806AC6E7006AC4E7486808
:10297000C2E7087AB9E70225284670BD3333000064
:10298000E00B00202C0000200C0600209801002005
:10299000D4030020F8B500250446002805D064487B
:1029A000818EC90703D00120F8BD0320F8BD624F16
:1029B00022783E465F49383E130004F08EF81D1021
:1029C0002124272A2D333A40B5434A575161696C77
:1029D0006F72757883998EA7AAB5ADB1B5002279CB
:1029E0000274002A04D0012A04D0022A02D102E093
:1029F000C86A804799E00021417100F0FFFF94E030
:102A00002179C17091E0217901718EE06168816462
:102A10008BE06168C16488E06168002974D010228D
:102A200046482AE0616800296ED0444810221030E0
:102A300023E022794274896D1046884775E0217938
:102A4000817472E03C48A26874386168426601662D
:102A50006BE03948A2680C306168C261816164E052
:102A60006168002950D00C22334805E061680029D4
:102A70004AD031480C2238382C3004F03DFF54E065
:102A80002079411E0E293FD82B49183908704CE097
:102A90006068F06049E06068306146E060687061DD
:102AA00043E06068B06140E06068F0613DE00420B0
:102AB00020560522002103F0DDFF002824D02079D4
:102AC000787032E0042020560522002103F0D2FF66
:102AD000002819D02079707027E0042020560722A2
:102AE000002103F0C7FF00280ED0207938701CE0C9
:102AF000042020560722002103F0BCFF002803D049
:102B00002079307011E0FFE703250EE06168416233
:102B10000BE06168816208E060687860706004E0E2
:102B200020793872307200E002252846F8BD000096
:102B30002C000020488100080C060020980100208D
:102B4000F8B502270446002855D03A4EB08EC0078B
:102B500017D10C220021384804F0E6FE3648012146
:102B600041702278354608211735002A06D0012AFF
:102B700043D0022A4CD0032A35D151E0B28ED2067E
:102B800001D50120F8BD6268002A34D0A268002A6D
:102B900031D0E268002A2ED0237C002B2BD0302BA2
:102BA00001D2302323742B780B432B7021780170D2
:102BB0006068F063A06872643064207CB0750020A7
:102BC00070756946087001F0F7FA707D401CFDF7DA
:102BD000D9FF1A49002348701A461946684603F07F
:102BE0009BF9070005D0002070712878F721084074
:102BF00028703846F8BD0320F8BD2A780A432A70A9
:102C000021780170002211460220FDF747FFE8E716
:102C10000270287808432870A08803F01DFBE0E7C5
:102C20000270287808432870227BA088A16803F0EE
:102C30004BFBD6E72C00002008070020D40500201D
:102C4000FEB508AF70CF6F4670C700F001F8FEBD4B
:102C5000FFB50D46002681B01F460124F022314603
:102C6000294804F061FE284A1021039804F0D8FB9B
:102C700026480A9941718771390AC171390C01726C
:102C8000390E41720B9981720B991F4F090AC1725B
:102C90000B99090C01730B99090E4173203F18E041
:102CA0001A48194AC473641C1146A4B2203904F0AE
:102CB0008CFB00203118019A3B5C525C401C5A404E
:102CC0000C9B80B25A541028F4D3103D1036ADB28C
:102CD000F6B2102DE4D2002D13D00B4A0B4811464A
:102CE000C473203904F071FB002008E0019A311808
:102CF000525C3B5C5A400C9B401C5A5480B2A84228
:102D0000F4D305B0F0BD000034070020B00000206F
:102D1000F8B507461C480C46407869461B4D0870BC
:102D2000287A697A4018C6B2002C09D06A46002178
:102D30002879FDF7F7FEA87C002803D0144803E0AB
:102D40000320F8BD1248801F6A4600215156405C9E
:102D50006070B04216D3801B2070002268468156F6
:102D6000384603F071FE00280AD06846002141561B
:102D70003246384603F068FE002803D00020F8BD34
:102D80000820F8BD0920F8BD0C0600202C0000200A
:102D900038800008014901200871704700000020B8
:102DA000F0B504464078EFB0002864D1A07C01283B
:102DB00009D114227AA1804803F0EEFD0E227FA1F2
:102DC0007D4803F0E9FD814D2878012802D1A889CA
:102DD000401CA881C8213DA8FDF7D8F9C8210BA83F
:102DE000FDF7D4F9607B012845D1C8213DA8FDF746
:102DF000CDF9C8210BA8FDF7C9F9217B0BAAA06862
:102E0000FFF7EBFA207B002741000BA84754009006
:102E1000607C237B002801D06DA200E06EA270A12F
:102E20003DA803F02FFE3DA8FDF7BBF982B23DA9F6
:102E3000614803F0B1FDE0787149012813D0022800
:102E400011D0E02817D12A7801260220002A14D0B8
:102E5000A26812786A70130003F03FFE082B383A1C
:102E60003C3E4F54720D207B012804D1A0680078AD
:102E7000C007C00FC8706FB0F0BD227B042AFAD122
:102E8000A2681378012BF6D15378012BF3D19378F4
:102E9000012BF0D1D278012AEDD18F70E0220A7097
:102EA0004870AF81AF73EF732F742E706E706946E8
:102EB00006E08E70087018224A70AF812F7008A942
:102EC00008700E710846FFF765FDD4E74870D2E739
:102ED0008E7063E08F7061E0227B4A703B49042072
:102EE00054390870012005E0A3681B5C5B1C0B547F
:102EF000401CC0B29042F7D3BDE768460670FFF7AA
:102F00001FFEB8E78E700C46087018216170AF8103
:102F10002F70694608750E7605A8FFF73BFD384807
:102F200069460F700C300190083002900830039011
:102F3000032008746846FFF703FE042060719AE7D7
:102F4000217B032902D007290CD027E069460870AD
:102F5000A068817842780802104340BA69468880A8
:102F6000684619E0032168460170A06881784278BC
:102F70000802104341BA68468180A068C17802798E
:102F80000904120240791143014364204143029134
:102F9000A068817968460173FFF7D2FD6E706AE719
:102FA0002B53454E443A41434B20524543454956E5
:102FB00045440D0A00000000E00B00202B53454E55
:102FC000443A444F4E450D0A0D0A000060010020AE
:102FD000525857494E320000525857494E3100005E
:102FE0002B524556204D53473A25732C525853497E
:102FF0005A452025642C222573220D0A0D0A000053
:103000000000002070B50178104C0125002902D085
:10301000012919D10CE04078002801D0657113E036
:103020000E220BA10E4803F0B7FC022060710BE0EA
:103030004178002908D10B490A78012A04D18D73FF
:10304000027ACA73407A0874257170BD00000020AE
:103050002B4A4F494E3A444F4E450D0A0D0A000087
:10306000E00B002060010020704700008307FF2272
:10307000DB0E9A408907090E994000280BDA0007F9
:10308000000F0838830808489B001818C369934349
:103090000B43C3617047830804489B001B181868E2
:1030A000904308431860704700ED00E000E400E042
:1030B00010B50B4803F066FB0A484179002905D09A
:1030C00001218173416B042291434163007C0228FA
:1030D00005D104481022173001781143017010BD4A
:1030E000C80600202C0000200149012048707047CC
:1030F000EE000020F8B5854803F044FB844D002223
:103100002878844CC10670D5616B4B0604D54023EA
:1031100099434908490061637C490307C4310F465C
:10312000143F0026002B01DBC3070FD07B78022B56
:1031300002D04B78022B09D1626B520852006263B5
:103140002672627B7A713E710122BE6063791343FD
:1031500033D1020702D4C10703D12EE00A78002A36
:1031600008D06A49A27A5039097891420ED981076C
:1031700012D41DE0627D8A724978002903D0A17DB6
:103180008A4210D214E06662A6720CE0800703D473
:103190002672E06A401CE062A6726078002802D1C4
:1031A000606A401C6062606B40084000606304E03D
:1031B000EF210840287000F041FC2878800715D5E1
:1031C0003879012803D0607B217B88420ED9A67311
:1031D00066716078002802D1606A401C6062607B82
:1031E0007871606B4008400060634BE0A07B002872
:1031F00048D0A08EC00645D4A673607B217B884250
:103200002CD208282AD8401C6073C0070AD03F4936
:10321000012070390856421E002A01DD401E00E0E0
:103220000020487002F0EAFD002812D008207870D3
:103230002672606B40084000606366713E71607B7F
:103240007871324870384078B8706078002816D0AD
:1032500018E02878EF210840287013E02B490C2251
:103260000C390846383804F047FB606B40084000D2
:103270006063267266713E71607B7871E5E7606A13
:10328000401C6062606B810702D502218843606345
:1032900000280ED07D21C9001C4803F03BFA1B48D2
:1032A00003F040FA287880072ED5207C02281DD014
:1032B0001EE02878C00708D0A06D01681348B03020
:1032C000884728784008400028702878000708D5EB
:1032D000A06D81680D48C43088472878F7210840E0
:1032E00028702878EF2108402870DBE700F086FB83
:1032F0002878400704D4A06D416804489830884776
:103300002878F92108402870F8BD00004406002004
:10331000430000202C000020FFB50446002093B09D
:1033200001460F90069007460990FD480490103022
:103330000C9000200E901090FA48FB4D0171183847
:10334000C281169A0274EA7B4274C1708170417125
:10335000816001734173817441610170F348C06AF7
:103360008047F048583803F00DFA20786946087015
:1033700041091498149E001F761E11910D90012989
:103380001CD003297DD00529FCD007297AD0E54936
:1033900001201839487000F0F7FCE348102217307C
:1033A000017811430170DF480121B03803F0B2F910
:1033B000DC48B03803F0B6F917B0F0BDE878002863
:1033C00004D0D849012018394870B9E0D84FB1B2BB
:1033D0007B1C601C6A6CFFF7CDF96846007838707A
:1033E0000D9806AB81B238466A6CFFF75BF914980A
:1033F00038182038427F017F12020A43817FC07F44
:103400000904114300060843069988426ED1C44856
:103410003C4610300090C24B6A8B611C686CFFF711
:1034200065F96179207909020143A0790004084314
:10343000A864217AE07909020143607A0004084314
:10344000A17A09060143E964E17A4806420FB948C6
:1034500009074270090F0172207B0107B648090F66
:10346000016101D101210161B34C2069FDF766F8CA
:10347000B24F00223B46FCF757FFFDF791F8206161
:1034800001E037E094E1FDF759F800223B46FCF7F4
:1034900099FEFDF785F86061102E1BDD502069460E
:1034A00008746F6B20200743032600246F63A04835
:1034B00000190D30FCF77CFE0002000A642148432D
:1034C000761CE41CF6B2E4B20390082EEFD3202061
:1034D00087436F6393490020143148700120E870DE
:1034E0000846FC3841783838417056E78D48062147
:1034F0001430F9E7A078617800020843E178090404
:103500000143207902060A4387490392C96C0520CA
:103510008A42854917D00F6A0CE03A6803998A42BB
:1035200007D101210E91391D049110310C917D6A52
:103530000AE0BF6A002FF0D10A217A48183841709A
:1035400000F022FC38E78D6A265C69460E70401C4C
:10355000225C401C205C01023007000F08300890FC
:103560001498114320182038037F099A1343427F8F
:1035700012021A43837FC07F1B04134300061843C3
:103580000990481B80B20122D20306A90B909042F9
:1035900015D22D18012000900D98029181B201954D
:1035A0002046039B049AFEF75FFF0699099888421C
:1035B0001CD101210B98890388421CD224E000B25F
:1035C0000122281812048018129001900D980122EF
:1035D0000291009281B22046039B049AFEF744FFB9
:1035E00006990998884201D1129DE2E701210B98C2
:1035F0008903884205D34B48092118384170456139
:103600009EE71098002873D046490020183948706A
:103610000E9A8A70F206D20F4A7188600873414B85
:103620004D6141495870C86248720E9800280CD00C
:103630001846022118380170796AA94203D100297D
:1036400001D007217BE77D620FE01198052811D09A
:103650003549344800228A7118380270896AA942B3
:1036600001D10029EDD1304885622E48007801282B
:103670000ED00FE02C482B4A01218171183A1170AD
:10368000806AA842EFD10028EDD001200F90EAE730
:10369000B00602D524480021017208991498401AF6
:1036A000001F002854DD605C4F1C1499C91B091FC2
:1036B000C9B20D911B491839C870002819D03007BC
:1036C00007D016980821C3B2781EC2B2204600F077
:1036D000B9FB17480121029000910195E019039B65
:1036E0000C9A0D99FFF7ACFA0F98002828D051E0FA
:1036F0005CE0300702D001200F904BE00C48012124
:10370000009102900195E019039B049A0D99FFF72F
:1037100097FA16980021C3B205480D9A1FE00000E1
:1037200098010020F40600202C00002048810008A9
:10373000B7020020F4050020D405002000408F408F
:103740002648254981600D990173012141730BE0E1
:10375000300706D016980A46C3B20821204600F06A
:1037600071FB0F98002815D1B00606D51B49012022
:10377000183108711839887408E018490020183188
:1037800008711748417B007B814203D913481438E4
:1037900002F0F8FF12490222173108781043FB2289
:1037A00010400F9A920010430870F6E50B21C4E612
:1037B000611C0948149A04F09FF80848032101701D
:1037C00000214170044981600673054802221730C8
:1037D000017811430170E0E5B7020020DC0600200B
:1037E0002C00002070B5144C207C022803D0134814
:1037F000C06A804701E000F001F911480E4DE27BFC
:1038000001461735102614316379002A05D00522A8
:10381000002B00D042704A700AE00422002B00D036
:1038200042704A70206D02F001FF616E884202D33F
:1038300028783043287070BD2C0000204881000893
:10384000F406002010B50E4C207C022803D00D4851
:10385000C06A804701E000F0D1F8E07B01280ED17A
:1038600061790320002901D00749487006491022D8
:10387000143148700248173001781143017010BDAF
:103880002C00002048810008F4060020F8B502F062
:10389000C9FE324C0546207C022803D03048C06A5D
:1038A000804701E000F0AAF8A07800262D4F0028FC
:1038B0002DD038466C38216E02F02CFF38466C381B
:1038C00002F030FF207C02280ED038465838616E56
:1038D00002F020FF3846583802F024FF207C0228EE
:1038E00002D06079002822D07D21C900484204F02E
:1038F00047F9616E40187D210901411819482C389B
:1039000002F008FF17482C3802F00CFF0FE01549B1
:103910007E70032014314870104817300178002958
:1039200001D101210170C9B2102211430170207D23
:103930000D4AC100891849790C225143074A68325F
:1039400089184D602565FDF79FFA6079002803D13D
:103950007E70A07A401CA072F8BD00002C000020F0
:1039600048810008F4060020D403002010B50B485D
:10397000007C022803D00A48C06A804701E000F0BA
:103980003DF808490220487014314870034810225D
:10399000173001781143017010BD00002C00002089
:1039A00048810008F406002038B50F4802F0EAFE0E
:1039B0000E4C0025E573207C022802D10C48006BD8
:1039C00080473021207DFCF78DFB0A48064C41439F
:1039D0000948283408180095A18862788BB2002124
:1039E000615600F001FF38BD880600202C00002041
:1039F00048810008400D0300E0F8D11D38B50024CF
:103A00000C4802F0BFFE0C4D287C022800D1012496
:103A1000084800941430018A427B8BB20C21415635
:103A2000DC38406A00F0E0FE002801D00120E87395
:103A300038BD00009C0600202C0000203EB5174831
:103A400002F0A0FE164C1021606B88436063204694
:103A50001730007800071DD51048943000780028F2
:103A600018D100F0A9FB607D401CFDF78BF80B49D5
:103A7000A039487000206946087121790246C901C1
:103A80000A4369460A7203460246009002A901A849
:103A900000F060F802F0B2F93EBD000074060020AC
:103AA0002C0000203EB50A4802F06CFE0124684656
:103AB0000470FEF7F3FE002805D168460179054839
:103AC000012901D044713EBD0221417104713EBD06
:103AD0004C0100200000002010B5074802F052FE03
:103AE00005481430FDF7E4FC0449034802F012FED7
:103AF000014802F017FE10BD74010020204E0000A6
:103B0000F0B5064600242046002E01D0002A1DD123
:103B10000020F0BD355DAF1E3B0002F0DEFF071553
:103B200013150511130D1500641C1554E4B2401C47
:103B3000C0B2335D135400E01554401CC0B203E022
:103B4000A41C00E0641CE4B2641CE4B28C42E1D327
:103B5000F0BD7047F0B585B00F4600210A9D854C39
:103B60000391009221831E1E617100D10025EAB2EB
:103B70002270814D0178297000780121400908D018
:103B800002283DD0042839D007287DD0022005B076
:103B9000F0BD2183681C0822216C03F0B8FE208B45
:103BA0000822083080B220832818E16B03F0AFFEB2
:103BB000208B08302083714840698047014660832C
:103BC000208B03AB2954401C80B2090A2954401CA5
:103BD0002083C1B26848626CFEF764FD208B0399B4
:103BE0002954401C80B20A0A2A54401C80B20A0C94
:103BF0002A54401C80B2090E2954B6E0012060719D
:103C0000E07800284AD038785D4AC0090121FCF7E5
:103C100089FF81013878BF22104008433870A179AC
:103C2000002904D00021A171202108433870524896
:103C3000E16C41700A0A82700A0CC270090E0171AF
:103C400039784171A18C8171090AC171FF30217AE3
:103C5000FF3040180825627A4A4903F04DFE207A69
:103C6000617A4018C1B22172002E22D0207800283B
:103C70001FD00F2927D8E079002824D038780309ED
:103C80001B014018000700E066E0000F03433B7093
:103C9000394A3C4F002053710F3F07E0072076E779
:103CA0003B5C53556D1C401CEDB280B28842F7D38B
:103CB00009E0002907D0E079002804D0314E2170B6
:103CC0000F3E002000902F4A00271046E7710F3862
:103CD000FFF716FF6072002801D00120E071002E6E
:103CE00015D02178002912D02348009A42556D1C26
:103CF000009AEDB2002A26D0626A4019019200971C
:103D000002901D4AE36C103A3046FEF7A1FF20787E
:103D100029182183626A03A801920290164A00972B
:103D2000203A1548E36CFEF79FFB134A218B03985A
:103D30005054030A52185370030C000E9370D07045
:103D4000091D218313E0626A401901920A4A009713
:103D50000290203AE36CD7E7002B08D0002A06D067
:103D6000681C314603F0C8FD2078401C20830020E9
:103D70000DE700002C000020B80100204881000859
:103D8000D5050020C503002010B50C484022416B2A
:103D9000114341634079002801D0FFF789F90749B1
:103DA000122217310878104308700121044802F0EC
:103DB000B1FC034802F0B6FC10BD00002C0000204E
:103DC0004406002010B5022810D0E0280DD1164876
:103DD0000122847B01465439144B012C11D04478C4
:103DE000012C19D0042C00D1427010BD0E48402186
:103DF0005438FCF7CBF90E220DA1114802F0CCFD8E
:103E000010BD0024847303245C7005230B70C37BF6
:103E10004B70037C8B70E7E702225A708089020A9C
:103E20000A70487010BD00006001002000000020F2
:103E30002B526561644F766572616C6C0D0A0000EF
:103E4000E00B0020FFB58DB0BB480C46B94F049085
:103E500069E10D98005D641C801EE4B2030002F06D
:103E60003CFE070513C5D2FEFDFCFB00B349002054
:103E700048700D98005D0872641C0D9AE0B2125CE7
:103E8000401C4A72C4B24EE1072009900020019004
:103E9000029001AB03904100A74A401C203A8A18C7
:103EA000928DC0B25A520628F5D30D98005D641C5D
:103EB00001070006000F0A90090FA1480B91007935
:103EC000E4B2002813D19C480122203882560A9976
:103ED0008A4204D1002141560B98814207D000222A
:103EE00011460320FCF7DAFDE41CE4B21BE10D9857
:103EF0000D99025D641CE0B2095C401C090211438B
:103F00000D9AC0B2125C401CC4B25006400F8446E9
:103F10001007000F009001D1012000906046062894
:103F20000FD0072828D062460020160101252A4616
:103F300082400A4229D03218D200BA58002A20D032
:103F400023E000210A46002053000D18ED007D59A2
:103F5000002D06D001ADED5A01268640354301AE55
:103F6000F552401CC0B21028EFD31031521CC9B218
:103F7000D2B24029E7D30FE00998400840000990E9
:103F80000AE0099A520852000992401CC0B2102857
:103F9000CDD360464000195201A90A9802F022FDD3
:103FA000002803D10998FD2108400990072200212B
:103FB0000B9802F05FFD0028099802D1FB21084010
:103FC0000990C04340070DD15B480A9920384170E1
:103FD0000B9901700C2201A92C3003F08DFC04997F
:103FE000009808700022032009999AE00D98012199
:103FF000025D5348641CC272914081830022E4B286
:10400000114604208DE00D980726005D641C4106D2
:10401000490F0007000F069105900D99E0B20A5C68
:10402000401CC0B2095C401C090211430D9AC0B289
:10403000125C401C1504C4B20D4364204543414842
:104040000295016A28468847002812D03E488542DA
:104050000FD33E48854203E069E041E03AE02CE0BE
:1040600007D839483A4940422818FCF73BF800295C
:1040700000D0062605220021059802F0FBFC00284E
:1040800001D1FD20064003220021069802F0F2FC37
:10409000002801D1FB200640F043400709D10498D5
:1040A00005990172244902982039486204990698BA
:1040B000487000223146052033E02148FF21C06DC1
:1040C000002804D00068002801D08047014606205F
:1040D000109A26E00021641DE4B20A46072020E081
:1040E0000D98005D641C0007000FE4B2002800D1A9
:1040F0000120FCF723FA174E00223346FCF714F98F
:10410000FCF74EFA0C4D203D2861FCF717FA00220F
:104110003346FCF757F8FCF743FA00226861114672
:104120000820FCF7BBFC0F98844200D291E611B046
:10413000F0BD0000D4030020F40500200807002093
:104140002C00002048810008E0F8D11DA067611E06
:10415000400D030000408F4001090A22000751432F
:10416000000F4018C0B27047002102E00A38C0B208
:10417000491C0A28FAD20907090E0843704770B58E
:1041800004460068C168490613D40021C943C160D0
:10419000FDF788F97D260546F60006E0FDF782F971
:1041A000401BB04201D9032070BD2068C0684006A2
:1041B000F4D5002070BD000070B51A4C0025E570E4
:1041C0006562A562E562A572012020736073A57324
:1041D000E572A08325726572A070134801460278CB
:1041E00038390A7040784870084658304178383875
:1041F00041705C38024680329169D269426601663C
:1042000001460C22A031683003F076FB6571A57180
:10421000E571206A01E04562806A0028FBD14020F8
:10422000207570BD2C0000200C06002010B5040085
:1042300007D0002000F0EEF8A04204D2001B401E80
:1042400010BD002010BD001B10BD00000FB4F0B564
:104250008BB00C461C2212A96846FBF77EFF10A803
:10426000807C0A9010A8477C067C007B07905F4802
:10427000844202D2002C02D002E0044600E0012475
:104280002046FCF75BF95A4A5A4BFCF74DF8099166
:10429000089003F081FC04460D46099B089AFCF740
:1042A00035F80022544BFCF73FF808905348099129
:1042B000C068FCF72FF9099B089AFBF783FFFCF70E
:1042C0004BF94E49C860FF21E931884218DB4B4960
:1042D000FF38E938C8600022494B20462946FBF7E1
:1042E00071FF04460D460BE00022464B204629464E
:1042F000FCF70CF8044607980D46401C80B2079066
:104300000022404B20462946FCF77CF90AD8EBE70F
:1043100000223D4B20462946FBF7F8FF761C044659
:104320000D46B6B20022384B20462946FCF76AF902
:104330000AD8EDE70022354B20462946FBF7E6FF79
:104340007F1C04460D46BFB20022304B2046294652
:10435000FCF758F9EED90A98FCF7F0F822462B46FC
:10436000FBF730FFFCF71CF984B203E03C3C7F1CF8
:10437000A4B2BFB23C2CF9D203E03C3F761CBFB2E2
:10438000B6B23C2FF9D205E0183E0798B6B2401CF1
:1043900080B20790182EF7D210A8407B00281FD0BB
:1043A00016498979401880071AD010A8C17A184890
:1043B000401E095C0798814202D2FBF793FE0791E9
:1043C0006846847247720672079901711C22694619
:1043D0001098FBF7C2FE0BB0F0BC08BC04B0184745
:1043E00010A8C17A0A480C30E2E700004206120029
:1043F000FCA9F1D24D62004000408F40F400002043
:104400000000F03F0018F5400020AC4000004E4096
:10441000A4810008F0B500248FB0254600280BD0F9
:104420001C2201466846FBF798FE694608884979D0
:1044300000260F18079113E007A800F0A3F81C222C
:1044400007A9EFE7002E17D0B00715D0304B002298
:1044500020462946FBF7B6FE761C04460D4636B2CA
:10446000B742EFDC0798002809D0B80707D06846A4
:10447000C77800267F1E27E00022264BE8E7684623
:10448000C77800267F1E0DE023482449805D4843FD
:10449000FCF754F822462B46FBF794FE761C0446A4
:1044A0000D46F6B2B742EFDC10E01B481B490C3852
:1044B000805D4843FCF742F822462B46FBF782FE1C
:1044C000761C04460D46F6B2B742EEDC6846817AA9
:1044D000407A3C2250430A186846017AE1200001E4
:1044E0004143684600790D4B584308181018FCF7F3
:1044F00025F822462B46FBF765FE0022084BFBF70A
:1045000013FF03F049FBFCF74BF80FB0F0BD0000C0
:1045100038137E4150287E41B0810008805101004F
:104520000040DF3F10B508488178C07881430AD049
:10453000FCF748FB05480168042211430160012192
:104540000846FCF7F5FF10BDF400002000700040A5
:104550000B498B680022984205D94B78002B02D07A
:104560004A708B68C01A8B68984202D9322801D2EF
:104570008A70704701228A708968401A704700006B
:10458000F400002010B588B004460022124802A9A9
:10459000FDF73AFB00A900220F480231FDF711FB9D
:1045A0000E496846CA8802804379632B05D0087893
:1045B000002809D0002B03D006E00120087003E09A
:1045C000002008706432CA801C2269462046FBF72E
:1045D000C4FD08B010BD00006C0C0020F4000020E9
:1045E00010B50020FFF716FF04460548FFF712FF3D
:1045F000844202D2201A401E10BD201A10BD0000B5
:104600008C0C002010B50020FFF704FF10BD000047
:1046100070B5274D98B02879002846D12548016A01
:104620000122D2031143016214210AA8FBF7AEFD57
:104630000024282168460F94FBF7A8FD1E491F4857
:1046400012C0032101608460C460046141600838C5
:10465000FDF708FB08A80472447284720D940122CD
:104660000AA916480E94FDF753FC012608A8067700
:1046700046778677C47732460FA91048FDF7E4FBEA
:10468000684604704470847001940394002212A957
:104690000A480494FDF73CFC002204210220FCF7A8
:1046A00043FF0220FCF736FF2E7118B070BD0000EA
:1046B000F400002000100240002800406C0C002094
:1046C00010B500F001F810BD30B5FF2405460134E7
:1046D000A5B021461E48FDF73BFA1DA8FFF752FF83
:1046E0001C221DA90FA8FBF738FD19481C220FA991
:1046F0002030FBF732FD142211A96846FBF72DFD8F
:1047000029461DA8109B0F9AFFF7A0FD1C221DA98A
:1047100016A8FBF722FD00200C9069460E940A9023
:10472000C87518A988786946887518A948786946AF
:10473000487518A908786946087510A9087F08A95E
:104740000875002205A90248FDF7E8FA25B030BD3A
:104750006C0C002070B5092000F0F7FC0446062020
:1047600000F0F3FC0504072000F0EFFC0002054315
:10477000082000F0EAFC2843FBF7E0FE0022184B7B
:10478000FBF7D2FDFBF70CFF05460021092001F0E5
:1047900005FB3B2000F0D9FC4026304301463B207E
:1047A00001F0FCFA3B2000F0D0FC8006FAD40D4862
:1047B00000F0D4FD3B2000F0C8FC304301463B2014
:1047C00001F0ECFA3B2000F0C0FC8006FAD4214650
:1047D000092001F0E3FA284600F0C0FD70BD00009A
:1047E00080844E4000A1BC33FFB520480D468DB0FB
:1047F000405D1F4C0B9060681F46169E8047002846
:1048000002D0002011B0F0BDE1680D98884719482A
:104810000021057101200A900391049106910791EE
:1048200008226B4609960591089086C3A76903463E
:104830000B9A0F99B8471048807C002802D00B488B
:104840000C3001E00948801D405D626D0D30C1B241
:104850000A989047002E04D0616B00208847012001
:10486000D0E70648616BC068F8E700002C800008BC
:1048700048810008DC0600202C000020D405002020
:1048800070470120704700000349884201D2802010
:10489000704700207047000040DD4A1F0148007A41
:1048A00070470000200B0020F3B5014600206B4C40
:1048B0008DB000290BD001297ED10025A06A2E469B
:1048C000072850D0082851D0092854D151E0206839
:1048D000FBF734FE06460F460E98FBF72FFE0290BC
:1048E0000191302000F031FC4007800F02D0002001
:1048F0005B4901E00020014608900D46272000F0AA
:1049000024FC4007400FA188401C4018FBF716FE0E
:10491000A279012A20D00022514BFBF753FC2B46F1
:10492000089AFBF74FFC019B029AFBF74BFC227A9B
:10493000012A14D000221346FBF744FC0322FBF7A4
:10494000D3FD32463B46FBF757FD0022454BFBF7B4
:10495000EBFC03F021F97DE000221346DDE70022A5
:1049600001239B07E8E700253F4E04E000253F4E6A
:1049700001E03F4E0025E76A0120B840FBF7CAFD81
:1049800002460B4628463146FBF736FD02460B46EB
:1049900000203349FBF730FD05460E46608EFBF7DD
:1049A000CDFD0022334BFBF70DFC2A463346FBF7C7
:1049B000BBFC2A4C203400E04EE003910890607C60
:1049C000001DFBF7BBFD07910490207C002800D060
:1049D0000220381A8000FBF7B1FD099106900E986D
:1049E000B900C000401AA17D09014018217D0029AD
:1049F00000D01421401A1C30FBF7A0FD099B069A39
:104A0000FBF7FAFC02F08AFD079B049AFBF78CFC8B
:104A1000002207460C461346FBF7F4FD02D2384647
:104A2000214601E0002001460022134BFBF7CAFBA0
:104A30002A463346FBF778FC039B089AFBF7C2FB38
:104A40000022084BFBF770FC0C4A0D4BFBF7BAFB3E
:104A500002F02CFEFBF7A4FD0FB0F0BD400B0020D0
:104A60000000F03F00408F408084FE4080840E4173
:104A700080841E4100001140000020402B8716D981
:104A8000CEF7EF3F70B5194908601949194801F090
:104A9000D1FD18481649143001F0CCFD15481449D1
:104AA000283001F0C7FD00F0A5FBFFF753FE002002
:104AB00000F0C4FC0D48001D00F060F80E4D00240D
:104AC00060002618A85D00F081FC7019817840789C
:104AD00001F064F9641CE4B2102CF1D3002000F062
:104AE00075FC044800216C38017270BDD0000020B4
:104AF000455000088C0B0020688000081CB5012080
:104B00000024024601902346042100940A48FCF741
:104B1000E5FA0948002300941A461021D038019480
:104B2000FCF7DCFA0448002300941A461A21C43822
:104B30000194FCF7D3FA1CBD1C0B00207CB50124AA
:104B400000940023224604210B480194FCF7C6FA86
:104B5000002509482B462A461021D038019500949B
:104B6000FCF7BCFA044800231A461A21C438019500
:104B70000094FCF7B3FA7CBD1C0B002010B5044672
:104B80000368032201210548FCF79DFB034803222B
:104B900001210C306368FCF796FB10BD4C0A002025
:104BA00070B514460E46054600F010FC304600F085
:104BB000D5FB052000F042FC0120FCF752FA284604
:104BC00000F0F6FA054600F017FFA54201DD0020CF
:104BD00070BD012070BD0000F8B500256846057065
:104BE00001228DA18D4801F0D7FE8D4E307A01282B
:104BF00009D0022859D130466C3001F0C3FD707ADB
:104C000001287DD1F9E0707A00281AD001284CD112
:104C10004021122001F0C2F8122000F096FA6946F5
:104C20000870087881067E4840300090002968DAD4
:104C30002021122001F0B2F80098807E002876D062
:104C400083E0774C2034207A012835D13F2000F0D2
:104C50007CFA69460870087880072DD40B213E2025
:104C600001F09CF810213F2001F098F820466030B8
:104C700001F088FDA07A002818D00D2000F065FA18
:104C8000402101430D2001F089F82046743001F0E5
:104C900049FD64480068002803D00069002800D05E
:104CA0008047257565752584E583F8BD5C4894309B
:104CB00001F068FD3572ECE7E18B5B4F00290AD10A
:104CC000208C002807D1A079002831D0322000F0B4
:104CD0003CFAE083A17F208C091AC9B2C01900F008
:104CE0005FFAE08B20844E48803001F04BFDA07AC3
:104CF000002823D00D2000F028FA4021014301E0D4
:104D00007FE02CE00D2001F049F84548943001F097
:104D100009FD444800680028C3D08668002EC0D032
:104D20001622A256E18B00233F48B047B9E70BE0BB
:104D30003B4801213E3000F033FACBE7384835726A
:104D4000943001F01FFDE4E735723548803001F002
:104D500019FD344800680028A7D0006957E01920E1
:104D600000F0F3F92E4C40B260342071010605D5F5
:104D7000C043401C0006800E474201E00006870E3B
:104D80001A2000F0E2F92649284A6039C96E002F3E
:104D900009DA914203D901110818C01907E001117D
:104DA0000818C01907E0914203D9011108189D386D
:104DB00002E001110818A438E080132000F0C5F9C2
:104DC00020720146184800F0EBF90098807E002818
:104DD00000D135721248803001F0D4FC11480068CF
:104DE0000028B9D08568002DB6D004230622E356EA
:104DF000A25E217A0C48A847F8BD0821122000F0D5
:104E0000CDFF0848357200680028F5D000680028FA
:104E1000F2D08047F8BD000030000000E00B002019
:104E2000200B0020D00000204009002040DD4A1F58
:104E3000F8B5012232A1334801F0AEFD324E334FB6
:104E40003446E03C2546307AFF35FF3421350134C5
:104E5000012811D0022826D1707A002823D1E18BB5
:104E6000208C0A1AE9788A4244DDC01900F0BEFF9E
:104E7000208CE97840183BE0707A002814D0012893
:104E800011D12148803001F07DFC8021122000F0FA
:104E900085FF002030721E480068002803D0C068DB
:104EA000002800D08047F8BDE08B002809D1208C75
:104EB000002806D1A07900280FD0322000F045F953
:104EC000E083E18B208C0A1AA9788A420BDDC01995
:104ED00000F066F9208CA978CCE70B4801213E3020
:104EE00000F05EF9EDE7D1B2C01900F059F905E024
:104EF0002084F8BDD1B2C01900F078FFE08BF7E74D
:104F000031000000E00B0020200B002040090020B1
:104F1000D000002070B52C482C4C0246037A403259
:104F2000417AD07D012B04D0022B01D1002902D17E
:104F300070BD002916D00129FAD10128F8D102212B
:104F4000122000F02BFF20680028F1D040690028D3
:104F5000EED01C2000F0F9F8216880064969800E27
:104F6000884770BD1848184CE038006C0125203483
:104F7000002827D0207D0128F3D1607D0028F0D1C2
:104F80001148943001F0FEFB6575112000F0DDF84A
:104F900040084042A0751B2000F0D7F805021C20F5
:104FA00000F0D3F82843FBF7C9FA0022084BFBF7BF
:104FB000BBF9FBF7D1FAA0610C2000F0C6F840095C
:104FC000207770BD2575D8E7200B0020D000002089
:104FD00080844E4010B51248407A00281FD0012826
:104FE0001DD1122000F0B1F80E4CC0070BD00521E6
:104FF000122000F0D3FE2068002810D0816900291B
:105000000DD001200AE00421122000F0C7FE206824
:10501000002804D08169002901D00020884710BDF4
:10502000200B0020D00000200548407A002806D13F
:1050300003482030017D002901D10121017570470D
:10504000200B0020F8B52E4E307A01282BD00228F4
:1050500028D100F0CFF8FFF77DFB002000F0EEF93B
:10506000284D002460002718E85D00F0AFF978199A
:105070008178407800F092FE641CE4B2102CF1D3E9
:10508000002000F0A3F91E486030007800F0EEF92F
:10509000002030721C480068002803D040680028B7
:1050A00000D08047F8BD707A002816D1144D002436
:1050B00020352C756C752C84EC830B213E2000F080
:1050C0006DFE10213F2000F069FEA87A01280AD069
:1050D00028463472743001F055FB0B4800680028F4
:1050E000E0D0C068DBE70D2000F02FF8402101433D
:1050F0000D2000F053FE0248943001F013FBECE762
:10510000200B002068800008D000002070B500252A
:10511000012000F05BF9FF21112000F03FFE052087
:1051200000F08CF900240120FBF79BFF2C2000F0FD
:105130000CF8C007C00FA040641C0543E4B2202C4B
:10514000F1D300F059FC284670BD08B5012269462C
:1051500000F004F86846007808BD0000F8B5044681
:105160000E460E48154600210090FCF7B5F80B4896
:1051700061068838490E074601F028F9002406E048
:105180000021384601F022F93055641CE4B2AC42EB
:10519000F6D301210098FCF79FF8F8BD1C0B002006
:1051A0000A4610B501460020FFF7D8FF10BD0000E9
:1051B00010B5002804D0012808D00020C04310BD3D
:1051C0001120FFF7C2FF4008404210BD07480849C0
:1051D000C06E884204D91B20FFF7B7FF9D3810BD71
:1051E0001B20FFF7B2FFA43810BD0000C00A00204A
:1051F00040DD4A1F1CB500240094234601221121E2
:1052000009480194FBF76AFF0120FBF72AFF012000
:10521000002301901A46112100940348FBF75EFF1A
:105220000620FBF71EFF1CBD400A002073B53A4C58
:105230003949E03C25460646497AFF35FF340020CF
:1052400021350134002902D0012962D126E0002055
:10525000208468460179E183A079002809D03220B2
:1052600000F09CFD68460279501E3F2806D8EA707F
:105270000AE0012101A800F0B9FDF3E73146274813
:1052800002F03AFB2020E870E978304600F0AEFDED
:10529000208CE97840182084E0683AE0687EBE25DA
:1052A000012821D03320FFF750FF2840411C332034
:1052B00000F074FD1D213B2000F070FD684601796F
:1052C000154860300172222000F068FD00210E2098
:1052D00000F064FD00210D2000F060FD0120FFF7CB
:1052E00034FF40070AD00EE03320FFF72EFF28409E
:1052F0000146332000F052FD1921DCE700F08EFB5F
:105300000120FBF7AEFE68460179304600F06EFDE5
:10531000E06B00F095FB7CBD200B002040090020D5
:1053200010B5032808D000210648FBF7D5FF01215E
:105330000548FBF7D1FF10BD01210248FBF7CCFF68
:105340000021F5E7C80B0020D40B002002490A78A1
:10535000824200D008707047EC00002010B50D4963
:10536000C866FBF7EBF800220B4BFBF745F8FBF7A1
:1053700017F904460002010E062000F00FFD20047C
:10538000010E072000F00AFDE1B2082000F006FD42
:1053900010BD0000C00A002080844E4070B50D464C
:1053A000044600F013F8002C04D0012C0AD1294641
:1053B000232005E004488079002803D129463220C3
:1053C00000F0ECFC70BD0000400B002010B504465E
:1053D0000120FFF7BAFE01061748002901DA012172
:1053E00000E000214172C9B2A14224D04472012CD4
:1053F0000FD000F001FB0120FFF7A7FE4106490E88
:10540000012000F0CBFC0021402000F0C7FC30213F
:105410000EE000F0F1FA0120FFF797FE8021014332
:10542000012000F0BBFC0021402000F0B7FC00216F
:10543000412000F0B3FC10BD200B002010B504008B
:105440000FD00020FFF782FF2046FFF769FF012001
:10545000FFF77BFEC108C9002143012000F09EFC3C
:1054600010BD0120FFF772FFF1E7000010B5044600
:105470000120FFF7ABFF0548002C047001D0342158
:1054800000E01221392000F089FC10BD800B0020C3
:1054900070B504460920FFF758FE06464D20FFF779
:1054A00054FE05462148C06EFFF7EEF97106490E1D
:1054B000084370210843C1092AD0112C02DD0721BD
:1054C0000D4302E0ED08ED002D1DE943490703D02F
:1054D000022C0CDA02240DE0052C01DA052402E08E
:1054E000142C00DD142401090901641F05E0112CAE
:1054F00000DD112401090901A41E2007000F01434A
:10550000092000F04BFC29464D2000F047FC70BDFF
:105510000021C9438C4201DA0C4602E00E2C00DD6A
:105520000E2401090901641CE7E70000C00A0020FD
:10553000F1B5834F00263C46E03C2546787AFF359E
:10554000FF3421350134002802D0012823D123E083
:10555000A67A4020FFF7F9FD8107890F40200C3122
:1055600000F01CFC4120FFF7F0FD3E210840014601
:10557000C131412000F012FC3520FFF7E6FD800626
:10558000800EA8701E210D2000F008FC0020207560
:1055900060752084E08394E0687E012827D0332062
:1055A000FFF7D3FDBE210840411C332000F0F6FB7D
:1055B0001D213B2000F0F2FBA06A09287ED2312099
:1055C000FFF7C3FD4106490E312000F0E7FB002143
:1055D000302000F0E3FB5A4EA06A603E030001F069
:1055E0007CFA09101A242E384252525256003320A7
:1055F000FFF7ABFD41210143332000F0CFFB192120
:10560000D7E748212F2000F0C9FBF06EFAF796FF8C
:1056100000224C4B30E044212F2000F0BFFBF06E05
:10562000FAF78CFF0022484B26E044212F2000F09F
:10563000B5FBF06EFAF782FF0022444B1CE04421D8
:105640002F2000F0ABFBF06EFAF778FF0022404B02
:1056500012E044212F2000F0A1FBF06EFAF76EFF5C
:1056600000223C4B08E044212F2000F097FBF06E15
:10567000FAF764FF0022384BFAF7A4FDFAF790FF1F
:10568000FFF76CFE03E040212F2000F087FBE87D50
:10569000AE7E012836D01F21112000F07FFB402074
:1056A000FFF753FD8106890E402000F077FB0021B3
:1056B0000F2000F073FB00210D2000E01BE000F044
:1056C0006DFBFF2101312548FAF760FD012038729A
:1056D0000098002808D001461948803001F01AF8D7
:1056E0001748803001F01EF8787A002814D0002E78
:1056F00021D0052020E03120FFF727FD8021014344
:105700003120C2E71D21112000F048FB4020FFF7A7
:105710001CFD33210140C7E70520FFF78FFE002E57
:1057200008D107482169943000F0F4FF0448943010
:1057300000F0F8FFF8BD0620FFF780FEF8BD00007E
:10574000200B00200082BE40005AC4400082CE40A0
:105750008057D4408084DE40C058E4404009002097
:10576000FFB589B016460D460746FFF72FFE139882
:10577000000A07909A48C41D8030F9340190002F28
:1057800004D0012F7BD1022D7BD9FEE785672660EF
:1057900001991298C8671598A0711698E07117982A
:1057A00020721A9860721B98A0721398A0803046DD
:1057B000FAF7C4FE06460B4601913246002089499D
:1057C000FAF71AFE0322FAF78FFE0746059114989E
:1057D000FAF7B4FE3A46059BFAF7A6FD0022824B83
:1057E000FAF7A2FDFAF7DCFE2061324600207F497D
:1057F000019BFAF701FEFAF7D3FE84B2210A0220D8
:1058000000F0CCFAE1B2032000F0C8FA2846FBF71A
:105810004FFC0146122000F0C1FA1298FBF748FC39
:105820000146132000F0BAFA2520079900F0B6FAD5
:105830001398C1B2262000F0B1FA1598002801D0C3
:10584000169900E0FF21322000F0A8FA3020FFF77F
:105850007CFC6F2108401599002901D0002100E04F
:1058600080210843179909010143302000F096FA7E
:105870003120FFF76AFC402101433120A0E0A1E084
:10588000FFE7EF1DA762E662594D0C986874139804
:10589000608615982875169868751798A8751898D1
:1058A000E875199828761A9868761B98A8760C2EB1
:1058B00001D90C2602E0062E00D20626072F02D0C0
:1058C000082F02D003E00B2E47D00C2E45D000202D
:1058D00028741D20FFF739FC0C9938014900084352
:1058E00015990843C1B21D2000F058FA1E20FFF799
:1058F0002CFC08210840310108431799890008430E
:1059000014998905890F0843C1B21E2000F046FA98
:105910002620FFF71AFCF7210840297CC90008431C
:10592000C1B2262000F03AFA1498C1B21F2000F04C
:1059300035FA2020079900F031FA1398C1B22120DE
:1059400000F02CFA1598002803D02220169900F0B8
:1059500025FAE87D012802D00DE00120B8E74420B7
:10596000FFF7F3FB80210143442000F017FA297E62
:10597000242000F013FA092F02D00321362010E072
:1059800001981C49C06E884205D90221362000F0DA
:1059900005FA642104E00221362000F0FFF97F219E
:1059A0003A2000F0FBF9062E0ED03120FFF7CDFB98
:1059B000C108C9003120C91C00F0F0F90A213720C4
:1059C00000F0ECF90DB0F0BD3120FFF7BEFBC108CF
:1059D000C9003120491D00F0E1F90C21EFE700007A
:1059E000400A00200000F03F00408F4080847E414C
:1059F000600B002040DD4A1F10B5074800F0C2FED2
:105A00000548143800F0BEFE0020FFF717FD0248DD
:105A100000218038017210BDA00B002010B507488E
:105A200000F0B0FE0548143800F0ACFE0120FFF78E
:105A300005FD024800218038017210BDA00B002036
:105A400070B50146254800F065FE244D6C3D687A2E
:105A50002C464034002802D0012828D117E04020ED
:105A6000FFF773FB8107890F4020103100F096F992
:105A70004120FFF76AFB3E210140412000F08EF9F2
:105A80003520FFF762FB8006800EA0700FE0E07DFE
:105A9000012815D0F721112000F080F94020FFF7F0
:105AA00054FB8106890E4020403100F077F9022036
:105AB00028720A4800F036FE0320FFF7BFFC70BDD5
:105AC000F521112000F06AF94020FFF73EFB332159
:105AD0000840014640314020E7E700008C0B0020E1
