:020000040800F2
:10000000C0150020C900000815400008952E000802
:1000100000000000000000000000000000000000E0
:100020000000000000000000000000006D620008F9
:100030000000000000000000915000088D880008BA
:10004000DB00000800000000DB000008DB00000807
:10005000DB000008DB000008DB000008DB00000814
:1000600000000000DB000008DB000008DB000008E7
:10007000DB000008DB000008DB00000800000000D7
:10008000DB000008DB00000800000000DB000008C7
:10009000DB000008DB000008DB000008DB000008D4
:1000A000DB000008DB000008DB00000855940008B6
:1000B000DB0000080348854600F0A8FB0048004725
:1000C00075A50008C0150020044880470448004773
:1000D000FEE7FEE7FEE7FEE7FEE7FEE7D58900085C
:1000E000B500000830B50B4601460020202201244F
:1000F00009E00D46D5409D4205D31D469540491B5C
:100100002546954040191546521E002DF1DC30BDA4
:1001100070B500242546002801DA01244042002958
:1001200001DA01254942FFF7DDFFAC4200D0404231
:10013000002C00D0494270BD10B5202A04DB0846CF
:10014000203AD040002110BD0B46D340D04020249F
:10015000A21A91400843194610BD03460B439B0762
:1001600003D009E008C9121F08C0042AFAD203E02C
:100170000B780370401C491C521EF9D27047D2B252
:1001800001E00270401C491EFBD270470022F6E7D6
:1001900010B513460A4604461946FFF7F0FF2046FD
:1001A00010BD421C0178401C0029FBD1801A704709
:1001B000F0B507460846584087B0C00F0490480085
:1001C0000E46590040084908BC1A884105D23846F5
:1001D00031461E4617460B4602465800400810435B
:1001E0004CD0300D039040055900400D490D05904D
:1001F000401A0290402872DA18030121000B090509
:100200000843019004980092002805D001995242B9
:100210000020884100920190029840210A1A019919
:10022000009800F013FA05460C466B4607CB00F029
:100230001DFAC0197141039A0E0D0023D7175640BD
:100240001A467A40164344D0049A002A2DD0029AC6
:10025000012A039A15DC1205C01A914101263605C0
:10026000001C7141D20F059ED207009301920296A5
:100270002A46234600F01AFA07B0F0BD3846314648
:10028000FAE71605224A0F46B218C01AB7410121F3
:100290000905001C4F4100187F411146181879418B
:1002A000E20F10436D19644113E0E2076D08154336
:1002B0006408C2071443039A01261205C01A91412B
:1002C0003605001C7141CE07400830434908C0186C
:1002D00051412A46234600F0DCF9CDE7FFE70498B8
:1002E00001224000C117121A00238B4104983146A5
:1002F000C417381AA141EEE730B40124E407634083
:1003000030BC55E730B40124E407614030BC4FE70E
:100310000000E0FFF0B51FB488B00B9909980024E5
:1003200048400999C00F490049080991C0070B9935
:100330000090490049080B9109990898A64608437E
:100340001CD00B990A98084318D009980124400042
:10035000420D4800410D099824050003000B20437D
:1003600009900B980003000B20430B9050181C4978
:100370004018002201901446104605E00020014676
:100380000DB0F0BD032801DA034600E003239C46CC
:10039000C11A0AAE0AE05F0008ADED5B4F00F75BE3
:1003A0007D430027AA187C41491C5B1E6145F2DD94
:1003B000410004AB5A522104120C0A43240C401C85
:1003C0000828DFDB019802900099704601910090A7
:1003D000059B049A0799069800F068F9D0E7000099
:1003E0000DFCFFFFF0B50C465C4085B0E40FE40760
:1003F00003944C00002664085900944649080246BC
:100400000296224321D062460A431ED06200570D55
:100410004A000E032303550D012402462C492405EE
:10042000781B1B0B360B4018234326436146009074
:100430001C46501AB44103D30098401C009002E0BF
:10044000921800985B41002803DA0020014605B0AD
:10045000F0BD0020012109050746864611E06446EB
:100460001D46141BB54106D36546521BB341744665
:1004700007430C43A646CD07400849082843921875
:100480005B4105460D43EAD11046184313D0604640
:10049000194650407140084306D06046101AB341D7
:1004A00006D20122002306E000220123DB0702E03E
:1004B0000122D2435310009874460105381C614153
:1004C000029C039D0019694100F0E3F8BFE70000BA
:1004D000FD0300000EB5C217C10F5040CA074018F7
:1004E0000021054B0293019200910A460B4600F051
:1004F000DDF803B000BD0000330400000EB505496F
:100500000291002100910A460B46019100F0CEF8BD
:1005100003B000BD3304000070B5CD0F4A000903DD
:100520000123090B1B0519430B4BED070024520D4A
:100530009A4201DA002070BD074B34339A4203DC43
:100540009A1AFFF7F9FD02E00449511888402C433C
:10055000F1D0404270BD0000FF030000CDFBFFFF63
:100560004A0009030123090B1B051943094B10B568
:10057000520D9A4201DA002010BD064B34339A42E4
:1005800003DC9A1AFFF7D8FD10BD034951188840C3
:1005900010BD0000FF030000CDFBFFFF10B50029D8
:1005A00004DB0124E40740428C412146002B04DB9C
:1005B0001C460123DB075242A3418B4200D18242F9
:1005C00010BD000010B5002904DB0124E4074042FF
:1005D0008C412146002B04DB1C460123DB075242E1
:1005E000A341994200D1904210BD0000F0B51FB464
:1005F0000646002082B005464024019100901BE091
:10060000019922460F463046FFF796FD049A059B56
:10061000801A994110D310461946224600F016F868
:10062000361A8F410197224601200021009F00F0D9
:100630000DF838184D4100902046641E0028DFDC7C
:10064000019B00982946324607B0F0BD10B5202A1C
:1006500004DB0146203A9140002010BD9140202348
:100660009C1A0346E3401943904010BD10B5202A60
:1006700006DBCB170846203A1041C1170B4306E0B2
:100680000B461341D0402024A21A9140084319463A
:1006900010BD10B5002B08DA0024401C61419218EF
:1006A0005B411A4301D14008400010BDF0B51FB4B2
:1006B00082B005460C0003D0084609F0C5F802E0F8
:1006C00009F0C2F820300246009021462846FFF784
:1006D000BDFF049B059A04460F4618431143084387
:1006E00014D0184610431BD0009840210A1A18460F
:1006F0000599FFF721FD05460E46009A05990498D5
:10070000FFF7A4FF084305D0012004E02046394646
:1007100007B0F0BD0020C11705430E432C433743FB
:1007200000990E986305401A7905E40A00220C43EB
:10073000FD0A0A3002D500200146E9E7010510193B
:1007400069410C9C0D9D00196941FFF7A2FFDFE78D
:10075000F8B50546480040080C46284304D0600020
:10076000184A400D904201DD2846F8BD154935393B
:10077000884210DC88420BDB290D20030843290343
:10078000014305D0E00F1049C00741180020F8BD13
:1007900000200146F8BD161A4020821B284621463B
:1007A000FFF754FF07460091284621463246FFF7DF
:1007B000C3FC3A46009BFFF76CFF3246FFF746FF4B
:1007C000F8BD0000330400000000F03F4A000903B8
:1007D0000123090B1B0519430A4B10B5520D9A4210
:1007E00002DA0020014610BD064B34339A4203DC86
:1007F0009A1AFFF7A1FC10BD034BD218FFF726FF92
:1008000010BD0000FF030000CDFBFFFF064C0125DB
:10081000064E05E0E36807CC2B430C3C98471034A8
:10082000B442F7D3FFF74AFC0CB100082CB1000822
:1008300030B589B005460C461022002105A809F004
:10084000ABFF224605A905A809F095FC6846007D86
:100850008021084000281CD000BF00200AE005A924
:10086000095C490005AB421C9A5CD211114305AAF0
:100870001154401C0F28F2DB08A9C97849060A0E5A
:1008800008A9CA7000BFC8788721484008A9C87065
:1008900016E000BF00200AE005A9095C490005AB8D
:1008A000421C9A5CD211114305AA1154401C0F2816
:1008B000F2DB08A9C97849060A0E08A9CA7000BF68
:1008C000FF201530005910280FD100BF002009E08B
:1008D000E11DFA31095C05AA125C5140E21DFA32B1
:1008E0001154401C1028F3DB61E06846007D802134
:1008F000084000281CD000BF00200AE005A9095CC0
:10090000490005AB421C9A5CD211114305AA11544F
:10091000401C0F28F2DB08A9C97849060A0E08A96D
:10092000CA7000BFC8788721484008A9C87016E07F
:1009300000BF00200AE005A9095C490005AB421C84
:100940009A5CD211114305AA1154401C0F28F2DB06
:1009500008A9C97849060A0E08A9CA7000BF8021F3
:10096000FF2015300259E01DFA30815406E00021C5
:10097000FF2015300259E01DFA308154FF20153058
:100980000059401CFF21153108511028EFD300BF3A
:10099000002009E0E11DFA31095C05AA125C514012
:1009A000E21DFA321154401C1028F3DB00BF00BFD7
:1009B00000200AE02146F131095CE21DFA32125CA6
:1009C00051402246F1321154401C1028F2DB00BF86
:1009D00010222146F13101A809F0C4FE2246294621
:1009E00001A809F0C8FB1022002105A809F0D4FED7
:1009F00009B030BD10B50446102200212046F13068
:100A000009F0CAFE0021FF2015300151F0222046D6
:100A100009F0C2FE10BD70B504460D4622461021F5
:100A2000284609F0D5FB70BDF0B585B004460F46E9
:100A30001546FF201530005900283ED0FF20153004
:100A400000591021081AA84204D2FF20153000597D
:100A5000081A00E028460646B2B2FF2115310959AE
:100A6000E31DFA33C818394609F07CFEFF20153023
:100A700000598119FF20153001510059102801D368
:100A8000B54201D105B0F0BD00BF00200AE021460B
:100A9000F131095CE21DFA32125C51402246F1321A
:100AA0001154401C1028F2DB00BF22462146F131D0
:100AB000084609F060FBBF19AD1B21E000BF002014
:100AC00008E02146F131095C3A5C51402246F1329E
:100AD0001154401C1028F4DB00BF10222146F131D4
:100AE000684609F03FFE22466946684609F043FB26
:100AF000102269462046F13009F034FE1037103DCF
:100B0000102DDBD8AAB23946E01DFA3009F02AFED2
:100B1000FF201530055100BFB4E70000F0B50446D2
:100B20000D460126564800780F23181AC1B2A01EA0
:100B3000030008F0A0FE0705142C3B53738B9A00AA
:100B400050480078884209DA4E4800784D4B1B78AF
:100B50005B1C4C4F3B704C4B1C54002687E0481EDE
:100B6000484B1B78984211DD46480078454B1B786E
:100B70005B1C444F3B70444B1C54384600783B464A
:100B80001B785B1C3B70404B1D5400266FE03D48BA
:100B90000078884209DA3B4800783A4B1B785B1CA6
:100BA000384F3B70384B1C54002660E0481E354BD4
:100BB0001B78984211DD33480078324B1B785B1C60
:100BC000304F3B70304B1C54384600783B461B7806
:100BD0005B1C3B702C4B1D54002648E0881E294BA3
:100BE0001B78984219DD27480078264B1B785B1C40
:100BF000244F3B70244B1C54384600783B461B78EE
:100C00005B1C3B70204B1D54384600783B461B78DC
:100C10005B1C3B701C4B1A54002628E0481E194BE5
:100C20001B78984211DD17480078164B1B785B1C27
:100C3000144F3B70144B1C54384600783B461B78CD
:100C40005B1C3B70104B1D54002610E00D480078D3
:100C5000884209DA0B4800780A4B1B785B1C094F65
:100C60003B70094B1C54002601E00220F0BD00BF80
:100C7000002E02D10120054B18703046F6E7000027
:100C80006400002063000020BE03002062000020FA
:100C9000F8B505460E461746002000901948012475
:100CA0000457012D2AD1002C04D1002016490860D8
:100CB000009023E014480068402805D301200090EC
:100CC00000201049087001E0002000900E480068E4
:100CD000602813D30C480078C006C00E01280DD13F
:100CE000002C01DD601E44B2002C07D1012E05D17D
:100CF0000C22064903482C3009F034FD3C70009862
:100D0000F8BD0000DC0500205C000020400600204B
:100D100070B50446002530212046FFF7F9F9002977
:100D200000D126E02046E117C90E091849114901F2
:100D3000611A01D101251CE018212046FFF7E8F9CE
:100D4000002901D1022514E02046E117090F0918F6
:100D500009110901611A01D103250AE02046E117B2
:100D6000490F0918C910C900611A01D1042500E012
:100D70000525284670BD000072B603480078401C67
:100D80000149087070470000F8000020054800780D
:100D9000401E0449087008460078002800D162B659
:100DA00070470000F80000200EB533480078002896
:100DB00008D100F0B3FD07F06FFD05F0D9F800F0A1
:100DC000D4F801E007F0C2FD012252022B492C4861
:100DD00000F078FA012252022A4929480C3800F022
:100DE00071FA29482649283948630A230922002133
:100DF0002348283808F05BFB002000900190034650
:100E0000E1225202022102901D48283808F02AFBF4
:100E100017221EA11A48283808F064FC21A000F00F
:100E20002FFA2CA000F02CFA0020C0430523062244
:100E3000072100902C4807F047FC05F0C3FB19A0E0
:100E400000F01EFA29A000F01BFA2CA000F018FAFE
:100E50000948007800280ED101200749087000F0E9
:100E60005BFA012804D132A000F00AFA00F0E0F8A1
:100E700036A000F005FA0EBDF6000020540E00204A
:100E80001C0C0020540C00205DA5000848656C7403
:100E90006563206C6F7261206E6F64652064656DA0
:100EA0006F0D0A002F2A2A2A2A2A2A2A2A2A2A2ABF
:100EB0002A2A2A2A2A2A2A2A2A2A2A2A2A2A2A2A92
:100EC0002A2A2A2A2A2A2A2A2A2A2A2A2A2A2A2F7D
:100ED0000D0A000052544320496E69742066696E01
:100EE0006973680D0A0000009C0A00203132373611
:100EF00020696E6974206F6B0D0A00002F2A2A2A60
:100F00002A2A2A2A2A2A2A2A2A2A2A2A2A2A2A2A41
:100F10002A2A2A2A2A2A2A2A2A2A2A2A2A2A2A2A31
:100F20002A2A2A2A2A2A2A2F0D0A0D0A000000003E
:100F3000476574426F617264506F776572536F7565
:100F4000726365206F6B0D0A000000000D0A0D0A28
:100F50004D6375496E697469616C697A6564203D99
:100F600020747275650D0A007047704770B50446AD
:100F7000E0002849401840790C21484326490D5A81
:100F800000260021E000234A801840790C225043BB
:100F9000214A8018816021480078002818D101F08A
:100FA000E9FF0646B54201DD284600E03046054629
:100FB0001B48006868431A490968411AE000154A4D
:100FC000801840790C225043134A8018816012E047
:100FD0001448007801280ED1114800686843104970
:100FE0000968411AE0000B4A801840790C225043EE
:100FF000094A801881600A4800680B4909884843FB
:1010000007490968401A09490968401807490860F2
:1010100070BD0000DC030020680000205A000020A2
:10102000A000002080000020760000207C0000202E
:1010300010B51148007800281AD11049104807F05F
:1010400021FD7D21C9000E4807F04AFE0C4807F03B
:1010500051FE0CA000F014F906E00FA000F010F90A
:101060007D20C00000F036FB034800780028F4D053
:101070000BA000F005F910BDF7000020E1400008CA
:101080002C0C002054696D65725374617274206F6A
:101090006B200D0A000000006C6F6F70200D0A00BD
:1010A0004F75742069660000F7B592B00E4617467A
:1010B00000200E900F90109000BF08A80676B00098
:1010C0005E4908585E494018002807D0401800289B
:1010D00008D049004018002808D000BF002008A907
:1010E000487607E0012008A9487603E0022008A915
:1010F000487600BF00BFB100504A5058FFF7FEF9D4
:101100000B910A904F498A5D012191400846FFF7F3
:10111000E1F9099108900B9B0A9AFFF763F9002205
:10112000494B0D910C90FFF7F5F804460D467800F9
:10113000FFF7E4F9079106904449097A4900084607
:101140000838FFF7C7F922462B4603910290FFF7B4
:10115000E1F805910490079B069AFFF729F82246CB
:101160002B4609910890FFF73DF90B910A9009F081
:10117000BDF80D910C90FFF7F3F93449097A8842D4
:1011800026D97800FFF7BAF9079106902F49097A16
:10119000490008460838FFF79DF922462B4603917F
:1011A0000290FFF7B7F805910490079B069AFEF7A7
:1011B000FFFF22462B4609910890FFF713F90B9188
:1011C0000A9009F093F80D910C90FFF7C9F901E02E
:1011D0001E48007A0F900F98FFF790F922462B4691
:1011E00001910090FFF796F8002201239B070391DD
:1011F0000290FFF7F7F822462B4607910690002051
:101200001349FFF787F805910490079B069AFFF7AB
:1012100073F800220F4B09910890FFF76DF80B91BE
:101220000A9009F063F80D910C90FFF775F9109092
:101230000EA90EC912980EC015B0F0BD20AF00085F
:10124000B817FEFF18AF000800408F40DC050020F3
:10125000000010400000F03F30B50246002300209F
:101260000AE001248440144001258540AC4201D1AC
:101270005C1CE3B2441CE0B28842F2DB184630BD8D
:101280000FB410B5B4B037A8019002A8019A3699EE
:1012900008F0C8FA0020019002A8FEF782FFC4B24D
:1012A000224602A9034808F01DFA34B010BC08BC5D
:1012B00004B01847F40B002010B50446204600F097
:1012C00009FA10BD0023038043804160028170470A
:1012D00070B504460D462189681CFEF719FF88B2D7
:1012E00070BD70B5044621882046FFF7F1FF6168A4
:1012F0000D5C21882046FFF7EBFF2080284670BD5B
:1013000070B504460D4661882046FFF7E1FF608016
:1013100061886068455470BD012070470246002115
:101320000FE0C800094B1858904208D8481CC0006C
:101330001858904203D9C800C01800797047481C5B
:10134000C1B21529EDD300BFFEE7000084AF00084D
:10135000FFB583B005460C4616460C9F20110628A3
:1013600008D80D9800970190324621462846069BE2
:1013700000F002F807B0F0BDF0B587B004460E46A5
:1013800015461F462670701C002801D107B0F0BD1D
:1013900020780107090F0120884060800020205636
:1013A000F0210840002812D10920C006606000BF6B
:1013B000404840690121490408433E4948610846C4
:1013C0004069012149040840019000BF41E000202C
:1013D0002056F0210840102811D13748606000BF26
:1013E000344840690121890408433249486108466C
:1013F0004069012189040840019000BF29E00020D4
:101400002056F0210840202811D12C48606000BFF0
:10141000284840690121C904084326494861084613
:1014200040690121C9040840019000BF11E024482F
:10143000606000BF1F4840690121090508431D493C
:10144000486108464069012109050840019000BF34
:1014500000BF608802900C98A07204900320059051
:10146000002D02D10020039017E0032D02D10320AC
:10147000039012E0022D09D1012F02D11220039016
:1014800001E0022003900D98069006E0012F02D1A2
:101490001120039001E001200390012D03D120468B
:1014A0000D9900F0B7F802A9606800F023F900BFB9
:1014B0006CE70000001002400004004800080048EB
:1014C000000C0048F0B587B004460D4616461F468E
:1014D0000020069005200590002F01D107B0F0BD37
:1014E00060880090012D02D14648019006E0022D4F
:1014F00002D14548019001E044480190A07A029051
:10150000032003906946606800F0F4F8330008F0A7
:10151000B2F9050405080B0F0E0000BF032006906A
:1015200009E00220069006E00120069003E000BFDB
:101530000020069000BF00BF6188FF220132881A98
:10154000914243D012DC10293CD008DC01292DD077
:1015500002292ED004292FD0082941D12FE020299B
:1015600031D0402930D080293AD12EE00F2212020A
:10157000811A90422ED00DDCFF380138002826D089
:10158000FF38FF380238002822D001218902401A92
:1015900026D11EE001200003081A1CD001214903B6
:1015A000401A19D04900401A1AD116E005200590BA
:1015B00017E00520059014E00620059011E00620B4
:1015C00005900EE000BF00BF00BF00BF00BF00BF1E
:1015D00000BF00BF00BF00BF00BF0720059000E0B4
:1015E00000BF00BF20780007800E09490F5000227D
:1015F0000699059800F0C2F9059800F0B3F900BF0C
:101600006CE70000000011100000211000003110F4
:101610005410002070B504460D46002C02D06068BE
:10162000002800D100BF00202056401C002800D117
:1016300070BDEAB26188606800F054F900BFF7E756
:10164000F8B504460D4616461F46002020560011E8
:10165000062805D83B46324629462046FFF732FF8A
:10166000F8BD70B504460D4600202056001106282E
:1016700003D829462046FFF7CDFF70BD70B504465C
:1016800000252120005D022803D00420A06301254D
:101690001EE0206800680E218843216808602068E9
:1016A000006840084000216808600120216C8840E3
:1016B000E16B486001212120015500BF002120205D
:1016C000015500BF606B002802D02046616B88473F
:1016D000284670BD31B500F00BF90546009C601C32
:1016E000002800D0641C00BF00F002F9401BA0429B
:1016F000FAD338BD78B50346002200240020DEE08E
:10170000012696400D6835402C46002C7ED04D6851
:10171000022D02D04D68122D15D1D508AE001D4600
:101720002035A8595507EE0E0F25B5400646AE43A5
:1017300030465607F60E0D69B5402843D508AD0072
:101740001E4620367051186856000325B5400646DF
:10175000AE4330460D79AD07AD0F5600B540284376
:1017600018604D68012D08D04D68022D05D04D68D8
:10177000112D02D04D68122D18D1986856000325FE
:10178000B5400646AE4330465600CD68B5402843C6
:1017900098605868012595400646AE4330461026AD
:1017A0004D6835402D09954028435860D86856004B
:1017B0000325B5400646AE43304656008D68B54019
:1017C0002843D860012636074D683540B54275D1AB
:1017D00000BF3E4DAD69012635433C4EB5613546EF
:1017E000AD69ED07ED0F009500BF00BF384D9608BD
:1017F000B600A85995072E0F0F25B5400646AE43F3
:1018000030460925ED06AB4203D100E056E0002545
:101810000FE0304DAB4201D101250AE02E4DAB4225
:1018200001D1022505E02D4DAB4201D1032500E099
:1018300005259607360FB5402843254D9608B60076
:10184000A851274D28680546A54328460126360499
:101850004D683540B54202D1054625432846204D06
:10186000286068680546A5432846012676044D6829
:101870003540B54202D1054625432846184D6860DB
:10188000A8680546A5432846012636054D6835401B
:10189000B54202D1054625432846114DA860E868A7
:1018A0000546A5432846012676054D683540B542D4
:1018B00002D1054625432846094DE860521C0D68B3
:1018C000D540002D00D01BE778BD0000001002407D
:1018D000080001400004004800080048000C0048CF
:1018E00000040140002A01D0816100E0816270475C
:1018F0000148006870470000D400002001460248FB
:101900000A68106000207047AAAA00000248006818
:10191000401C014908607047D400002010B50648FB
:1019200000681021084304490860002000F006F810
:1019300000F017F8002010BD0020024070B50446EA
:1019400000F098F906467D21C900FEF7CBFB05465D
:1019500001F080F800222146501E00F00FF8002010
:1019600070BD704700BFC206D20E01219140024AED
:10197000116000BF7047000000E100E070B5044650
:101980000D4616462946204602F046FB70BD000073
:10199000F8B5044600260025012109042068084006
:1019A00088427AD100274B48C069090308400028C3
:1019B0000DD100BF4748C06908434649C861084681
:1019C000C06909040840009000BF00BF01274248D9
:1019D0000068FF2101310840002816D13E48006808
:1019E00008433D490860FFF783FF064606E0FFF71E
:1019F0007FFF801B642801D90320F8BD36480068AA
:101A0000FF21013108400028F1D03248006A03214B
:101A1000090208400546002D2DD060680840A84204
:101A200029D02C48006A884305462A48006A0121CB
:101A300009040843274908620846006A012109048D
:101A400088432449086208460562E807C00F002859
:101A500011D0FFF74DFF064607E0FFF749FF801B57
:101A60001E49884201D90320C7E71A48006A0221AB
:101A700008400028F1D01748006A03210902884372
:101A80006168084313490862012F05D10846C069FF
:101A9000090488430F49C86100BF2078C007C00F00
:101AA000002807D00B48006B80088000A16808431D
:101AB00008490863202120680840202807D10548EC
:101AC000006B10218843E168084302490863002045
:101AD00093E70000001002400070004088130000EF
:101AE00070B504460D4600265D480068C007C00F6B
:101AF000A8420ED25A48006840084000284358497E
:101B0000086008460068C007C00FA84201D0012045
:101B100070BD022120680840022807D15148406862
:101B2000F0218843A16808434E4948602078C007E7
:101B3000C00F00285FD06068012808D149480068BC
:101B4000012149040840002815D10120E0E7606820
:101B5000022808D1434800680121490608400028AE
:101B600009D10120D4E73F4800680221084000283D
:101B700001D10120CCE73B484068800880006168C3
:101B8000084338494860FFF7B3FE064660680128FD
:101B90000FD107E0FFF7ACFE801B3349884201D923
:101BA0000320B5E72F4840680C2108400428F1D1F4
:101BB00021E0606802280FD107E0FFF799FE801B43
:101BC0002949884201D90320A2E7264840680C2110
:101BD00008400828F1D10EE007E0FFF789FE801BDE
:101BE0002149884201D9032092E71E4840680C2110
:101BF00008400028F1D11A480068C007C00FA84269
:101C00000ED917480068400840002843144908606E
:101C100008460068C007C00FA84201D0012077E73E
:101C2000042120680840042808D10E484068072194
:101C300009028843E16808430A49486000F032F825
:101C400008494968F02211400909084A515CC84016
:101C5000074908600020FFF771FE002058E70000E8
:101C6000002002400010024088130000A8B00008C5
:101C7000100100200148006870470000100100209A
:101C800000B5FFF7F7FF0549496807221202114026
:101C9000090A034A515CC84000BD00000010024020
:101CA000B8B00008F0B589B024A001460EC9C068DC
:101CB00005AC0EC4089025A001460EC9C06801AC51
:101CC0000EC4049000240027002500260020009068
:101CD000224844680C202040002827D0042802D045
:101CE000082822D102E01E48009022E00F20800444
:101CF0002040800C05A90E5C1848C06A0007000F40
:101D000001A90F5C01200004204001210904884240
:101D100006D139461248FEF7E5F97043054602E060
:101D2000104835464543009503E000BF0C4800903D
:101D300000BF00BF009809B0F0BD00000203040519
:101D4000060708090A0B0C0D0E0F10100102030400
:101D500005060708090A0B0C0D0E0F1000100240B3
:101D600000127A0000093D00F8B5044600252078ED
:101D7000C007C00F002871D0F94840680C21084006
:101D800004280BD0F64840680840082812D1F448CF
:101D9000406801210904084088420BD1F0480068DE
:101DA00001214904084000286BD06068002868D1F0
:101DB0000120F8BD00BF6068012807D1E84800682D
:101DC000012109040843E649086031E06068002801
:101DD0000ED1E3480068012109048843E049086006
:101DE00008460068012189048843DD4908601FE036
:101DF000606805280ED1DA4800680121890408438B
:101E0000D749086008460068012109040843D449FD
:101E100008600DE0D2480068012109048843D049D8
:101E2000086008460068012189048843CC4908609D
:101E300000BF6068002812D0FFF75AFD054606E093
:101E4000FFF756FD401B642801D90320B1E7C448C1
:101E500000680121490408400028F1D011E0FFF793
:101E600047FD054606E0FFF743FD401B642801D906
:101E700003209EE7BA480068012149040840002871
:101E8000F1D1022120680840022861D1B44840689D
:101E90000C21084000280BD0B148406808400828B1
:101EA0001BD1AF484068012109040840002814D123
:101EB000AB48006802210840002804D0E0680128EF
:101EC00001D0012075E7A6480068F8218843216900
:101ED000C9000843A24908603AE0E068002820D021
:101EE0009F480068012108439D490860FFF700FDF5
:101EF000054606E0FFF7FCFC401B022801D9032041
:101F000057E797480068022108400028F2D094481B
:101F10000068F82188432169C90008439049086096
:101F200016E08F480068400840008D490860FFF7C0
:101F3000DFFC054606E0FFF7DBFC401B022801D969
:101F4000032036E786480068022108400028F2D1C5
:101F5000082120680840082831D1E069002817D0FE
:101F60007F48406A012108437D494862FFF7C0FC71
:101F7000054606E0FFF7BCFC401B022801D9032000
:101F800017E77748406A022108400028F2D016E09F
:101F90007348406A4008400071494862FFF7A8FC56
:101FA000054606E0FFF7A4FC401B022801D90320E8
:101FB000FFE66B48406A022108400028F2D1042164
:101FC00020680840042871D100266548C069890648
:101FD000084000280DD100BF6148C069084360492E
:101FE000C8610846C06909040840009000BF00BFEE
:101FF00001265C480068FF2101310840002816D105
:1020000058480068084357490860FFF771FC0546C7
:1020100006E0FFF76DFC401B642801D90320C8E6E9
:1020200050480068FF21013108400028F1D000BF6E
:10203000A068012806D14A48006A0121084348499E
:1020400008622BE0A06800280CD14548006A4008CF
:102050004000434908620846006A04218843404919
:1020600008621BE0A06805280CD13D48006A0421E5
:1020700008433B4908620846006A01210843384981
:1020800008620BE03648006A4008400034490862A4
:102090000846006A042188433149086200BFA068ED
:1020A000002813D0FFF724FC054608E029E0FFF7DD
:1020B0001FFC401B2C49884201D9032079E628489F
:1020C000006A022108400028F1D011E0FFF710FC5F
:1020D000054607E0FFF70CFC401B2349884201D965
:1020E000032066E61E48006A022108400028F1D15C
:1020F000012E05D11A48C069310788431849C861C3
:1021000000BF10212068084010285FD160690128B5
:102110002CD11348406B04210843114948630846F9
:10212000406B012108430E494863FFF7E1FB054678
:1021300006E0FFF7DDFB401B022801D9032038E64B
:102140000748406B022108400028F2D00448406B49
:10215000F8218843A169C90008430149486335E073
:102160000010024000700040881300006069401DAC
:1021700000280FD14E48406B042188434C494863E6
:102180000846406BF8218843A169C90008434849C3
:1021900048631BE04648406B0421084344494863B8
:1021A0000846406B400840004863FFF7A1FB054626
:1021B00006E0FFF79DFB401B022801D90320F8E54C
:1021C0003B48406B022108400028F2D1206A0028D9
:1021D0006CD0374840680C210840082864D0206A39
:1021E000022847D132480068012109068843304956
:1021F0000860FFF77DFB054606E0FFF779FB401B13
:10220000022801D90320D4E52948006801214906A4
:1022100008400028F1D100BF2548C06A000900012C
:10222000E16A08432249C862616AA06A08432049FA
:1022300049683D221204914308431D49486000BF8C
:102240000846006801210906084319490860FFF79C
:102250004FFB054606E0FFF74BFB401B022801D968
:102260000320A6E51248006801214906084000281D
:10227000F1D01BE00E4800680121090688430C4993
:102280000860FFF735FB054606E0FFF731FB401B12
:10229000022801D903208CE5054800680121490680
:1022A00008400028F1D101E0012082E5002080E50E
:1022B0000010024070B504460E46002500BF207F86
:1022C000012801D1022070BD0120207700BF02202B
:1022D000607700BFCA2021684862532021684862A5
:1022E00000BF20688068FF21013188432168886031
:1022F0002068806801210903884321688860FFF70E
:10230000F7FA054613E0FFF7F3FA401B7D21C900F9
:1023100088420CD900BFFF202168486200BF03201B
:10232000607700BF0020207700BF0320CBE7206844
:10233000C068C007C00F0028E5D000BFFF2021689B
:10234000486200BF0120607700BF0020207700BFF7
:1023500000BFB8E7F0B506460C46174600253068C2
:102360004068124908400546FF2000042840000C40
:10237000E0701F2000022840000A6070A806800E4E
:10238000A070072040032840400B2070002F0BD185
:10239000E07803F0B9FAE070607803F0B5FA6070A5
:1023A000A07803F0B1FAA0700020F0BD3FFFFF005D
:1023B000F0B505460C46174600262868806A60601E
:1023C000286800694004400CA06028680068124931
:1023D000084006463F2000043040000C20707F205B
:1023E00000023040000A60707006400EA0700120AC
:1023F00080053040000CE070002F0BD1207803F0F6
:1024000083FA2070607803F07FFA6070A07803F0A0
:102410007BFAA0700020F0BD7F7F7F0010B50446DE
:10242000002C01D1012010BD607F002803D120774E
:10243000204600F065F80220607700BFCA202168BE
:10244000486253202168486200BF204603F076FAB4
:10245000002808D000BFFF202168486200BF042088
:1024600060770120DFE72068806824490840216800
:102470008860216960680843616908432168896848
:102480000843216888602168E06808612068006965
:10249000218909040843216808612068C0688021F7
:1024A00088432168C860206880682021084000288F
:1024B0000DD1204600F032FA002808D000BFFF20DE
:1024C0002168486200BF042060770120ABE72068E4
:1024D000006C012189048843216808642068006C2D
:1024E000A16908432168086400BFFF202168486291
:1024F00000BF01206077002095E70000BFFF8FFF3D
:1025000070470000FEB504460D4616460027002021
:102510000190009000BF207F012801D10220FEBD64
:102520000120207700BF02206077002E2AD120688A
:10253000806840210840002800D002E00020E870B8
:1025400000BFE869002800D100E000BF287803F050
:10255000E8F90304687803F0E4F900020343A8787B
:1025600003F0DFF90343E878000403432021485DCA
:1025700003F0D7F900060343E8690343686903439E
:1025800001932FE02068806840210840002804D093
:10259000287803F0B9F9019002E00020E87000BF4C
:1025A000E869002805D12021485D03F0ADF90190CC
:1025B00005E02021485D03F0A7F9019000BF2878CD
:1025C0000004697809020843A9780843E9780904F6
:1025D00008432021495D09060843E9690843696900
:1025E00008430190A96968680843009000BFCA20A9
:1025F0002168486253202168486200BF20688068D3
:10260000FF2101318843216888602068C0688021EB
:102610000840284908432168C860FFF769F9074660
:1026200013E0FFF765F9C01B7D21C90088420CD972
:1026300000BFFF202168486200BF0320607700BF11
:102640000020207700BF032069E72068C068C0072A
:10265000C00F0028E5D001982168C8610098216862
:10266000486420688068FF21013108432168886040
:1026700020688068012109030843216888600E48AA
:1026800000680121490408430B4908600846806836
:102690000121490408430849886000BFFF202168E0
:1026A000486200BF0120607700BF0020207700BF94
:1026B00000BF34E77FFEFFFF00040140F8B5044689
:1026C0000D461646002700BF207F012801D10220B9
:1026D000F8BD0120207700BF02206077002E09D1CD
:1026E000687810210840102804D16878EF2108404C
:1026F0000A306870002E11D1E87803F012F9030453
:10270000687803F00EF900020343A87803F009F992
:1027100003432878400303431F4612E0687803F020
:10272000F3F80746A87803F0EFF80746E8780004C6
:10273000697809020843A9780843297849030843BE
:10274000074600BFCA2021684862532021684862BA
:1027500000BF204603F0F2F800280CD000BFFF2095
:102760002168486200BF0420607700BF0020207706
:1027700000BF0120ACE71748384021684860206856
:10278000C068802188432168C86020688068202153
:102790000840002811D1204600F0C0F800280CD0D5
:1027A00000BFFF202168486200BF0420607700BF9F
:1027B0000020207700BF01208AE700BFFF202168AA
:1027C000486200BF0120607700BF0020207700BF73
:1027D00000BF7DE73FFFFF00F8B504460D461646F3
:1027E000002700BF207F012801D10220F8BD012071
:1027F000207700BF02206077002E1BD12068806800
:1028000040210840002800D002E00020E87000BF0E
:10281000287803F086F80304687803F082F8000251
:102820000343A87803F07DF80343E87800040343EA
:102830001F4618E02068806840210840002804D026
:10284000287803F061F8074602E00020E87000BF36
:1028500028780004697809020843A9780843E978D0
:1028600009040843074600BFCA2021684862532074
:102870002168486200BF204603F060F800280CD0B1
:1028800000BFFF202168486200BF0420607700BFBE
:102890000020207700BF0120A8E71F4838402168AA
:1028A0000860206880680121890488432168886065
:1028B0002969E868084321688968084321688860B5
:1028C0002068C068802188432168C86020688068CB
:1028D00020210840002811D1204600F01FF80028D0
:1028E0000CD000BFFF202168486200BF0420607741
:1028F00000BF0020207700BF012077E700BFFF2046
:102900002168486200BF0120607700BF0020207767
:1029100000BF00BF6AE700007F7F7F0070B50446FC
:1029200000252068C068A02188432168C860FEF7A0
:10293000DFFF054608E0FEF7DBFF401B7D21C900F5
:10294000884201D9032070BD2068C068202108405A
:102950000028F0D00020F6E770B50446002C01D125
:10296000012070BD606A002800D100BF0021A16273
:102970005D20005D002804D15C200155204600F058
:1029800053F802215D2001552068006840218843EA
:1029900021680860E068002801D0002501E00125D9
:1029A0002D030F210902E068884204D0E068002866
:1029B00001D00021A162206B002807D1E068002827
:1029C00002D00221216301E001212163A168606836
:1029D0000843216908436169084301225202A16941
:1029E00011400843E1690843216A0843A16A08438A
:1029F00021680860A069000C04210840616A08434E
:102A0000616B0843E16808432843216848602068F7
:102A1000C069910088432168C861002020660121B7
:102A20005D20015500209CE770470000042806D176
:102A30000649096904221143044A116105E003496A
:102A4000096904229143014A1161704700E000E0E6
:102A50007047000070B504462546681E0949884243
:102A600001D901200CE0681E074948610321081FB5
:102A700001F0D2FA00200449886107200861002093
:102A800070BD0000FFFFFF0000E000E010B5FFF7A1
:102A9000DFFF10BD10B5044601220249024800F0D4
:102AA00011F910BD0C0100204C110020F8B50446AE
:102AB0002068C569206806682807000F0090009804
:102AC00000280BD120202840002807D020203040AB
:102AD000002803D0204606F049FBF8BD206887682F
:102AE000009800287ED0F807C00F002804D1FF20EE
:102AF000213030400028F5D0E807C00F00280BD067
:102B0000FF2001303040002806D0012021680862F3
:102B1000E06E01210843E0660220284000280AD028
:102B2000F807C00F002806D0022021680862E06E76
:102B300004210843E0660420284000280AD0F80752
:102B4000C00F002806D0042021680862E06E022130
:102B50000843E0660820284000280ED0202030409E
:102B6000002803D1F807C00F002806D008202168EC
:102B70000862E06E08210843E066E06E002841D05C
:102B800020202840002806D020203040002802D0F5
:102B9000204606F0EBFAE06E08210840002805D137
:102BA0002068806840210840002826D0204606F092
:102BB000BCFA2068806840210840002819D02068AD
:102BC0008068884321688860606E00280DD01B48AB
:102BD000616E4863606EFEF751FD002812D0606E92
:102BE000416B00E00FE088470CE02046FFF752FF02
:102BF00008E02046FFF74EFF04E02046FFF74AFFBB
:102C00000020E06669E780202840002807D0802067
:102C10003040002803D0204606F0E2FB5DE740206C
:102C20002840002807D040203040002803D020460C
:102C300006F08CFA51E700BF4FE70000139100083F
:102C400010B50446002C01D1012010BDA069002858
:102C500000D000E000BF6920005D002805D1002100
:102C600068200155204600F02CF8242169200155E8
:102C7000206800684008400021680860204606F08F
:102C8000BDFA012800D1E0E7606A002802D02046A2
:102C900006F0B8F9206840680121C902884321681C
:102CA000486020688068082188432168886020681F
:102CB00000680121084321680860204606F01AFADE
:102CC000C3E7704710B503466A20C05C20285AD17C
:102CD000002901D0002A01D1012010BD01242403C4
:102CE0009868A04208D11869002805D1C807C00F0C
:102CF000002801D00120F0E700BF6820C05C012857
:102D000001D10220E9E701246820C45400BF5965BD
:102D10005820C2525A20C25200BF24039868A042D1
:102D20000AD11869002803D1184C5C20C45210E065
:102D3000FF245C20C4520CE09868002809D118696F
:102D4000002803D1FF245C20C45202E07F245C20D1
:102D5000C45200BF0020D86622246A20C45400BF99
:102D600000246820C45400BF1868806801242043F0
:102D70001C68A06018680068FF24213420431C6888
:102D800020600020A9E70220A7E70000FF01000063
:102D900010B504460C4800F0E0F8002804D10B48B8
:102DA00001780948FEF7ACFA07482838406B00283C
:102DB00004D005482838416B012088470122034987
:102DC0000348FFF77FFF10BD1C0C00200C01002002
:102DD0004C11002010B503466920C05C202835D175
:102DE000002901D0002A01D1012010BD01242403B3
:102DF0009868A04208D11869002805D1C807C00FFB
:102E0000002801D00120F0E700BF6820C05C012845
:102E100001D10220E9E701246820C45400BFD9642D
:102E20005020C2525220C2520020D866212469206C
:102E3000C45400BF00246820C45400BF1868006850
:102E4000802420431C6820600020CEE70220CCE7CD
:102E500010B504460C4800F077F8002808D10A485D
:102E6000FEF73FFA0949087001220948FFF7B2FF4F
:102E700005481C38406B002804D003481C38416BBF
:102E80000020884710BD0000100C00200D0100201C
:102E90004C11002000BFFEE730B503460C46002B66
:102EA00001D1012030BD002C01D10220FAE7002120
:102EB00046E0585CF0252840001100280BDB585CE8
:102EC00028400011092806DC585C284000113030E9
:102ED0004D00505510E0585CF025284000110A289C
:102EE0000ADB585C28400011102805DC585C28409B
:102EF000001137304D005055585C0007000F002876
:102F00000CDB585C0007000F092807DC585C000741
:102F1000000F30304D006D1C505510E0585C00071C
:102F2000000F0A280BDB585C0007000F102806DC96
:102F3000585C0007000F37304D006D1C5055491C80
:102F4000A142B6D30020ADE7014608884A889042E6
:102F500001D1012070470020FCE710B504466188CC
:102F60002046FEF7B5F92188884201D1012010BD25
:102F70000020FCE7F8B500240F48006805F078FD54
:102F800007463846FDF7BAFA054600220B4BFDF717
:102F900005FB01D264240CE03846FDF7AFFA054684
:102FA0000022074BFDF7FAFA02D27D24E40000E08C
:102FB000044C2046F8BD00008400002040774B41BF
:102FC000FCE1824110270000024610468A4201DDE2
:102FD000134600E00B46184670470346032070472F
:102FE0000146032070470000FFB581B007460E463A
:102FF0001C460B9D1E490A9848718C712004000ED6
:10300000C8712002000E0872200E48728D722804CA
:10301000000EC8722802000E0873280E4873CE7383
:103020001448FDF7E7FC13480399FDF7F4FC102260
:103030000F491048FDF7F8FCF2B239460D48FDF78C
:10304000F3FC0C490C48FDF7F3FB0B48C078000675
:10305000094989780904084307494978090208435E
:103060000549097808430C99086005B0F0BD0000D7
:10307000A8000020300800201C07002070B588B090
:1030800004460E46002C02D1032008B070BD206813
:10309000002805D06068002802D0A068002801D16F
:1030A0000320F2E763480460634806600020634938
:1030B000087063490870634908606349087001201B
:1030C00062490870002062490870624908606249DC
:1030D0000860624908700220614908700020487049
:1030E0000A204860062008725E48C8607D20C00043
:1030F0000861400048615C4888615C48C861012102
:1031000057482030017000214170594903C9079187
:1031100006905348079A069982624162FF205049FF
:10312000888500214E48C185018641868186C186F9
:10313000002520E02846FDF7E1F900224D4B0191E2
:103140000090FDF7E7F8032252074B4B03910290E2
:10315000FDF72EF805910490FDF702FAE900474AC1
:1031600050505020E900891808710020E9008918A2
:103170004871681CC5B2402DDCDB394840684049C5
:1031800048603748007A08723548C068C8603448DB
:103190000069086132484069486131488069886146
:1031A0002F48C069C8612E4820300178344820304B
:1031B000017002F0E5FB3349334805F063FC7D21E3
:1031C000C900314805F08CFD3049314805F05AFC02
:1031D0003049314805F056FC3049314805F052FC81
:1031E0003049314805F04EFC05F03EFC2F4908609F
:1031F0002F483049086030488860304808613048BE
:1032000048603048C860304801682A4888472E49DD
:1032100048698047054607F0B7FC01202B49087034
:103220002948816D2948007888472749C86A80471E
:1032300000202AE78C00002090000020A70000203A
:103240004800002088000020A4000020A5000020E5
:103250004A000020780000207C0000208000002030
:1032600014060020B80B000088130000701700003F
:103270004CAF0008006A08413508BC41DC0300205F
:10328000DC050020ED4000084C060020154F00082A
:103290007C060020614E000890060020C94E000800
:1032A000A406002091400008D006002084000020E1
:1032B000ED4C000860060020CD440008F14B0008EA
:1032C0001D4E00088D4C000834B000084900002055
:1032D000F8B504460D4616461F461048FDF78AFB12
:1032E00031460E48FDF797FBEAB221460B48FDF741
:1032F0009BFB0A490A48FDF79BFA0948C07800067B
:1033000007498978090408430549497809020843AF
:103310000349097808433860F8BD000030080020F0
:103320001C070020FFB585B005460E461C460E9FC3
:1033300007A80090F02200211C4807F02DFA1B4A34
:103340001021284606F044FF1022002101A807F0B2
:1033500023FA01216846017106223146401D07F01B
:1033600001FA022202A80330009907F0FBF90F4A84
:10337000214601A806F0FFFE1022002101A807F057
:103380000BFA02216846017106223146401D07F002
:10339000E9F9022202A80330009907F0E3F9034A91
:1033A000394601A806F0E7FE09B0F0BD3C07002051
:1033B000F8B505460E4617461C46F02200210B487C
:1033C00007F0EAF9094A1021384606F001FF074ADA
:1033D0002146284606F0CFFE102E06DB034A214682
:1033E00010312846103006F0C6FEF8BD3C0700201C
:1033F000F0B585B0044602200390002001900090B3
:10340000002C02D1032005B0F0BD41480078C00770
:10341000C00F002805D13E48006810210840102840
:1034200001D10120EFE70020029014220021394849
:1034300007F0B2F90120374948702078002804D0FD
:10344000012813D0032834D124E001200090324910
:1034500008706946087AE02188434030029020795C
:103460000190A668A7890E25655723E001200090EA
:103470002A490870E07B284908706946087AE021EB
:1034800088438030029020790190A668A7890E2594
:1034900065570FE0012000901F4908706946087ABF
:1034A000E0218843E0300290666827890A25655745
:1034B00000E000BF00BF0098012827D1184800781D
:1034C00000280BD105220021284606F08DF900289E
:1034D00002D01448457001E0032094E73B46324691
:1034E00002A8019904F0D2FD0390039800280AD1A4
:1034F0002078084908700C48007840084000401CBB
:103500000949087002E000200849087003987AE72A
:1035100088000020FC0600209C0000209D00002068
:103520005B000020DC050020A700002060000020D8
:1035300070B50446002502224BA14C4806F0D2F893
:10354000002C01D1032070BD2078030006F093F910
:103550001D1014181C2024272A2E32353B454149C2
:103560004E52565A5E62666E6A72767A7E82860025
:103570003F480078207173E03E48007820716FE08A
:103580003D48007820716BE03C480068606067E06F
:103590003B480068606063E03A48606060E03A4839
:1035A00060605DE039480078207159E03848007863
:1035B000207155E03748606052E03748816A406AC0
:1035C000A16060604CE03548816A406AA16060603B
:1035D00046E032482C30606042E02F482C3060607A
:1035E0003EE02D4820300078207139E02A48C0683C
:1035F000606035E028480069606031E02648406935
:1036000060602DE024488069606029E02248C0693C
:10361000606025E021484078207121E01E48407814
:1036200020711DE01D480078207119E01A480078CB
:10363000207115E01A480068606011E019480068C0
:1036400060600DE018480068606009E0124840685A
:10365000606005E01048007A207101E0022500BF9B
:1036600000BF28466FE7000033330000F40B002052
:10367000480000205A0000205B0000203C00002091
:1036800040000020A0010020B001002049000020DF
:103690004A000020DC030020DC0500201406002086
:1036A00050000020540000204400002070B5044663
:1036B0000025002C01D1032070BD7F480078C00791
:1036C000C00F002801D00120F6E72078030006F0A3
:1036D000D2F81D10292D313539444F58ED5C6274F4
:1036E00068808D9195999DA1AFCBBDD9DDEDE1E7C6
:1036F000ED0020797149087008460078002804D050
:10370000012806D002280BD104E06D49C86A804721
:1037100006E005E000206B49087001F0D5FB00BF12
:1037200000BFC5E0207968490870C1E02079674989
:103730000870BDE0664960680860B9E06549606886
:103740000860B5E06068002805D010226248616812
:1037500007F008F800E00325AAE06068002805D01B
:1037600010225E48616806F0FDFF00E003259FE03F
:1037700020795B4908705248816D59480078884724
:1037800096E020795749087092E05748A26861682E
:10379000826241628CE05548A2686168826241623F
:1037A00086E06068002806D00C2250482C30616802
:1037B00006F0D8FF00E003257AE06068002806D014
:1037C0000C2249482C30616806F0CCFF00E003254C
:1037D0006EE02079012807DB20790F2804DC2179AD
:1037E00041482030017000E0032561E03E496068F7
:1037F000C8605DE03C496068086159E03A4960682A
:10380000486155E038496068886151E03649606830
:10381000C8614DE0042020560522002105F0E4FF98
:10382000002803D020793149487000E003253FE0AB
:10383000042020560522002105F0D6FF002803D0E1
:1038400020792949487000E0032531E00420205602
:103850000722002105F0C8FF002803D02079234962
:10386000087000E0032523E00420205607220021F1
:1038700005F0BAFF002803D020791B49087000E04A
:10388000032515E01A496068086011E0194960686D
:1038900008600DE01549606848601349486007E01A
:1038A0002079124908721049087201E0022500BF10
:1038B00000BF284600E700008800002048000020E4
:1038C00034B00008600000205A0000205B00002097
:1038D0003C00002040000020A0010020B00100209A
:1038E000490000204A000020DC05002014060020CA
:1038F000500000205400002038B504460225002C5A
:1039000001D1032038BD53480078C007C00F0028FC
:1039100001D00120F6E70C2200214F4806F03CFFC1
:1039200001204D4948702078002806D0012850D049
:1039300002285FD003287ED16BE046480068102142
:103940000840102801D10120DCE76068002808D079
:10395000A068002805D0E068002802D0207C00285C
:1039600001D10320CEE7207C302801DA30212174F8
:103970003A48007808218843083038490870207890
:10398000354908703649606808603649A0680860A3
:103990003549E0680860207C3449087000203449CB
:1039A00008700021009168460078E021884300906B
:1039B00001F0E6FF2E480078401CFDF7A9F92D49DB
:1039C000487000231A461946684604F05FFB054616
:1039D00032E0224800780821884308301F490870E7
:1039E00020781D490870002211460220FDF796F844
:1039F000054621E020781849087018480078082109
:103A00008843083015490870A08804F089FD0546F0
:103A100012E0207810490870104800780821884387
:103A200008300E490870227BA088A16804F0BAFD16
:103A3000054601E0FFE700BF00BF002D08D00020D1
:103A40000D4908700548007808218843034908702B
:103A5000284657E78800002010070020A700002014
:103A60002C0000203000002034000020A5000020A1
:103A7000A4000020DC05002060000020FFB583B01A
:103A800004460D460E9F0C9E0D98029700960190DD
:103A900029462046069B059A00F002F807B0F0BDC3
:103AA000FFB581B00D461E46002701200090F02290
:103AB0000021304806F070FE2E4A1021039806F0CF
:103AC00087FB2D490A9848718E713004000EC87129
:103AD0003002000E0872300E48720B9888720B98F4
:103AE0000004000EC8720B980002000E08730B98B9
:103AF000000E487320E020490098C8730098401CCD
:103B000080B200901B4A1D491B4806F034FB00247C
:103B10000AE039190198405C1849095D48403A1992
:103B20000C998854601C84B2102CF2DB28461038A3
:103B300085B238461030C7B2102DDCDA002D16DD04
:103B40000D490098C8730B4A0C490B4806F013FB4B
:103B500000240AE039190198405C0849095D484091
:103B60003A190C998854601C84B2AC42F2DB05B05F
:103B7000F0BD00003C070020B80000202C0700200A
:103B8000F8B506460C462248407800902148007857
:103B9000214909784018C5B2002C01D10320F8BD95
:103BA0006A4600211D480078FDF772F81C4800782D
:103BB000012806D11B486A4600215156405C6070BE
:103BC00005E019486A4600215156405C60706078F3
:103BD000A84203DB6078401B207001E00920DEE78B
:103BE000002268468156304605F0E2FD002801D1EA
:103BF0000820D4E72A46684600214156304605F0A1
:103C0000D7FD002801D10920C9E70020C7E700003F
:103C10001406002063000020640000205B000020E8
:103C20004A0000203EAF000838AF00084178002964
:103C30000CD10178002904D0012903D0032903D134
:103C400001E002E001E000E000BF00BF0121014A05
:103C5000117070472900002030B5EFB0044660783D
:103C6000002801D06FB030BD2078002806D0012890
:103C700005D0022805D0032804D101E003E002E0CA
:103C800001E000E000BF00BFA07C012809D11422A0
:103C9000A1A1A74805F026FD0E22A6A1A44805F083
:103CA00021FDA8480078012804D1A6488089401C3D
:103CB000A4498881C8213DA8FCF768FAC8210BA84F
:103CC000FCF764FA607B01286FD1C8213DA8FCF79E
:103CD0005DFAC8210BA8FCF759FA217B0BAAA06852
:103CE000FFF7DAF80020217B49000BAA50540BA8FB
:103CF0000090237B607C002801D093A000E094A07A
:103D0000024695A13DA805F079FD3DA8FCF749FACA
:103D100085B22A463DA9864805F0E4FCE0780128F2
:103D200004D0022803D0E02874D10DE000BF207B2E
:103D3000012808D1A0680078C007C00F8E4908701C
:103D4000084600780870E3E07E48007800282DD10E
:103D5000207B042828D1A06800780128FAD1A06827
:103D600040780128F6D1A06880780128F2D1A068B7
:103D7000C0780128EED1002080490870E0208049F9
:103D8000087002207F49087000206E49888188737E
:103D9000C8730874012008704870022108A80170D7
:103DA00001210171FFF782FCB0E0B2E0A068007869
:103DB0006449487008464078030005F05CFD08053A
:103DC0001A1E242C40476DA501206C490870022062
:103DD0006B49087018206B49087000205949888188
:103DE0000870022108A8017001210171FFF75EFC33
:103DF0008BE002206349087087E001205F4908706A
:103E00005049487081E000205C49087001204D490C
:103E100048707AE07BE0207B5A49087004205A49B8
:103E20000870012006E0A168095C491C564A11543B
:103E3000411CC8B2534909788842F4DB65E001208F
:103E40006946087303A8FFF757FD5EE001204B4960
:103E5000087002204A49087018204A49087000205A
:103E6000384988810870022168460170012101717A
:103E7000FFF71CFC00216846017344480490444944
:103E8000059144490691032103A80174FFF734FD0D
:103E900004204149087038E0207B03280ED102201D
:103EA00069460873A06840780002A16889780843D1
:103EB0006946088203A8FFF71FFD21E0207B072841
:103EC0001ED1032069460873A06840780002A168EB
:103ED0008978084369460882A068C0780004A16810
:103EE000097909020843A1684979084364214843D4
:103EF0000590A068817903A80173FFF7FDFC00BF5E
:103F000001201049487000E000BF00BF00E000BF82
:103F100000BF00BFA6E600002B53454E443A414384
:103F20004B2052454345495645440D0A00000000C8
:103F3000F40B00202B53454E443A444F4E450D0A96
:103F40000D0A000068010020525857494E32000007
:103F5000525857494E3100002B524556204D534779
:103F60003A25732C525853495A452025642C222552
:103F700073220D0A0D0A00002800002022000020F4
:103F8000200000202100002014010020000000205B
:103F900008000020100000202A00002010B5044670
:103FA0002078002802D001281ED10FE06078002878
:103FB00008D10E220FA1134805F094FB02201249EC
:103FC000087002E00120104908700EE060780028B7
:103FD00009D10E480078012805D10C498873207A50
:103FE000C873607A087400E000BF00BF0120084970
:103FF000087010BD2B4A4F494E3A444F4E450D0AAA
:104000000D0A0000F40B00202A00002068010020A7
:10401000290000207047000010B5002819DA1A4A5C
:1040200003071B0F083B9B089B00D2588307DC0E3D
:10403000FF23A3409A438B071B0E8407E40EA34083
:104040001A43114B0407240F083CA408A4001A517A
:1040500018E00E4A03231B02D21883089B00D25893
:104060008307DC0EFF23A3409A438B071B0E8407B4
:10407000E40EA3401A43054B032424021B198408B1
:10408000A4001A5110BD00001CED00E000E100E0AA
:1040900010B50D4804F03CFF0C480078012807D10A
:1040A0000B4908700B4800680421884309490860DF
:1040B00009480078022806D1084800781021884372
:1040C00010300649087010BDD006002060000020A6
:1040D0009E0000208800002048000020A70000204B
:1040E0000120014908707047F700002010B5E24830
:1040F00004F00EFF0024E1480078C006C00F00283D
:1041000070D0DF48006840210840402809D1DC48D1
:1041100000688843DA4908600846006840084000A3
:104120000860D64800780007C00F002805D1D348A2
:104130000078C007C00F002818D0D2484078022865
:1041400003D0D1484078022810D1CD4800684008FB
:104150004000CB4908600020CC490870CC4800786A
:10416000C84948710020087188600124C948007856
:10417000002875D1002C73D1C04800780007C00F0B
:10418000002805D1BD480078C007C00F002867D0BF
:10419000BA4800780007C00F00282DD0BA48007830
:1041A000002829D1BC480078B74988720846407871
:1041B00000280AD1B9490860B9490870B0480068B8
:1041C00040084000AE4908604AE0B3480078B5496D
:1041D0000978884207DBAA48006840084000A849DF
:1041E00008603DE0A1E0A548007810218843A3497C
:1041F000087000F08FFE33E0AB480078A8490978DA
:10420000884205DD9D4800788007C00F00281FD038
:104210009A4800788007C00F002806D19B49087093
:10422000A2480068401CA149086000209C49087011
:104230009F480078002804D198480068401C97499E
:1042400008608F480068400840008D49086007E01A
:104250008A480078102188438849087000F05AFE87
:10426000864800788007C00F002821D08548007953
:10427000012805D0864800788E490978884217DDE4
:1042800000208D490870834908708948007800280B
:1042900004D182480068401C804908607C4800784E
:1042A00078494871764800684008400074490860C1
:1042B0008148007801287AD17148006810210840AF
:1042C000002874D17C4908707148007879490978D0
:1042D00088424DDA6E480078082849DC6C4800783E
:1042E000401C6B4908700878C10F09184910490033
:1042F000411A01290FD16C49203901200856401E6E
:10430000002803DD01200856401E00E0002040B2D6
:1043100065492039487003F0FDFD002806D1574853
:104320000078102188435549087040E0082055491D
:104330004870002055490870514800684008400006
:104340004F4908600020534908704E490871504891
:104350000078487154482038407888705448007874
:10436000002824D14D480068401C4C4908601EE0DC
:104370000C2252494C480C3006F0F4F940480068D1
:10438000400840003E49086000204049087041490B
:1043900008703C4908713E480078487144480078EC
:1043A000002804D13D480068401C3C49086034485E
:1043B000006802210840022804D13148006888437F
:1043C0002F4908602E480068002828D12B48007823
:1043D000C007C00F00280AD0394800680168294882
:1043E0008847264800784008400024490870234840
:1043F00000780007C00F00280AD0314800688168A3
:10440000214888471D480078082188431B490870C7
:104410001A480078102188431849087007E07D2168
:10442000C900154804F05CFC134804F063FC134811
:1044300000788007C00F00281CD02248007802288E
:1044400001D100F041FD0D4800784007C00F002861
:1044500004D11B48006841681B488847074800781A
:1044600004218843054908700846007802218843E2
:104470000249087010BD00004C060020A700002073
:1044800088000020FC0600201007002063000020A8
:104490009D00002060000020A400002050000020AB
:1044A00074000020A5000020FC0500205C00002016
:1044B000580000209C0000209E00002040060020A4
:1044C0008C00002048000020E4060020FFB595B0D5
:1044D00004460D4600201290119010900F90FF207E
:1044E0000E9000200D900C9000270B900A900990E0
:1044F00000260890FE480790FE4806900020059090
:104500000490FD490871FD491798C88118980874EE
:10451000FB48007848740020C87088704871886033
:1045200008734873887448610870F649C86A804700
:10453000F54804F0EDFC1199481C1190615C149150
:1045400010A8007C4009012806D003287ED0052849
:104550007DD007287CD102E3EC480078012805D102
:10456000E649487000F08AFF19B0F0BD681E81B2BC
:10457000E74BE8480268601CFEF71AFF10A8007CB1
:10458000E349491E0870281F81B20CABE14802685C
:10459000DF48401EFEF79CFE281FDD49491E085CCF
:1045A0000743E81E085C00020743A81E085C0004DD
:1045B0000743681E085C000607430C9887427DD1BC
:1045C000CC48CB4B0090D4480288491CD1480068A5
:1045D000FEF7A8FECE48401E0079D0490860CC48BE
:1045E000401E4079000209680843CC490860C84869
:1045F000401E8079000409680843C8490860C4481F
:10460000401EC079C6490860C148401E007A0002B9
:1046100009680843C2490860BD48401E407A00044A
:1046200009680843BE490860B948401E807A000600
:1046300009680843BA490860B548401EC07A400678
:10464000410FB8484170B248401E02E08CE08AE059
:104650009DE2C07A0107090FB248001D0171AC4804
:10466000401E007B0007000FAE4920390861084654
:104670000069002801D101200861AA492039086990
:10468000FBF73CFF0022A84B01910090FBF742FE94
:1046900003910290FBF764FFA24920390861086981
:1046A000FBF72CFF0022A04B01910090FBF780FD4F
:1046B00003910290FBF754FF9A4900E04FE0203944
:1046C0004861681E10283EDD5020694608739748EF
:1046D00000682021084395490860032001900020CC
:1046E000009026E000980D308949491E095C009829
:1046F0000E30874A521E105C0002084300990F31A9
:10470000515C090408436421484302900298002840
:1047100004D001A807C8FEF760FC02E00198FEF78C
:104720005FFC0198401CC0B201900098C01CC0B250
:10473000009001980828D5DB7C4800682021884338
:104740007A49086000BF00207949487001206F490C
:1047500008707848407873492039487002E0062094
:104760007349487019E200BF1198411CC9B21191F8
:10477000205C10901198411CC9B21191205C00027C
:104780001099084310901198411CC9B21191205CF6
:1047900000041099084310901198411CC9B211915E
:1047A000205C00061099084310905D491098096834
:1047B000884223D060480068089012E00898016899
:1047C000109881420AD1012005900898001D079099
:1047D0000898143006900898466A05E00898806AA0
:1047E000089008980028E9D100BF059800280DD14D
:1047F0000A204249487000F041FEB5E600200590CD
:104800003B4807903B4806904C4806681198411C6D
:10481000C9B21191215C13911198411CC9B2119137
:10482000205C0B901198411CC9B21191205C0002D0
:104830000B9908430B9010A8007B0007000F08306D
:104840000F90281F205C0743E81E205C00020743EE
:10485000A81E205C00040743681E205C0006074376
:10486000B0B20A900A990B98401A80B209900121BF
:10487000C9030998884213DA099836180CA801214F
:10488000019600910290281F81B22046109B079A42
:10489000FEF7AAFB0C9887421DD1012004901AE074
:1048A000012000043118099800B2081803900CA9DF
:1048B00001220398009202910190281F81B22046A4
:1048C000109B079AFEF790FB0C98874202D10120BB
:1048D0000490039E00BF01218903099888422FDBC1
:1048E0000920064948700846466100F0C7FD3BE6CE
:1048F000A0010020B0010020FC060020E4060020FA
:10490000A600002034B00008A40600205A000020B1
:10491000C002002034000020380000203C000020AD
:1049200040000020FC05002000408F40880000204F
:10493000100700201406002044000020540000202E
:10494000049801287ED100209C4948700598887001
:1049500010A8007BC006C00F487100208860087353
:104960000846466100209649487096490860964975
:1049700008700598012814D1022090490870089801
:10498000406AB0420AD10898406A002806D0072041
:1049900048700846466100F071FDE5E508984662FA
:1049A0002AE010A8007C400905280FD10120874982
:1049B00008708249087086480068B0421AD184485D
:1049C0000068002816D00120129013E000207F49D3
:1049D00008707A4908707E480068B0420AD17C4865
:1049E0000068002806D0072048700846466100F09D
:1049F00045FDB9E57648066071480078012809D17F
:104A000010A8007B8006C00F002806D00020714946
:104A1000087002E000206F490870281F0F99401AA3
:104A2000002857DD0F98411CC9B20F91205C0E90F1
:104A3000281F0F99401AC0B20D9060490E98C87097
:104A40000E9800E084E000281DD110A8007B00072C
:104A5000000F002814D160480121019600910290B6
:104A60000F9820180390109B079A0D99FFF706F8EE
:104A70001898C3B2002158480D9A00F07FFD36E027
:104A80000120129033E010A8007B0007000F0028DF
:104A900008DD1898C3B20F98401EC2B20821204604
:104AA00000F06CFD4C4801210196009102900F9896
:104AB00020180390109B069A0D99FEF7DFFF1298BD
:104AC000002814D144483D4988600D98087301209E
:104AD00048730CE010A8007B0007000F002806DDDB
:104AE0001898C3B2082120460F9A00F047FD12988B
:104AF00000281AD110A8007B8006C00F002808D01B
:104B000001202F4908712D498874344804F000FAB7
:104B10000BE000202A4908713148007831490978B2
:104B2000884202DD2D4804F0F3F92F480078022175
:104B30008843801C2C49087008460078042188436B
:104B4000129989000422114008432749087005E0A2
:104B50000B201A49487000F091FC05E51DE0119802
:104B600021182A461C4805F0FDFD03201349087052
:104B700000204870184888601198281A08731A484D
:104B8000007802218843801C1749087005E0012045
:104B90000A49487000F072FC00BF00BF124800785C
:104BA0001021884310301049087001210F4804F08B
:104BB00097F80E4804F09EF800BFD5E4E406002004
:104BC000FC0600205C000020640000206100002042
:104BD0005400002063000020BF020020D006002007
:104BE0009D0000209C000020A70000204C06002013
:104BF00010B51D480078022803D01C49C86A8047B8
:104C000001E000F061F91A480078002819D119482C
:104C10000078012802D10420174948700420174960
:104C200048701748006803F023FF16490968884256
:104C300018D31548007810218843103012490870A5
:104C400010E00C480078012802D105200A4948707C
:104C500005200A4948700C4800781021884310301C
:104C60000949087010BD00004800002034B0000859
:104C7000A600002060000020FC0600201007002095
:104C80007800002098000020A700002010B51048F0
:104C90000078022803D00F49C86A804701E000F07D
:104CA00013F90D480078012810D10C48007801282C
:104CB00002D103200A49487003200A4948700A4873
:104CC00000781021884310300749087010BD00009B
:104CD0004800002034B00008A6000020600000203A
:104CE000FC06002010070020A700002070B503F08C
:104CF000BBFE044638480078022803D03749C86A0A
:104D0000804701E000F0E0F83548007801282ED116
:104D100034480168344803F0E3FF334803F0EAFF06
:104D20002D480078022807D030480168304803F049
:104D3000D7FF2F4803F0DEFF27480078022803D072
:104D40002C48007801282AD17D21C900484205F06D
:104D500087FE264909687D221201891845182946CF
:104D6000254803F0BDFF244803F0C4FF17E00020EE
:104D700022494870032022494870224800780028C0
:104D800006D12048007840084000401C1D490870AA
:104D90001C4800781021884310301A4908701A48BE
:104DA0000078C0001949401840790C21484318493F
:104DB000401844601748046013480078FCF7D6F8A0
:104DC0000C480078002806D10C4948701248007839
:104DD000401C1149087070BD4800002034B0000824
:104DE0005900002094000020900600209800002028
:104DF000A406002060000020D0060020FC06002051
:104E000010070020A700002081000020DC03002004
:104E100068000020780000207400002010B50B48C6
:104E20000078022803D00A49C86A804701E000F0F0
:104E30004BF8022007494870074948700748007836
:104E40001021884310300549087010BD480000202B
:104E500034B00008FC06002010070020A700002046
:104E600038B5114804F054F8002010490870104873
:104E70000078022802D10F49086B804730210E4884
:104E80000078FBF745F90D4841430D480C18002008
:104E900000900C48808883B20A484278002141562D
:104EA000204601F083F938BD90060020A6000020BE
:104EB0004800002034B0000881000020400D0300AD
:104EC000E0F8D11DB8060020F8B500240C4804F025
:104ED0001FF80C480078022800D101240A4D0094E4
:104EE0002D8AABB2084D6A7B0C216956074D686A62
:104EF00001F05CF9002802D0012005490870F8BDD6
:104F0000A406002048000020B8060020DC05002090
:104F1000A60000200EB51D4803F0FAFF1C480068EB
:104F2000102188431A4908601A4800780007C00F0A
:104F3000002828D018480078002824D100F020FD4F
:104F400016480078401CFBF7E3FE15494870002125
:104F500002916846007AE021884302900021019185
:104F600068460079802188430E490978C90180226A
:104F700011400843019000200346024601A9009019
:104F800002A800F087F802F0C5FF0EBD7C060020E5
:104F900088000020A700002010070020A4000020A7
:104FA000DC0500205B0000203EB50D4803F0B0FF9B
:104FB0000120694608706846FEF7BAFA0446002CDC
:104FC0000DD168460079012806D1022005490870F4
:104FD00001200549087002E00120024908703EBD29
:104FE000540100202A0000202900002010B50748A5
:104FF00003F08EFF0648FCF781FC0649034803F0E6
:105000006FFE024803F076FE10BD00007C01002018
:1050100090010020204E0000F0B504460E4600210D
:105020000025002C01D0002A01D10020F0BD002174
:105030002AE0605C801E030004F01DFC07211C2098
:1050400005191D13220008464B1CD9B2235C2846C3
:105050006F1CFDB21354635C28466F1CFDB21354E1
:105060000FE0635C28466F1CFDB2135409E0881CF6
:10507000C1B206E000BF481CC1B202E000BF00E0C0
:1050800000BF00BF481CC1B2B142D2DB2846CDE709
:1050900070470000FFB587B00D461E460024002073
:1050A00006900596099804900020DF490880DF49A2
:1050B0000870002E00D11090DD49109808700798F4
:1050C00002782046611CCCB2DA490A54079800786D
:1050D0004009002806D002286FD0042869D007288C
:1050E00072D188E1D0480480D249024612888818DB
:1050F0000822D149096805F041FBCB4800880830F7
:10510000C9490880CB49C84A128888180822CB4967
:10511000096805F033FBC44800880830C24908809C
:10512000C74948698047C749088008460178BE4892
:1051300002880088401CBC4B1880BE488154C1487E
:105140000088001219460A880988491C1980B94943
:1051500088541846017806ABBB480268B548FEF78C
:10516000B7F80698C1B2B04802880088401CAE4B20
:105170001880B048815406980004010E1846028831
:105180000088401C1880AB48815406980002010E2C
:10519000184602880088401C1880A648815406984A
:1051A000000E19460A880988491C1980A1498854AB
:1051B00036E101209D49087000BFA448007800280E
:1051C00003D107200BB0F0BD28E12978C809A04A17
:1051D0000121FBF75DFD8001402108400390287804
:1051E00088430399084328709A480078012807D11A
:1051F00000209849087028782021884320302870A2
:10520000954802782046611CCCB28A490A549248DB
:1052100000880004020E2046611CCCB285490A5465
:105220008D4800680002020E2046611CCCB2814904
:105230000A5489480068000E2146621CD4B27D4A97
:1052400050542A782046611CCCB27A490A548348CB
:1052500002782046611CCCB276490A547F48008807
:105260000004020E2046611CCCB272490A547C49EB
:105270007C4A127888187C490A787C4905F072FAD1
:105280007848007878490978401876490870059878
:10529000002829D066480078002825DD08460078D7
:1052A0000F2831DC7248007801282DD128780009B8
:1052B000000129786B4A127889180907090F0843F9
:1052C000287028785B494871002708E06448C25D6F
:1052D0002046611CCCB257490A54781C87B26148F9
:1052E00000788742F2DB0FE05E48007800280BDD93
:1052F0005F480078002807D05A4800784C49087069
:105300005748059000200490002059490870574ADA
:10531000544801785248FFF77FFE53490870084609
:105320000078002802DD0120514908700598002806
:105330002DD03F480078002829DD2146621CD4B2D8
:105340003C4A049850540498002810D11046001983
:105350004249096800220092019102903E48454A64
:105360000368334801780598FEF79AFB0FE031484F
:1053700000193A49096800220092019102903648CA
:105380003D4A03682A4801780598FEF789FB2848BA
:10539000007820182449088006A8304909680022AE
:1053A0000092019102902C48324A03681E480188FD
:1053B0002048FDF719FE0698C1B21E4A1A48008817
:1053C000115406980004010E17480088401C11541F
:1053D00006980002010E14480088801C115406989B
:1053E000000E11490988C91C50540F480088001D3F
:1053F0000D49088014E0002E0FD00D4800780028D9
:105400000BDD0C4908190A490A78314605F0AAF95A
:105410000748007820180449088001E00220D1E6FE
:1054200000BF0020CEE600004C00002060000020FD
:105430004E000020C0010020300000202C00002081
:1054400034B0000838000020340000205A0000204A
:10545000DD050020610000204000002050000020F9
:10546000BE0300206300002064000020CD03002064
:1054700062000020A0010020B001002010B51148FA
:105480000068402108430F4908600F480078002851
:1054900001D0FEF7FDFD0D48007802218843801CF5
:1054A0000A490870084600781021884310300749DF
:1054B00008700121064803F013FC054803F01AFCAC
:1054C00010BD00008800002060000020A700002020
:1054D0004C06002010B50446022C02D0E02C39D135
:1054E00009E040211D48FAF751FE0E221CA1204878
:1054F00004F0F8F82FE01F48807B012812D100202B
:105500001C49887303201C49087005201349087042
:105510001848C07B48701748007C887001201549E6
:10552000487016E013484078012805D004280FD1B0
:105530000120104948700BE002200F4908700D4807
:1055400080890012054908700A48007B487000BF36
:1055500000BF00E000BF00BF10BD0000140100202C
:105560002B526561644F766572616C6C0D0A0000A8
:10557000F40B00206801002021000020FFB58BB053
:1055800005460C46A9E12046611CCCB2285C801E71
:10559000030004F070F9070515E8FCFBFAF9F800C0
:1055A0000020D14948702046611CCCB2285CCE490D
:1055B00008722046611CCCB2285CCB4948728BE152
:1055C000072600200890002707900690039004907B
:1055D00005900A900BE00A984100C448415A0A9885
:1055E000400003AA11520A98401CC0B20A900A98BF
:1055F0000628F0DB2046611CCCB2285C47B2380795
:10560000000F08903806070FB9480078002813D11A
:10561000B6492C3901200856B84205D10846002168
:1056200041560898814207D0002211460320FBF71B
:1056300075FAE01CC4B24FE12046611CCCB2285C74
:1056400009902046611CCCB2285C000209990843ED
:1056500009902046611CCCB2285C07900798400650
:10566000400F069007980007000F07900798002842
:1056700001D1012007900698062828D10020029029
:10568000019020E0002014E002990918C900994A0D
:10569000515800290BD00199490003AA515A0122FF
:1056A000824011438AB20199490003AB5A52411C0E
:1056B000C8B21028E8DB02981030C0B202900198FE
:1056C000401CC0B2019002984028DBDB20E0069825
:1056D000072802D1FE2006401AE0002011E0012137
:1056E0008140099A1140002909D006990901091839
:1056F000C900804A5158002901D1FE210E40411CA9
:10570000C8B21028EBDB0699490003AA0998505249
:1057100003A9384604F010F8002801D1FD20064006
:1057200007220021089804F05FF8002801D1FB202F
:1057300006407007400F07280FD16C482C3847707F
:105740006A492C39089808700C2203A9674805F0AB
:1057500009F866490C390798087000223146032081
:10576000FBF7DCF9B8E02046611CCCB2285C62494A
:1057700008700846017801208840604908800022AE
:105780001146042004E0A5E074E068E052E002E085
:10579000FBF7C4F9A0E0072600BF00BF00BF285DEB
:1057A0004006400F0990285D0007000F0A90601C1A
:1057B000C4B22046611CCCB22F5C2046611CCCB226
:1057C000285C000207432046611CCCB2285C000420
:1057D000074364204743384600F06AFC002801D1A3
:1057E000FE200640052200210A9803F0FDFF002854
:1057F00001D1FD20064003220021099803F0F4FFA7
:10580000002801D1FB2006407007400F07280BD16C
:105810000A98C1B23548083801712438476209989E
:10582000C1B232480C384170002231460520FBF7E6
:1058300075F951E0FF2632480068002809D0304849
:1058400000680068002804D02D490968086880476E
:105850000646314606200E9AFBF760F93CE0032627
:10586000FC200640601DC4B2002231460720FBF731
:1058700055F931E02046611CCCB2285C0607360F92
:10588000002E01D1701CC6B23046FAF737FE002256
:105890001C4B07910690FAF73DFD09910890FAF725
:1058A0005FFE12492C3908610869FAF727FE0022C9
:1058B000144B07910690FAF77BFC09910890FAF7D0
:1058C0004FFE0A492C394861002211460820FBF797
:1058D00025F901E00FB0F0BD00BF0D98844200DA59
:1058E00051E600BFF6E70000100700200806002080
:1058F0005B000020DC030020750000207600002003
:105900009000002000408F40014600BFF02008407A
:1059100000110A23584302460807000F8018C0B23E
:1059200070470146002203E0521C08460A38C1B203
:105930000A29F9D21007000E0843704770B50446D3
:1059400000252068C06840210840002815D1401E6D
:105950002168C860FBF7CCFF054608E0FBF7C8FFED
:10596000401B7D21C900884201D9032070BD2068F9
:10597000C068402108400028F0D00020F6E7000071
:1059800010B50020254908702549086025490860A0
:1059900025490860254908700120254908702549D6
:1059A0000870002024490870244908700120244907
:1059B00008800020234908702349087001202349EA
:1059C00008702348007823490870214840784870BF
:1059D0001F48203041781F482030417020381C4932
:1059E0008A6A496A826241620C2219492C312C3040
:1059F00004F0B8FE002018490870184908701849CA
:105A000008701848046802E000206062A46A002C54
:105A1000FAD140201449087010BD00005A0000203F
:105A200050000020540000205C0000207400002082
:105A30009C0000209D0000209E000020750000209A
:105A40007600002063000020640000205900002040
:105A500014060020DC05002060000020610000200A
:105A6000620000204400002081000020632802D151
:105A700001210B4A11700A49097801290ED10949FF
:105A800009884118074A1288914207D10021044A27
:105A90001170044909886431024A1180704700007E
:105AA000FE000020FC00002070B504460025002CFC
:105AB00000D170BD002000F03DF90546A54204D29A
:105AC0000020C043001B4019F3E7281BF1E700004A
:105AD0000FB4F0B593B01C221AA90CA8FAF73DFB3D
