:020000040800F2
:10000000E0140020C900000805320008352500086A
:1000100000000000000000000000000000000000E0
:10002000000000000000000000000000894B0008F4
:100030000000000000000000533D00084167000878
:10004000DB00000800000000B9430008DB000008E6
:10005000DB000008DB000008DB000008DB00000814
:1000600000000000DB000008DB000008DB000008E7
:10007000DB000008DB000008DB00000800000000D7
:10008000DB000008DB00000800000000DB000008C7
:10009000DB000008DB000008DB000008DB000008D4
:1000A000DB000008DB000008DB000008156E00081C
:1000B000DB0000080348854600F0C8FB0048004705
:1000C000057E0008E01400200448804704480047EB
:1000D000FEE7FEE7FEE7FEE7FEE7FEE7456800080D
:1000E000B500000830B50B4601460020202201244F
:1000F00009E00D46D5409D4205D31D469540491B5C
:100100002546954040191546521E002DF1DC30BDA4
:1001100070B500242546002801DA01244042002958
:1001200001DA01254942FFF7DDFFAC4200D0404231
:10013000002C00D0494270BD10B5202A04DB0846CF
:10014000203AD040002110BD0B46D340D04020249F
:10015000A21A91400843194610BD03460B439B0762
:1001600003D009E008C9121F08C0042AFAD203E02C
:100170000B780370401C491C521EF9D27047D2B252
:1001800001E00270401C491EFBD270470022F6E7D6
:1001900010B513460A4604461946FFF7F0FF2046FD
:1001A00010BD421C0178401C0029FBD1801A704709
:1001B0000321001D401E037812021A43491EF9D57F
:1001C00010467047F0B507460846584087B0C00F44
:1001D000049048000E46590040084908BC1A88415E
:1001E00005D2384631461E4617460B460246580091
:1001F000400810434CD0300D039040055900400D8D
:10020000490D0590401A0290402872DA1803012126
:10021000000B09050843019004980092002805D0BE
:100220000199524200208841009201900298402199
:100230000A1A0199009800F029FA05460C466B4607
:1002400007CB00F033FAC0197141039A0E0D002359
:10025000D71756401A467A40164344D0049A002ACB
:100260002DD0029A012A039A15DC1205C01A914179
:1002700001263605001C7141D20F059ED20700935E
:10028000019202962A46234600F030FA07B0F0BDEC
:1002900038463146FAE71605224A0F46B218C01A08
:1002A000B74101210905001C4F4100187F4111464B
:1002B00018187941E20F10436D19644113E0E20709
:1002C0006D0815436408C2071443039A01261205FA
:1002D000C01A91413605001C7141CE0740083043D9
:1002E0004908C01851412A46234600F0F2F9CDE7EB
:1002F000FFE7049801224000C117121A00238B4126
:1003000004983146C417381AA141EEE730B40124ED
:10031000E407634030BC55E730B40124E407614092
:1003200030BC4FE70000E0FFF0B51FB488B00B9978
:100330000998002448400999C00F490049080991CB
:10034000C0070B990090490049080B91099908983A
:10035000A64608431CD00B990A98084318D0099860
:1003600001244000420D4800410D09982405000376
:10037000000B204309900B980003000B20430B90C7
:1003800050181C494018002201901446104605E000
:10039000002001460DB0F0BD032801DA034600E05D
:1003A00003239C46C11A0AAE0AE05F0008ADED5B6C
:1003B0004F00F75B7D430027AA187C41491C5B1E58
:1003C0006145F2DD410004AB5A522104120C0A438C
:1003D000240C401C0828DFDB01980290009970462D
:1003E00001910090059B049A0799069800F07EF908
:1003F000D0E700000DFCFFFFF0B50C465C4085B077
:10040000E40FE40703944C00002664085900944666
:10041000490802460296224321D062460A431ED072
:100420006200570D4A000E032303550D01240246B6
:100430002C492405781B1B0B360B401823432643FD
:10044000614600901C46501AB44103D30098401CEA
:10045000009002E0921800985B41002803DA002027
:10046000014605B0F0BD002001210905074686467A
:1004700011E064461D46141BB54106D36546521B68
:10048000B341744607430C43A646CD0740084908CC
:10049000284392185B4105460D43EAD110461843A4
:1004A00013D06046194650407140084306D060465C
:1004B000101AB34106D20122002306E000220123D4
:1004C000DB0702E00122D243531000987446010575
:1004D000381C6141029C039D0019694100F0F9F844
:1004E000BFE70000FD03000070B54B005B0803434D
:1004F0000BD04B005C0D002633466542B341D41748
:10050000AD1AA34102DB0020014670BD1205301870
:10051000514170BD0EB5C217C10F5040CA074018F7
:100520000021054B0293019200910A460B4600F010
:10053000DDF803B000BD0000330400000EB505492E
:100540000291002100910A460B46019100F0CEF87D
:1005500003B000BD3304000070B5CD0F4A0009039D
:100560000123090B1B0519430B4BED070024520D0A
:100570009A4201DA002070BD074B34339A4203DC03
:100580009A1AFFF7D9FD02E00449511888402C431C
:10059000F1D0404270BD0000FF030000CDFBFFFF23
:1005A0004A0009030123090B1B051943094B10B528
:1005B000520D9A4201DA002010BD064B34339A42A4
:1005C00003DC9A1AFFF7B8FD10BD034951188840A3
:1005D00010BD0000FF030000CDFBFFFF10B5002998
:1005E00004DB0124E40740428C412146002B04DB5C
:1005F0001C460123DB075242A3418B4200D18242B9
:1006000010BD000010B5002904DB0124E4074042BE
:100610008C412146002B04DB1C460123DB075242A0
:10062000A341994200D1904210BD0000F0B51FB423
:100630000646002082B005464024019100901BE050
:10064000019922460F463046FFF776FD049A059B36
:10065000801A994110D310461946224600F016F828
:10066000361A8F410197224601200021009F00F099
:100670000DF838184D4100902046641E0028DFDC3C
:10068000019B00982946324607B0F0BD10B5202ADC
:1006900004DB0146203A9140002010BD9140202308
:1006A0009C1A0346E3401943904010BD10B5202A20
:1006B00006DBCB170846203A1041C1170B4306E072
:1006C0000B461341D0402024A21A914008431946FA
:1006D00010BD10B5002B08DA0024401C61419218AF
:1006E0005B411A4301D14008400010BDF0B51FB472
:1006F00082B005460C0003D0084606F015FD02E066
:1007000006F012FD20300246009021462846FFF7F1
:10071000BDFF049B059A04460F4618431143084346
:1007200014D0184610431BD0009840210A1A1846CE
:100730000599FFF701FD05460E46009A05990498B4
:10074000FFF7A4FF084305D0012004E02046394606
:1007500007B0F0BD0020C11705430E432C433743BB
:1007600000990E986305401A7905E40A00220C43AB
:10077000FD0A0A3002D500200146E9E701051019FB
:1007800069410C9C0D9D00196941FFF7A2FFDFE74D
:10079000F8B50546480040080C46284304D06000E0
:1007A000184A400D904201DD2846F8BD15493539FB
:1007B000884210DC88420BDB290D20030843290303
:1007C000014305D0E00F1049C00741180020F8BDD3
:1007D00000200146F8BD161A4020821B28462146FB
:1007E000FFF754FF07460091284621463246FFF79F
:1007F000A3FC3A46009BFFF76CFF3246FFF746FF2B
:10080000F8BD0000330400000000F03F4A00090377
:100810000123090B1B0519430A4B10B5520D9A42CF
:1008200002DA0020014610BD064B34339A4203DC45
:100830009A1AFFF781FC10BD034BD218FFF726FF71
:1008400010BD0000FF030000CDFBFFFF064C01259B
:10085000064E05E0E36807CC2B430C3C9847103468
:10086000B442F7D3FFF72AFC5C8800087C880008B4
:10087000F0B589B00C46074610220021684607F003
:1008800097FB69462246084607F0DDF8684600787F
:1008900087260106684600290FDA00214318425CCA
:1008A0005B785200DB091A434254491C0F29F5DBDF
:1008B000C17B0246490071400DE000214318425CB3
:1008C0005B785200DB091A434254491C0F29F5DBBF
:1008D000C17B02464900D173E21DF93251691029EA
:1008E00012D0017809061BD500214518435C6D78AC
:1008F0005B00ED092B434354491C0F29F5DBC17BF9
:1009000003464900714019E000216218FF320132AC
:100910005378455C491C6B4053701029F5DB26E089
:1009200000214518435C6D785B00ED092B4343546F
:10093000491C0F29F5DBC17B03464900D973E11D32
:1009400055698023FA316B54002500E05D545369EA
:100950005B1C5361102BF9D300216218FF32013266
:100960005378455C491C6B4053701029F5DB00211E
:1009700062181046FF32E0300132437C5278491C45
:10098000534043741029F3DB21461022F13104A8AF
:1009900007F0F6FA2246394604A807F054F8102268
:1009A0000021684607F004FB09B0F0BD10B504460D
:1009B00010220021F13007F0FBFAFF200021153052
:1009C0000151F022204607F0F3FA10BD0B4610B596
:1009D00002461021184607F061F810BDF0B5044634
:1009E000FF308BB00F4601300890E11D4069FA31AD
:1009F0000091103915460791002843D010210E1A96
:100A0000AE4200D316460099B2B24018394607F0FC
:100A1000B7FA0898089940698019486110283AD3B4
:100A2000B54238D0002162181046FF32E030013262
:100A3000437C5278491C534043741029F3DB0799D7
:100A40002246084606F0FFFFBF19AD1B1AE0002042
:100A50002118E0314A7C3B5C401C5A404A74102803
:100A6000F6DB102202A8079907F08AFA02A92246AB
:100A7000084606F0E8FF102202A9079807F080FA5E
:100A8000103D1037102DE2D8AAB23946009807F071
:100A900077FA089845610BB0F0BD0000F7B51F4923
:100AA0000F22897A1D4B511ACDB2597A9B7A0F26A3
:100AB000F31A0A46DEB2871E491C0124C9B2761E0B
:100AC0003B0006F048FB07050B050B150B0529003D
:100AD000124BAA421ED2124CA05407E00F4BB24256
:100AE00018DA0F4CA05401986054491C59720DE05B
:100AF0000A4BAD1EAA420DDA094CA054019860546D
:100B0000491CC8B202992154401C58720024034861
:100B1000012101722046FEBD0220FEBD2C000020F6
:100B20009603002070B51646144A01240025145778
:100B3000002820D000231248002C0BD0C06A402887
:100B400001D301251370602815D3C006C00E0128FB
:100B500002D010E0C3620EE0002C0CDD641E64B213
:100B6000002C08D1002906D004490C226431084623
:100B7000383807F005FA3470284670BDB4050020F7
:100B80002C00002070B5054600243021FFF7AAFA9A
:100B900000290CD0E8060CD018212846FFF7A2FA4D
:100BA000002908D0280708D0680708D00524204667
:100BB00070BD0124FBE70224F9E70324F7E70424CE
:100BC000F5E7000010B5040001D003F0C9FE0148AC
:100BD000C47010BDD800002072B602488178491C4C
:100BE00081707047D000002004498878401E0006BC
:100BF000000E887000D162B670470000D00000205F
:100C000010B5054900208880FF24214603A000F08C
:100C100091F9204610BD0000D0000020626174747C
:100C20006572794C6576656C2069732025640D0AC0
:100C30000000000070B53B4C0025207886B00028ED
:100C40004CD005F0D5FD01267602324636493748AC
:100C500000F08AF93549324624310846303800F030
:100C600083F9324932482839486330480A23092237
:100C70000021283806F0ECF82C48E1220095019577
:100C80000023520202212838029506F0CBF829A051
:100C900000F050F90020C0430090052306220721F0
:100CA0002A4805F0D1FC04F0ADF82078002836D1B0
:100CB000012020706078002831D11C482449103070
:100CC00005F0F6FD7D251948ED002946103005F0A8
:100CD00083FE1648103005F087FE1DE000F084FB0F
:100CE00005F034FD03F0ECFD0095002303220B21F9
:100CF00002A8019500F076F90095002303220C214B
:100D000002A8019500F06EF900F07CFA00F072FA8A
:100D100099E7284600F024F960780028F9D006B059
:100D200070BD0000D00000206C0B0020480900209E
:100D3000F17D000848656C746563206C6F726120FA
:100D40006E6F64652064656D6F0D0A00AC0F002046
:100D50008532000870470000F8B5C1001C481D4EE0
:100D60000F1878790C214843355A002281193446EE
:100D7000683C8A60207900280FD0207D002804D0AC
:100D8000A06B02466A43101A8860E18BA06B414356
:100D9000081A616D40186065F8BD206B05F084FD90
:100DA0000D49884201D2642006E00C49884202D2F3
:100DB0007D20C00000E00A48854200D92846A16B8A
:100DC0000C224843411A7879504380198160DCE74E
:100DD000B40300209400002080EE3600803F5C02C7
:100DE00010270000F7B586B000200D460090019056
:100DF000694602900D704149AA008958404A012471
:100E00008B18002B05D0D34200D102206A465070C7
:100E100001E0684644700846FFF790FB07463748F4
:100E20000E462438405D84402046FFF773FB3A4667
:100E30003346FFF7E1FA0022324BFFF775FA04461A
:100E400008980D464000FFF779FB07462E480491AD
:100E50000391067A70000838FFF75CFB22462B46A8
:100E600002910190FFF760FA3A46039BFFF7AAF957
:100E700022462B46FFF7C0FA06F08EFEFFF790FBE6
:100E8000B04215D904993E460F4622462B46029998
:100E90000198FFF749FA32463B46FFF793F922469D
:100EA0002B46FFF7A9FA06F077FEFFF779FB00E083
:100EB00030460190FFF742FB22462B46FFF734FAFB
:100EC0000022D243FFF710FB0E46074602222046BF
:100ED0002946FFF709FB3A463346FFF717FA002287
:100EE0000A4BFFF713FA06F057FEFFF735FB0290A7
:100EF0006E460ECE06980EC009B0F0BDD88600082A
:100F0000702FFCFF00408F40B40500200000F03F30
:100F100030B5034600200246012507E02C469440E8
:100F20009C4301D1401CC0B2521CD2B28A42F5D3BC
:100F300030BD00000FB400B5B3B035AA684634998F
:100F400006F0E0F86846FFF72CF9C2B2694603489C
:100F500006F04EF833B008BC04B018472009002052
:100F600010B500F07BF910BD002303804380416081
:100F70000281704710B50A460189501CFFF7B2F88C
:100F800088B210BD70B504460188FFF7F3FF6168B1
:100F90000D5C21882046FFF7EDFF2080284670BDBC
:100FA00070B50D4604464188FFF7E4FF6080616834
:100FB0000D5470BD0120704710B5094A0021CB00C7
:100FC000D458844207D89B189B68834203D9C80031
:100FD0008018007910BD491CC9B21529EFD3FEE76E
:100FE000508700087CB50E11079D069C062E03D87D
:100FF0000195009400F002F87CBD0000F0B587B0C8
:101000000D9D04460170481C51D00F0701203F0F71
:101010000646BE4066800E062649370F1DD0360FA5
:10102000012E21D0022E24D0234E66604F69060582
:1010300037434F61496931400591618800910C99AE
:10104000A172029103210391002A17D0032A18D01C
:10105000022A18D0012B1ED01EE00926F606666073
:101060004F6901267604E3E7144E66604F69360245
:10107000DEE7134E66604F693602D9E70020019023
:1010800011E001910FE0012B03D0022004950190A3
:1010900009E01220FAE711200190012A03D1294624
:1010A000204600F089F86946606800F0E5F807B06E
:1010B000F0BD000000100240000C00480004004891
:1010C00000080048FFB50026052585B01F460446E8
:1010D000002B65D060880090012915D0022915D019
:1010E00031480190A07A029003200390694660681D
:1010F00000F0C2F8079800280AD0012808D002287A
:1011000008D0032809D107E02848EAE72848E8E79B
:10111000032602E0022600E001266188FF22013258
:10112000881A91422ED012DC10292BD008DC01291C
:1011300029D0022927D0042934D0082923D131E02D
:1011400020291FD040291DD080291CD11AE00F2151
:101150000902421A884215D009DCFF38401E11D01E
:10116000FF38FF38801E0DD00121890208E00120E0
:101170000003101A06D001214903401A02D0490089
:10118000884200D1072520780A490007800E0F50B9
:1011900000223146284600F06FF9284600F062F937
:1011A00009B0F0BD0625EEE7000031100000111077
:1011B000000021106C0D002010B500228256521C38
:1011C00004D0CAB24188406800F0FAF810BD10B5EA
:1011D000002404572411062C01D8FFF773FF10BD1B
:1011E00010B5002282561211062A01D8FFF7E4FF3B
:1011F00010BD00000248416804221143416070475D
:101200000058014002484168022211434160704782
:101210000058014070B50024014620314A78022A66
:1012200003D004218163012416E0026813680E25AF
:10123000AB431360026813685B085B001360012214
:10124000056C1346AB40C56B6B604A7000220A7098
:10125000416B002900D08847204670BD31B500F0B1
:10126000B5F8009C0546601C00D0641C00F0AEF888
:10127000401BA042FAD338BDF8B500238DE001240D
:101280009C40A44622407DD04C68022C01D0122CF8
:101290000CD1DC08A40027183C6A5D07ED0E0F2670
:1012A000AE40B4430E69AE4026433E6205685E0020
:1012B0000324B4400F79A543BF07BF0FB7402F43A6
:1012C00007604D68012D05D0022D03D0112D01D0EE
:1012D000122D0ED18568CF68A543B7402F43876094
:1012E00047686546AF430D79ED06ED0F9D403D43E0
:1012F0004560C568A5438C68B4402C43C4604C6805
:10130000E40049D5284CA56901263543A561A469A7
:101310009D0834400094254CAD002F19BC689D07F2
:101320002E0F0F25B540AC430925ED06A84201D18B
:1013300000250FE01E4DA84201D101250AE01D4DF8
:10134000A84201D1022505E01B4DA84201D1032589
:1013500000E00525B5402543BD60184C25684E6862
:101360009543F60300D51543256065684E6895439F
:10137000B60300D515436560A5684E689543F6022F
:1013800002D500E008E01543A560E5684E68954386
:10139000B60200D51543E5605B1C0A681446DC40C4
:1013A00000D06CE7F8BD00000010024000000140D2
:1013B0000004004800080048000C004800040140F8
:1013C000002A01D08161704781627047014800683E
:1013D00070470000CC00002002480168491C0160F1
:1013E00070470000CC00002010B5064801681022AC
:1013F00011430160002000F007F800F017F800200A
:1014000010BD00000020024010B5044600F04AF96B
:101410007D21C900FEF766FE00F0BAFE00222146DB
:10142000501E00F029F8002010BD000008B50C483F
:101430008169012211438161816911400091C26972
:1014400001040A43C261C0690022084000901146AD
:10145000042000F011F8042000F004F808BD00009A
:1014600000100240C106C90E0120884001490860F1
:101470007047000000E100E010B501F0C5FE10BDAE
:1014800002480168821511430160704700700040F6
:10149000F8B505460068354CC00352D5E069002612
:1014A000C00007D4E16920040143E161E169014022
:1014B000012600912E480168C90510D401688215E3
:1014C00011430160FFF782FF074604E0FFF77EFF4C
:1014D000C01B642824D826480068C005F6D5206AB9
:1014E00003273F02384020D06968394081421CD030
:1014F000206A226AB843012109040A432262226A4F
:101500008A4322622062C0070FD0FFF75FFF00907E
:1015100008E0FFF75BFF0099411A1648814201D9A4
:101520000320F8BD206A8007F3D5206A6968B843B4
:1015300008432062002E04D0E169012000078143A6
:10154000E1612878C00705D0206BA9688008800079
:10155000084320632878800605D5206B1021884336
:10156000E968084320630020F8BD00000010024035
:101570000070004088130000F8B5054644480E4648
:101580000068C007C00FB0420AD24148016849084C
:101590004900314301600068C007C00FB0425CD110
:1015A00028783C4C800705D56068F0218843A968FD
:1015B000084360602878C0073FD06868012813D0CE
:1015C0002168022813D08907002946DA6168890852
:1015D000890001436160FFF7F9FE69680746012948
:1015E0000DD0022917D024E021688903ECE7890196
:1015F000EAE7FFF7EBFEC11B2748814217D8606876
:101600000007800F0128F4D117E0FFF7DFFEC11BB0
:10161000214881420BD860680007800F0228F4D16E
:101620000BE0FFF7D3FEC11B1B48814201D9032009
:10163000F8BD60680007800FF3D115480168C9073D
:10164000C90FB1420BD90168490849003143016013
:101650000068C007C00FB04201D00120F8BD287853
:10166000400706D56068072109028843E9680843F6
:10167000606000F02DF86168084A0906090F515CA6
:10168000C840074908600020FFF7BEFE0020F8BDF3
:101690000020024000100240881300000887000864
:1016A000EC0000200148006870470000EC000020BA
:1016B0000448054900684968044A4905490F515CD6
:1016C000C8407047EC000020001002401887000856
:1016D00010B512A30FCB88B06C460FC413A30FCB69
:1016E0000FC416494A680C20134603401448042BC3
:1016F0000FD0082B0DD193021B0F6C46E45CC96A16
:1017000004AB0907090F595CD20304D5FEF7EAFCC4
:10171000604308B010BD0B486043FAE702030405BC
:10172000060708090A0B0C0D0E0F10100102030426
:1017300005060708090A0B0C0D0E0F1000100240D9
:1017400000127A0000093D00FEB504460078D04D35
:10175000C00747D068680007800F012807D0686875
:101760000007800F022809D16868C00306D52868E1
:10177000800337D5606800287ED033E0012062689E
:101780000004012A11D08100002A01D0052A10D0BE
:101790002A6882432A602868884328606068002895
:1017A00014D0FFF713FE06460CE0296801432960B8
:1017B000F4E72A680A432A60F7E7FFF707FE801B71
:1017C00064286FD828688003F7D50BE0FFF7FEFD8B
:1017D000064604E0FFF7FAFD801B6428F1D828686C
:1017E0008003F7D420780126800700283BDA686858
:1017F0000007800F07D068680007800F022809D112
:101800006868C00306D42868800715D5E0680128F9
:1018100032D111E0E0680028286815D030432860F4
:10182000FFF7D4FD074604E0FFF7D0FDC01B0228F8
:10183000C7D828688007F7D52868F8218843216928
:10184000C900084328600EE0400840002860FFF708
:10185000BDFD074604E0FFF7B9FDC01B0228B0D864
:1018600028688007F7D42078000724D5E06900288D
:10187000686A10D0304300E008E16862FFF7A6FD17
:10188000074604E0FFF7A2FDC01B022899D8686A4A
:101890008007F7D50FE0400840006862FFF796FD2B
:1018A000074605E09DE0FFF791FDC01B022888D8A0
:1018B000686A8007F7D4207804274007002860DA98
:1018C00000200190E869C00008D4E969B806014326
:1018D000E961E96901400120009101906D480168CA
:1018E000C90511D40168821511430160FFF76EFD2F
:1018F000009005E0FFF76AFD0099401A642870D84F
:1019000064480068C005F5D5A06801280AD0002801
:1019100001D0052810D0286A400840002862286AB3
:10192000B84301E0286A30432862A068002812D03A
:10193000FFF74CFD00900AE0286A38432862F1E77F
:10194000FFF744FD0099411A5348814249D8286A5B
:101950008007F5D50DE0FFF739FD009006E0FFF7B1
:1019600035FD0099411A4C4881423AD8286A8007CF
:10197000F5D40198002804D0E969012000078143CB
:10198000E9612078C00635D5606901280CD0401D7A
:10199000686B23D038436863686B40084000686315
:1019A000FFF714FD064622E0686B38436863686BF6
:1019B00030436863FFF70AFD064604E0FFF706FDC3
:1019C000801B02285BD8686B8007F7D5686BF8210D
:1019D0008843A169C900084368630BE0B8436863A2
:1019E000F4E74CE0FFF7F2FC801B022847D8686B55
:1019F0008007F7D4206A002846D069680907890F54
:101A0000022943D0012636060228286805D0B043B3
:101A10002860FFF7DBFC044633E0B0432860FFF7A3
:101A2000D5FC074604E0FFF7D1FCC01B022826D8EE
:101A300028688001F7D4E86AE16A000900010843D8
:101A4000E862616AA06A084369683D221204914312
:101A500008436860286830432860FFF7B7FC0446F5
:101A600004E0FFF7B3FC001B022808D828688001B7
:101A7000F7D509E0FFF7AAFC001B022801D90320D3
:101A8000FEBD28688001F5D40020FEBD0120FEBD0A
:101A900000100240007000408813000010B5017F64
:101AA000012916D001210177022242770368CA2258
:101AB0005A62036853225A620268936820242343BF
:101AC00093600368FF225A6241770021017708463C
:101AD00010BD022010BD10B504F032FF10BDF8B5E6
:101AE0000446007F012818D001262677022060775F
:101AF0002168CA20486221685320486220688168B2
:101B000032029143816020688168120191438160B3
:101B1000FFF75CFC054600270FE00220F8BDFFF749
:101B200055FC411B7D20C000814206D92168FF2061
:101B30004862032060772777F8BD2068C068C00737
:101B4000EDD02168FF204862667727770020F8BD36
:101B500070B50C46FF21013161620068C169406CBB
:101B60004D0442048802800E20706D0E65704D0693
:101B70006D0EA5700D0C40263540E570520C62606C
:101B80008A002546920E20352A7032060A40E2610C
:101B90000A4A11406161002B0ED102F0DDFB20707A
:101BA000607802F0D9FB6070A07802F0D5FBA070DD
:101BB000287802F0D1FB2870002070BD80808080E2
:101BC00010B500680B464068C021C94301400002BF
:101BD000000ECC04D870E40E5C708C06A40E0904D0
:101BE000490F9C701970002A0AD102F0B5FBD87019
:101BF000587802F0B1FB5870987802F0ADFB9870FD
:101C0000002010BD30B50B460168896A5960016833
:101C100009694904490C9960006804680F48214625
:101C2000014088024D04800E18706D0E49065D70EB
:101C3000490E99706102490E40242140D970002A52
:101C40000AD102F089FB1870587802F085FB5870B1
:101C5000987802F081FB9870002030BD7F7F7F0074
:101C600070B5040003D0607F002802D006E0012098
:101C700070BD00202077204600F04CF802206077ED
:101C80002168CA204862216853204862204602F039
:101C900076FBFF250426002824D1206881681C4A91
:101CA0001140816021688868626863691043226915
:101CB0001A43104388602168E06808612068016960
:101CC00022891204114301612068C1688022914376
:101CD000C16020688068800608D4204600F09EF924
:101CE000002803D0206845626677C0E72068016C51
:101CF00001229204914301642068016CA26911439E
:101D000001642068456201206077002070BD0000FA
:101D1000BFFF8FFF10B50068084988420DD1084801
:101D2000016A0122D2031143016202210022084606
:101D3000FFF7A2FB0220FFF795FB10BD0028004033
:101D400000100240F8B50446007F0B4601283ED043
:101D5000012020770220607720681F460026203768
:101D60008068002A35D040064AD5187802F0F4FA87
:101D7000387802F0F1FA18789D7800040543587815
:101D8000D9780002090408430543387899690006A8
:101D90000543D869054358690543586808430090CE
:101DA0002168CA20486221685320486220688268FE
:101DB000FF2101318A4382602168C8688022104077
:101DC000FF388238C860FFF701FB074628E0022091
:101DD000F8BD400600D4DE70187802F0C5FA05049C
:101DE000587802F0C1FA00020543987802F0BCFA74
:101DF0000543D87800040543387802F0B5FAC5E702
:101E0000DE70B5E7FFF7E2FAC11B7D20C00081421A
:101E100006D92168FF204862032060772677F8BD45
:101E20002068C068C007EDD02068C56121680098AF
:101E3000486420688268FF2101310A43826020687B
:101E40008168012212031143816008480268012160
:101E500049040A43026082680A4382602168FF20C5
:101E600048620120607726770020F8BD0004014019
:101E7000F8B50446007F0B46012815D001202077D5
:101E8000022060775878002A10D002F065FA98781E
:101E900002F062FAD8789D780004054358781978E2
:101EA00000024903084316E00220F8BDC10603D52D
:101EB000EF2108400A305870D87802F055FA05042E
:101EC000587802F051FA00020543987802F04CFA73
:101ED00005431878400305432168CA2048622168F9
:101EE00053204862204602F04AFA0026FF270028C5
:101EF00011D110480540206845602068C1688022E3
:101F00009143C1602068806880060BD4204600F0B1
:101F100085F8002806D0206847620420607726777D
:101F20000120F8BD206847620120607726770020F5
:101F3000F8BD00003FFFFF00F8B50446007F0D46E6
:101F400001280ED00120207702206077206800272A
:101F50008068002A07D0400618D5287802F0FCF9DE
:101F600015E00220F8BD400600D4EF70287802F09A
:101F7000FBF90604687802F0F7F900020643A87836
:101F800002F0F2F90643E878000409E0EF702878DF
:101F9000AE78000406436878E97800020904084333
:101FA00006432168CA2048622168532048622046BF
:101FB00002F0E5F900281ED11748064020680660A7
:101FC0002068816801229204914381602969E86850
:101FD000084321688A68104388602068C1688022AD
:101FE0009143C1602068806880060CD4204600F0D0
:101FF00015F8002807D02168FF2048620420607788
:1020000027770120F8BD2168FF2048620120607712
:1020100027770020F8BD00007F7F7F0070B5044661
:102020000068C168A0229143C160FFF7CFF97D2607
:102030000546F60006E0FFF7C9F9401BB04201D99A
:10204000032070BD2068C0688006F4D5002070BDF4
:10205000F8B5040007D0002625464035A662687F03
:10206000002802D005E00120F8BD2E77204600F0C0
:102070004BF802236B77206801684022914301608E
:102080000721E0680902884201D9002201E001220B
:1020900012030F273F02B84202D0884200D0A66246
:1020A000276B002F05D1884201D9236301E001206D
:1020B0002063A16860686369084321691943084384
:1020C0000123A1695B0219400843E1690843216AC1
:1020D0000843A16A084321680860616B606AA369CC
:1020E00008431B0C0427E1683B401943084321685F
:1020F000104348602068C1697A029143C161266635
:10210000012068770020F8BD10B586B00446142180
:102110006846FEF73BF815492068884224D11448E8
:10212000826981140A43826182690A400592426988
:1021300049010A434261406908400590E02000904F
:1021400002200190002103200390029104910920B4
:102150006946C006FFF790F8002201211920FFF719
:102160008BF91920FFF77EF906B010BD0030014051
:1021700000100240042204490428086902D0904358
:10218000086170471043FBE700E000E07047000083
:10219000094910B5401E884201D9012010BD074CE5
:1021A00060610321081F01F02FF80020A0610720C3
:1021B0002061002010BD0000FFFFFF0000E000E0F4
:1021C00010B5FFF7E3FF10BD10B501220249034827
:1021D00000F000F910BD0000E8000020E80D00202C
:1021E000F8B503680446D96918680D072D0F07D1A3
:1021F0008A0605D5820603D5204604F001FDF8BD08
:102200009A68002D64D0D507ED0FFF2621360640D1
:102210002E435DD0CE0706D0C60504D501261E622A
:10222000E36E3343E3668F0702230426002F06DAAA
:10223000D70704D027683B62E76E3743E7664F074E
:1022400006D5D20704D022681662E26E1A43E2660F
:102250000A0709D5202202402A4305D02368082214
:102260001A62E36E1343E366E26E002AC7D0890662
:1022700004D5800602D5204604F0C2FCE06E0007BB
:1022800003D42068806840061CD5204604F09CFCDE
:1022900020688168490611D5816840229143816098
:1022A000606E00280AD012494163606EFEF7B2FFEB
:1022B0000028A4D0606E416B8847F8BD2046FFF728
:1022C00083FFF8BD2046FFF77FFF0020E066F8BDE2
:1022D0000A0605D5020603D5204604F067FDF8BDC1
:1022E0004906FCD54006FAD5204604F07CFCF8BD32
:1022F000B56B000870B5040005D025466035687AD6
:10230000002802D006E0012070BD0020287220467F
:1023100000F026F824206872206801684908490006
:102320000160204604F0AAFC0128EDD0606A002874
:1023300002D0204604F0D0FB206841680122D2027E
:102340009143416020688168082291438160206840
:102350000168012211430160204604F022FC70BD97
:1023600010B586B0044614216846FDF70FFF1749E3
:102370002068884227D116488269012189030A43CF
:10238000826182690A4005924269C9000A4342613A
:10239000406908400590032040020090022001900F
:1023A0000020029003200390012004900920694638
:1023B000C006FEF761FF002203211B20FFF75CF837
:1023C0001B20FFF74FF806B010BD00000038014099
:1023D0000010024070B5034660339C7A202C39D13E
:1023E00000290BD0002A09D0012584682D03AC42B6
:1023F00006D10669002E03D1CE0701D0012070BDA1
:102400001E7A012E26D001261E72416501464031FA
:102410000A834A83FF22AC4204D10469002C07D10D
:102420000D4A05E0002C04D10469002C00D07F2265
:102430008A830021C16622229A72197201688A6811
:1024400032438A6000680168FF2221321143016033
:10245000002070BD022070BDFF01000010B50C48C7
:10246000044600F09FF8002804D10A48017820466D
:10247000FEF796FD06482838416B002901D001205F
:102480008847012203490448FFF7A4FF10BD00005C
:1024900048090020E8000020E80D002030B5034680
:1024A00060335C7A202C23D100290BD0002A09D07C
:1024B000012584682D03AC4206D10469002C03D1A8
:1024C000CC0701D0012030BD1C7A012C10D0C16492
:1024D000014640310A824A820021C16621225A7295
:1024E000197200680168802211430160002030BD2C
:1024F000022030BD10B50C48044600F04BF800280F
:1025000009D12046FEF73EFD084901224870491CCA
:102510000748FFF7C3FF04481C38416B002901D06E
:102520000020884710BD00003C090020E800002082
:10253000E80D0020FEE730B5002803D0002903D0C5
:10254000002323E0012030BD022030BDC45C2409FB
:10255000092C02D85D00303405E025460A3D062DE1
:1025600002D85D0037345455C45C2407240F092C6D
:1025700003D85D00AD18303406E025460A3D062D2F
:1025800003D85D00AD1837346C705B1C8B42DDD313
:10259000002030BD01884088814201D10120704770
:1025A0000020704710B504464188FEF7E3FC2188FF
:1025B000884201D1012010BD002010BD884200DCFE
:1025C00008467047F8B5174605460A461948069C5E
:1025D000089E0799447183711C0AC4711C0C047213
:1025E0001B0E437281720B0AC3720B0C0373090E2C
:1025F0004173D4B2C4731048FEF7D8F939460E4877
:10260000FEF7E4F910220B490B48FEF7E7F92246E2
:1026100029460948FEF7E2F90749C81FFD38FEF7C9
:1026200027F9064C601CFDF7C3FD21780002084322
:102630003060F8BDA000002008080020040700203A
:10264000F0B585B000287DD00268002AFBD0426832
:10265000002AF8D08268002AF5D0554A0125D165B4
:1026600090651146002018310870507450639075C1
:10267000D575D074106550654E49107502220A70E8
:1026800048700A224A60049206220A7203924A4A59
:10269000CA607D26F600029272000E614A610192C4
:1026A000464A8A6100920A46454F2032CF61157032
:1026B000444B5070DA690C461B6A0C34E361A2612A
:1026C000FF228A85C885088648868886C8860024B1
:1026D0002046FDF733FF00223B4BFDF725FE03228A
:1026E00052073A4BFDF76EFDFDF75AFF0246E10037
:1026F0003748641C42500818502200210271E4B28D
:102700004171402CE4D32B48049938384160039937
:10271000017202990661C160019941610099C76126
:102720008161014620310D7001F06AFE214829497E
:10273000383004F0BDF81F483146383004F04CF909
:10274000254900E032E01B48683004F0B1F8194830
:1027500022497C3004F0ACF816482149903004F04E
:10276000A7F814481F49BC3004F0A2F804F098F808
:102770000F4E1D4930630F48204C4C3001601B49FF
:1027800081601B4901611B4941601B49C16021688F
:1027900088476069804705F0C5FDB574A16D28467E
:1027A0008847E06A8047002005B0F0BD0320FBE7C2
:1027B0002C000020EC050020B80B0000881300005E
:1027C00070170000B4860008006A08413508BC4153
:1027D000B4030020C1320008113C0008793B000816
:1027E000D13B00084D3200085D3A0008E53400088E
:1027F000AD3900083D3B0008113A00080088000888
:10280000F8B504461D4617460E460D48FEF7CEF8AD
:1028100039460B48FEF7DAF8F2B221460848FEF7CF
:10282000DDF80749C81FFD38FEF722F8054C601C8B
:10283000FDF7BEFC2178000208432860F8BD0000C7
:102840000808002004070020FFB585B00F460446A5
:1028500007ADF02200211D480E9E05F0A9FB1B4A82
:102860001021204605F01AF910220021684605F0D3
:102870009FFB012168460170062239466C46401CC8
:1028800005F07EFB02222946E01D05F079FB0F4A88
:102890006846089905F0D7F810220021684605F02F
:1028A00087FB02216846017006223946601C05F04C
:1028B00067FB02222946E01D05F062FB034A314610
:1028C000684605F0C0F809B0F0BD0000140700200C
:1028D000F8B517460E4605461C46F02200210B4867
:1028E00005F066FB094A1021384605F0D7F8074A7B
:1028F0002146284605F0A7F8102E06D32146284683
:10290000024A1031103005F09EF8F8BD140700207F
:10291000FEB50446002002260190002C5BD033480F
:10292000416BCA0701D1C80601D50120FEBD0020B8
:1029300069460872014614222D4805F039FB2C48DF
:10294000012545702078002804D001280AD00328EA
:102950003FD119E0254869464573087AC006C00E84
:10296000403008E021488573E17B41736946087A6D
:10297000C006C00E8030087220790190A0680090D7
:102980000E26A789A6570CE0184869464573087AB1
:10299000E021084369460872606800900A2627898A
:1029A000A65712484079002808D105220021304658
:1029B00004F08CFB00280ED00E4846703B4602A85F
:1029C000009A019903F0F8FB060006D007490020A1
:1029D00088713046FEBD0320FEBD05482178017098
:1029E00002481830017829430170F2E72C000020DA
:1029F000D4060020B405002070B50446002504224A
:102A000035A1374804F0F4FA002C17D0364A26785E
:102A1000114634483839330004F09DFB1D12141759
:102A2000191B1E20232527292E37353B3F414345BF
:102A300047494B4F4D51535557595B00032070BDCB
:102A4000407C00E00079207144E04079FBE7806C35
:102A500000E0C06C60603DE02448FBE72348103094
:102A6000F8E7807CEFE7C07CEDE72148F2E71E49FC
:102A70007439086E496E03E01B490C318869C969D5
:102A8000A160606026E0184801E0174838382C3013
:102A9000E0E7154818380078D5E7C868DAE708692C
:102AA000D8E74869D6E78869D4E7C869D2E750789B
:102AB000C9E74878C7E71078C5E70878C3E7406AF0
:102AC000C8E7806AC6E7006AC4E74868C2E7087AD0
:102AD000B9E70225284670BD33330D0A0000000017
:102AE000200900202C000020EC05002078010020A7
:102AF000B4030020F8B500250446002805D064483A
:102B0000818EC90703D00120F8BD0320F8BD624FB4
:102B100022783E465F49383E130004F01CFB1D102E
:102B20002124272A2D333A40B5434A575161696C15
:102B30006F72757883998EA7AAB5ADB1B500227969
:102B40004274002A04D0012A04D0022A02D102E0F1
:102B5000C86A804799E00021817101F039F894E05A
:102B60002179017191E0217941718EE06168816480
:102B70008BE06168C16488E06168002974D010222C
:102B800046482AE0616800296ED04448102210307F
:102B900023E022798274896D1046884775E0217997
:102BA000C17472E03C48A26874386168426601668C
:102BB0006BE03948A2680C306168C261816164E0F1
:102BC0006168002950D00C22334805E06168002973
:102BD0004AD031480C2238382C3005F0D1F954E075
:102BE0002079411E0E293FD82B49183908704CE036
:102BF0006068F06049E06068306146E0606870617C
:102C000043E06068B06140E06068F0613DE004204E
:102C100020560522002104F059FA002824D02079FA
:102C2000787032E0042020560522002104F04EFA8C
:102C3000002819D02079707027E004202056072240
:102C4000002104F043FA00280ED0207938701CE0EF
:102C5000042020560722002104F038FA002803D06F
:102C60002079307011E0FFE703250EE061684162D2
:102C70000BE06168816208E060687860706004E081
:102C800020793872307200E002252846F8BD000035
:102C90002C00002000880008EC05002078010020AE
:102CA000F8B502270446002855D03A4EB08EC0072A
:102CB00017D10C220021384805F07AF93648012155
:102CC00041702278354608211835002A06D0012A9D
:102CD00043D0022A4CD0032A35D151E0B28ED2061D
:102CE00001D50120F8BD6268002A34D0A268002A0C
:102CF00031D0E268002A2ED0237C002B2BD0302B41
:102D000001D2302323742B780B432B702178017070
:102D10006068F063A06872643064207CF075002005
:102D2000B0756946087001F06BFBB07D401CFDF783
:102D300029FF1A49002348701A461946684603F0CD
:102D40003BFA070005D00020B0712878F721084031
:102D500028703846F8BD0320F8BD2A780A432A7047
:102D600021780170002211460220FDF797FEE8E766
:102D70000270287808432870A08803F0BDFBE0E7C4
:102D80000270287808432870227BA088A16803F08D
:102D9000EBFBD6E72C000020E8060020B40500205D
:102DA000FEB508AF70CF6F4670C700F001F8FEBDEA
:102DB000FFB50D46002681B01F460124F0223146A2
:102DC000294805F0F5F8284A1021039804F066FE1A
:102DD00026480A9941718771390AC171390C01720B
:102DE000390E41720B9981720B991F4F090AC172FA
:102DF0000B99090C01730B99090E4173203F18E0E0
:102E00001A48194AC473641C1146A4B2203904F04C
:102E10001AFE00203118019A3B5C525C401C5A405B
:102E20000C9B80B25A541028F4D3103D1036ADB22A
:102E3000F6B2102DE4D2002D13D00B4A0B481146E8
:102E4000C473203904F0FFFD002008E0019A311816
:102E5000525C3B5C5A400C9B401C5A5480B2A842C6
:102E6000F4D305B0F0BD000014070020B00000202E
:102E7000F8B507461C480C46407869461B4D08705B
:102E8000687AA97A4018C6B2002C09D06A46002197
:102E90006879FDF747FEE87C002803D0144803E07A
:102EA0000320F8BD1248801F6A4600215156405C3D
:102EB0006070B04216D3801B207000226846815695
:102EC000384604F0EDF800280AD068460021415643
:102ED0003246384604F0E4F8002803D00020F8BD5C
:102EE0000820F8BD0920F8BDEC0500202C000020CA
:102EF000C0860008014901200871704700000020C9
:102F0000F0B504464078EFB0002864D1A07C0128D9
:102F100009D114227AA1804804F06AF80E227FA118
:102F20007D4804F065F8814D2878012802D1A889F0
:102F3000401CA881C8213DA8FDF728F9C8210BA88D
:102F4000FDF724F9607B012845D1C8213DA8FDF794
:102F50001DF9C8210BA8FDF719F9217B0BAAA06860
:102F6000FFF7E9FA207B002741000BA847540090A7
:102F7000607C237B002801D06DA200E06EA270A1CE
:102F80003DA804F0ABF83DA8FDF70BF982B23DA9CE
:102F9000614804F02DF8E0787149012813D0022827
:102FA00011D0E02817D12A7801260220002A14D057
:102FB000A26812786A70130004F0CDF8082B383A32
:102FC0003C3E4F54720D207B012804D1A06800784C
:102FD000C007C00FC8706FB0F0BD227B042AFAD1C1
:102FE000A2681378012BF6D15378012BF3D1937893
:102FF000012BF0D1D278012AEDD18F70E0220A7036
:103000004870AF81AF73EF732F742E706E70694686
:1030100006E08E70087018224A70AF812F7008A9E0
:1030200008700E710846FFF765FDD4E74870D2E7D7
:103030008E7063E08F7061E0227B4A703B49042010
:1030400054390870012005E0A3681B5C5B1C0B541D
:10305000401CC0B29042F7D3BDE768460670FFF748
:103060001FFEB8E78E700C46087018216170AF81A2
:103070002F70694608750E7605A8FFF73BFD3848A6
:1030800069460F700C3001900830029008300390B0
:10309000032008746846FFF703FE042060719AE776
:1030A000217B032902D007290CD027E0694608704C
:1030B000A068817842780802104340BA6946888047
:1030C000684619E0032168460170A068817842785B
:1030D0000802104341BA68468180A068C17802792D
:1030E00009041202407911430143642041430291D3
:1030F000A068817968460173FFF7D2FD6E706AE7B8
:103100002B53454E443A41434B2052454345495683
:1031100045440D0A00000000200900202B53454EB5
:10312000443A444F4E450D0A0D0A00006401002048
:10313000525857494E320000525857494E310000FC
:103140002B524556204D53473A25732C525853491C
:103150005A452025642C222573220D0A0D0A0000F1
:103160000000002070B50178124C0125002902D022
:1031700001291CD10FE04078002804D00EA0FDF7F3
:10318000D9FE657113E00E2218A11C4803F030FF30
:10319000022060710BE04178002908D118490A78B3
:1031A000012A04D18D73027ACA73407A087425719A
:1031B00070BD0000000000204D6C6D65436F6E66B1
:1031C00069726DC8CFCEAA44657669636553746130
:1031D0007465203D204445564943455F535441544E
:1031E000455F4A4F494E3B0D0A0000002B4A4F49AC
:1031F0004E3A444F4E450D0A0D0A000020090020AA
:1032000064010020704700008307FF22DB0E9A4014
:103210008907090E994000280BDA0007000F0838CB
:10322000830808489B001818C36993430B43C36184
:103230007047830804489B001B1818689043084394
:103240001860704700ED00E000E400E010B50B48A6
:1032500003F0FAFB0A488179002905D00121C173E6
:10326000416B042291434163407C022805D104480C
:103270001022183001781143017010BDA8060020FB
:103280002C00002010B503A0FDF754FE0B490120CF
:10329000487010BD53797374656D57616B657570B7
:1032A00054696D6543616C69627261746564203D47
:1032B00020747275653B0D0A00000000D0000020EC
:1032C000F8B5854803F0C0FB844D00222878844C73
:1032D000C10670D5616B4B0604D54023994349085C
:1032E000490061637C490307C4310F46143F00263F
:1032F000002B01DBC3070FD07B78022B02D04B7869
:10330000022B09D1626B5208520062636672A27B83
:103310007A713E710122BE60A379134333D1020753
:1033200002D4C10703D12EE00A78002A08D06A49E6
:10333000E27A5039097891420ED9810712D41DE002
:10334000A27D8A724978002903D0E17D8A4210D299
:1033500014E06662E6720CE0800703D46672E06AED
:10336000401CE062E672A078002802D1606A401C2E
:103370006062606B40084000606304E0EF21084039
:10338000287000F045FC2878800715D53879012889
:1033900003D0A07B617B88420ED9E673A671A0782A
:1033A000002802D1606A401C6062A07B7871606B6B
:1033B0004008400060634BE0E07B002848D0A08ECE
:1033C000C00645D4E673A07B617B88422CD20828D6
:1033D0002AD8401CA073C0070AD03F490120703989
:1033E0000856421E002A01DD401E00E00020487001
:1033F00002F054FE002812D0082078706672606BCC
:10340000400840006063A6713E71A07B787132482D
:1034100070384078B870A078002816D018E0287866
:10342000EF210840287013E02B490C220C39084684
:10343000383804F0A5FD606B400840006063667298
:10344000A6713E71A07B7871E5E7606A401C6062FE
:10345000606B810702D502218843606300280ED08B
:103460007D21C9001C4803F0B7FA1B4803F0BCFAE1
:10347000287880072ED5607C02281DD01EE0287891
:10348000C00708D0A06D01681348B030884728787D
:103490004008400028702878000708D5A06D816892
:1034A0000D48C43088472878F721084028702878CC
:1034B000EF2108402870DBE700F08AFB28784007FE
:1034C00004D4A06D41680448983088472878F921D1
:1034D00008402870F8BD00002406002044000020A9
:1034E0002C000020FFB504460020FF4D93B028704B
:1034F000FE49049110310C9106900990FC490F90FF
:103500000E90109008711839CA81169A0A742A7C94
:103510004A74C870887048718860087348738874EA
:10352000486107460870F348C06A8047F048583839
:1035300003F08AFA20786946087041091498149EAD
:10354000001F761E11910D9001291CD003297CD0FB
:103550000529FCD0072979D0E549012018394870A0
:1035600000F012FDE048102218300178114301707C
:10357000DF480121B03803F02FFADD48B03803F0FE
:1035800033FA17B0F0BD2879002803D0D8490120BC
:1035900018394DE1D84FB1B27B1C601C6A6CFFF743
:1035A00097F96846007838700D9806AB81B23846B6
:1035B0006A6CFFF725F9149838182038417F027F8C
:1035C00009021143827FC07F12040A430006069954
:1035D000104388426ED1C5483C4610300090C34B22
:1035E000AA8B611C686CFFF72FF9607921790002C2
:1035F0000843A17909040143A964207AE179000212
:103600000843617A09040143A07A00060843E8648C
:10361000E17A4806420FB94809074270090F017262
:10362000207B0107B648090F016101D10121016129
:10363000B34C2069FCF782FFB24F00223B46FCF7F7
:1036400073FEFCF7ADFF206101E037E094E1FCF789
:1036500075FF00223B46FCF7B5FDFCF7A1FF60615A
:10366000102E1BDD5020694608746F6B2020074325
:10367000032600246F63A04800190D30FCF798FD65
:103680000002000A64214843761CE41CF6B2E4B24E
:103690000390082EEFD3202087436F6394490020C6
:1036A00014314870012028710846FC3841783838B8
:1036B000417057E78E4806211430F9E7A178607809
:1036C00009020143E078884A000408432179090689
:1036D00001430391D26C05209142834917D00F6AB0
:1036E0000CE03A6803998A4207D101210E91391DF5
:1036F000049110310C917D6A0AE0BF6A002FF0D16D
:103700000A217B481838417000F03EFC39E78D6A89
:10371000265C69460E70401C215C401C205C099BA5
:1037200002023007000F0830089014980A4320184E
:103730002038017F1943437F1B020B43817FC07FE9
:1037400009041943000608430990501B80B2012266
:10375000D20306A90B90904215D22D18012000909B
:103760000D98029181B201952046039B049AFEF7C1
:1037700029FF0699099888421CD101210B988903D9
:1037800088421CD224E000B20122281812048018BA
:10379000129001900D9801220291009281B2204670
:1037A000039B049AFEF70EFF06990998884201D1FF
:1037B000129DE2E701210B988903884205D34C480A
:1037C00009211838417045619EE71098002874D08F
:1037D00047490020183948700E9A8A70F206D20FB5
:1037E0004A7188600873424B4D613F495870C86206
:1037F00088720E9800280CD01846022118380170E3
:10380000796AA94203D1002901D007217BE77D62B3
:103810001FE0119805280DD0334835490022C271A8
:1038200018390A70806AA84211D100280FD00720E9
:10383000487069E72C482E4A0121C171183A11706D
:10384000806AA84203D1002801D001200F902648A9
:10385000856227480078012801D1B00602D52249A7
:103860000020487208991498401A001F002853DD60
:10387000605C4F1C1499C91B091FC9B20D911C49EA
:103880001839C870002819D0300707D016980821B9
:10389000C3B2781EC2B2204600F0D4FB1648012104
:1038A000029000910195E019039B0C9A0D99FFF786
:1038B00077FA0F98002827D050E05BE0300702D05D
:1038C00001200F904AE00C480121009102900195DF
:1038D000E019039B049A0D99FFF762FA16980021EC
:1038E000C3B205480D9A1EE02C000020780100208C
:1038F000D40600200088000897020020D40500208C
:10390000B405002000408F402648254981600D996C
:103910000173012141730BE0300706D016980A4667
:10392000C3B20821204600F08DFB0F98002815D166
:10393000B00606D51B490120183108711839887462
:1039400008E018490020183108711748817B407B36
:10395000814203D91348143803F076F81249022241
:10396000183108781043FB2210400F9A9200104340
:103970000870F7E50B21C4E6611C0948149A04F0AD
:10398000FFFA084803210170002141700449816059
:103990000673054802221830017811430170E1E5F1
:1039A00097020020BC0600202C00002070B5154CAA
:1039B00001202070607C022803D01348C06A804731
:1039C00001E000F005F911480E4D227C0146183542
:1039D00010261431A379002A05D00522002B00D02F
:1039E00042704A700AE00422002B00D042704A70F4
:1039F000206D02F059FF616E884202D3287830436F
:103A0000287070BD2C00002000880008D40600201B
:103A100010B50F4C00202070607C022803D00D48A8
:103A2000C06A804701E000F0D3F8207C01280ED165
:103A3000A1790320002901D00749487006491022C6
:103A4000143148700248183001781143017010BDDC
:103A50002C00002000880008D4060020F8B502F0F1
:103A60001FFF324C0546607C022803D03048C06AF4
:103A7000804701E000F0ACF8E07800262D4F0028E8
:103A80002DD038466C38216E02F0A6FF38466C38CF
:103A900002F0AAFF607C02280ED038465838616ECA
:103AA00002F09AFF3846583802F09EFF607C0228E8
:103AB00002D0A079002822D07D21C900484204F01C
:103AC000A3FB616E40187D210901411819482C386B
:103AD00002F082FF17482C3802F086FF0FE01549EC
:103AE0007E70032014314870104818300178002986
:103AF00001D101210170C9B2102211430170607D12
:103B00000D4AC100891849790C225143074A68328D
:103B100089184D602565FDF71FF9A079002803D1AC
:103B20007E70E07A401CE072F8BD00002C0000209E
:103B300000880008D4060020B403002010B50B480C
:103B4000407C022803D00A48C06A804701E000F0A8
:103B50003FF8084902204870143148700348102289
:103B6000183001781143017010BD00002C000020B6
:103B700000880008D406002038B5104C01202070C1
:103B80000F4802F061FF00252574607C022802D1F5
:103B90000C48006B80473021607DFCF7A3FA0A488F
:103BA000074C41430948283408180095A1886278D9
:103BB0008BB20021615600F09BFF38BD2C00002025
:103BC0006806002000880008400D0300E0F8D11DC1
:103BD000F8B50D4C0126267000250C4802F034FF84
:103BE000607C022800D10125084800951430018A24
:103BF000427B8BB20C214156DC38406A00F078FFE2
:103C0000002800D02674F8BD2C0000207C0600207F
:103C10003EB5174802F018FF164C1021606B884320
:103C2000606320461830007800071DD51048943096
:103C30000078002818D100F0E3FBA07D401CFCF7C1
:103C4000A1FF0B49A03948700020694608716179CD
:103C50000246C9010A4369460A72034602460090B9
:103C600002A901A800F076F802F018FA3EBD0000A3
:103C7000540600202C0000203EB50D4802F0E4FE62
:103C8000012568460570FEF7B7FE002808D1684692
:103C90000079084C012804D007A0FDF74BF96571A5
:103CA0003EBD0EA0FDF746F90220607125713EBDB4
:103CB000500100200000002044657669636553745C
:103CC000617465203D204445564943455F53544146
:103CD00054455F4A4F494E3B0D0A000044657669E2
:103CE00063655374617465203D20444556494345DE
:103CF0005F53544154455F53454E443B0D0A000009
:103D0000F0B5064600242046002E01D0002A1DD121
:103D10000020F0BD355DAF1E3B0003F01CFA071517
:103D200013150511130D1500641C1554E4B2401C45
:103D3000C0B2335D135400E01554401CC0B203E020
:103D4000A41C00E0641CE4B2641CE4B28C42E1D325
:103D5000F0BD7047F0B585B00F4600210A9D854C37
:103D60000391009261831E1EA17100D10025EAB269
:103D70006270814D0178297000780121400908D0D6
:103D800002283DD0042839D007287DD0022005B074
:103D9000F0BD6183681C0822216C04F0FCF8608B84
:103DA0000822083080B260832818E16B04F0F3F831
:103DB000608B083060837148406980470146A0836A
:103DC000608B03AB2954401C80B2090A2954401C63
:103DD0006083C1B26848626CFEF712FD608B039984
:103DE0002954401C80B20A0A2A54401C80B20A0C92
:103DF0002A54401C80B2090E2954B6E00120A0715B
:103E0000207900284AD038785D4AC0090121FCF7A2
:103E100089FE81013878BF22104008433870E1796B
:103E2000002904D00021E171202108433870524854
:103E3000E16C41700A0A82700A0CC270090E0171AD
:103E400039784171A18C8171090AC171FF30617AA1
:103E5000FF3040180825A27A4A4904F091F8607AA8
:103E6000A17A4018C1B26172002E22D06078002879
:103E70001FD00F2927D8207A002824D038780309AA
:103E80001B014018000700E066E0000F03433B7091
:103E9000394A3C4F002053710F3F07E0072076E777
:103EA0003B5C53556D1C401CEDB280B28842F7D389
:103EB00009E0002907D0207A002804D0314E617033
:103EC0000F3E002000902F4A0027104627720F381F
:103ED000FFF716FFA072002801D001202072002EEB
:103EE00015D06178002912D02348009A42556D1CE4
:103EF000009AEDB2002A26D0626A4019019200971A
:103F000002901D4AE36C103A3046FEF751FF60788C
:103F100029186183626A03A801920290164A0097E9
:103F2000203A1548E36CFEF74DFB134A618B03986A
:103F30005054030A52185370030C000E9370D07043
:103F4000091D618313E0626A401901920A4A0097D1
:103F50000290203AE36CD7E7002B08D0002A06D065
:103F6000681C314604F00CF86078401C6083002027
:103F70000DE700002C0000209801002000880008B8
:103F8000B5050020A503002010B50C484022416B68
:103F9000114341638079002801D0FFF757F90749A1
:103FA000122218310878104308700121044802F0E9
:103FB00013FD034802F018FD10BD00002C00002086
:103FC0002406002010B5022810D0E0280DD1164894
:103FD0000122847B01465439144B012C11D04478C2
:103FE000012C19D0042C00D1427010BD0E48402184
:103FF0005438FCF7CBF80E220DA1114802F0F8FF5F
:1040000010BD0024847303245C7005230B70C37BF4
:104010004B70037C8B70E7E702225A708089020A9A
:104020000A70487010BD00006401002000000020EC
:104030002B526561644F766572616C6C0D0A0000ED
:1040400020090020FFB58DB0BB480C46B94F049045
:1040500069E10D98005D641C801EE4B2030003F06A
:104060007AF8070513C5D2FEFDFCFB00B34900201A
:1040700048700D98005D0872641C0D9AE0B2125CE5
:10408000401C4A72C4B24EE1072009900020019002
:10409000029001AB03904100A74A401C203A8A18C5
:1040A000928DC0B25A520628F5D30D98005D641C5B
:1040B00001070006000F0A90090FA1480B914079F3
:1040C000E4B2002813D19C480122203882560A9974
:1040D0008A4204D1002141560B98814207D0002228
:1040E00011460320FCF7DAFCE41CE4B21BE10D9856
:1040F0000D99025D641CE0B2095C401C0902114389
:104100000D9AC0B2125C401CC4B25006400F8446E7
:104110001007000F009001D1012000906046062892
:104120000FD0072828D062460020160101252A4614
:1041300082400A4229D03218D200BA58002A20D030
:1041400023E000210A46002053000D18ED007D59A0
:10415000002D06D001ADED5A01268640354301AE53
:10416000F552401CC0B21028EFD31031521CC9B216
:10417000D2B24029E7D30FE00998400840000990E7
:104180000AE0099A520852000992401CC0B2102855
:10419000CDD360464000195201A90A9802F04EFFA3
:1041A000002803D10998FD21084009900722002129
:1041B0000B9802F08BFF0028099802D1FB210840E0
:1041C0000990C04340070DD15B480A9920384170DF
:1041D0000B9901700C2201A92C3003F0D1FE049937
:1041E000009808700022032009999AE00D98012197
:1041F000025D5348641C02739140C1830022E4B203
:10420000114604208DE00D980726005D641C4106D0
:10421000490F0007000F069105900D99E0B20A5C66
:10422000401CC0B2095C401C090211430D9AC0B287
:10423000125C401C1504C4B20D4364204543414840
:104240000295016A28468847002812D03E488542D8
:104250000FD33E48854203E069E041E03AE02CE0BC
:1042600007D839483A4940422818FBF73BFF002954
:1042700000D0062605220021059802F027FF00281D
:1042800001D1FD20064003220021069802F01EFF06
:10429000002801D1FB200640F043400709D10498D3
:1042A00005990172244902982039486204990698B8
:1042B000487000223146052033E02148FF21C06DBF
:1042C000002804D00068002801D08047014606205D
:1042D000109A26E00021641DE4B20A46072020E07F
:1042E0000D98005D641C0007000FE4B2002800D1A7
:1042F0000120FCF723F9174E00223346FCF714F88F
:10430000FCF74EF90C4D203D2861FCF717F900220F
:104310003346FBF757FFFCF743F90022686111466B
:104320000820FCF7BBFB0F98844200D291E611B045
:10433000F0BD0000B4030020D4050020E8060020F2
:104340002C00002000880008E0F8D11DA067611E45
:10435000400D030000408F4001090A22000751432D
:10436000000F4018C0B27047002102E00A38C0B206
:10437000491C0A28FAD20907090E0843704770B58C
:1043800004460068C168490613D40021C943C160CE
:10439000FDF71CF87D260546F60006E0FDF716F849
:1043A000401BB04201D9032070BD2068C0684006A0
:1043B000F4D5002070BD000010B501210F4A0E4851
:1043C0004904516101688A68D2040AD5CA68D205D5
:1043D00007D5CA6880231A40FF3A823ACA60FDF7BF
:1043E0007AFBFF2101310448FDF779FB00F036F933
:1043F0000020FCF7E7FB10BDAC0D002000040140DD
:1044000070B51A4C002525716562A562E562E572FA
:1044100001206073A073E5732573E0836572A57254
:10442000E07013480146027838390A7040784870C5
:10443000084658304178383841705C38024680323E
:104440009169D2694266016601460C22A03168304A
:1044500003F096FDA571E5712572206A01E04562C1
:10446000806A0028FBD14020607570BD2C000020C0
:10447000EC05002010B5040007D0002000F036F94C
:10448000A04204D2001B401E10BD002010BD001B26
:1044900010BD00000FB4F0B58BB00C461C2212A961
:1044A0006846FBF75AFE10A8807C0A9010A8477C4B
:1044B000067C007B07905F48844202D2002C02D029
:1044C00002E0044600E001242046FCF737F85A4A8F
:1044D0005A4BFBF729FF0991089003F0A1FE04460F
:1044E0000D46099B089AFBF711FF0022544BFBF77E
:1044F0001BFF089053480991C068FCF70BF8099B13
:10450000089AFBF75FFEFCF727F84E49C860FF21C9
:10451000E731884218DB4B49FF38E738C860002292
:10452000494B20462946FBF74DFE04460D460BE05D
:104530000022464B20462946FBF7E8FE0446079832
:104540000D46401C80B207900022404B2046294671
:10455000FCF758F80AD8EBE700223D4B20462946E5
:10456000FBF7D4FE761C04460D46B6B20022384B4B
:1045700020462946FCF746F80AD8EDE70022354BDD
:1045800020462946FBF7C2FE7F1C04460D46BFB2FB
:104590000022304B20462946FCF734F8EED90A9821
:1045A000FBF7CCFF22462B46FBF70CFEFBF7F8FF90
:1045B00084B203E03C3C7F1CA4B2BFB23C2CF9D2D5
:1045C00003E03C3F761CBFB2B6B23C2FF9D205E007
:1045D000183E0798B6B2401C80B20790182EF7D24A
:1045E00010A8407B00281FD0164989794018800701
:1045F0001AD010A8C17A1848401E095C0798814259
:1046000002D2FBF76FFD079168468472477206720B
:10461000079901711C2269461098FBF79EFD0BB0AB
:10462000F0BC08BC04B0184710A8C17A0A480C3086
:10463000E2E700008AF61100713D0AD7A37000403E
:1046400000408F40D80000200000F03F0018F540E7
:104650000020AC4000004E40F086000810B51F4C12
:1046600098B06079002836D111A800F0E3F81C2238
:1046700011A90AA8FBF771FDFF2200230132694648
:104680001748FDF765FA684641783C204143684683
:104690000078E12212015043091868468078E1232E
:1046A000091808A8427C3C20424308A8007C1B0152
:1046B0005843121808A8807C1018401AFBF73EFFD8
:1046C000084A094BFBF730FE03F066FAFBF768FF78
:1046D000A0600120607118B010BD0000D80000205B
:1046E000AC0D00208BC058DFC024DF3FF0B50024A4
:1046F0008FB0254600280BD01C2201466846FBF7E8
:104700002CFD69460888497900260F18079113E0A7
:1047100007A800F08FF81C2207A9EFE7002E17D09A
:10472000B00715D0304B002220462946FBF74AFD42
:10473000761C04460D4636B2B742EFDC07980028D7
:1047400009D0B80707D06846C77800267F1E27E043
:104750000022264BE8E76846C77800267F1E0DE05A
:1047600023482449805D4843FBF7E8FE22462B4658
:10477000FBF728FD761C04460D46F6B2B742EFDC87
:1047800010E01B481B490C38805D4843FBF7D6FE00
:1047900022462B46FBF716FD761C04460D46F6B264
:1047A000B742EEDC6846817A407A3C2250430A18D0
:1047B0006846017AE12000014143684600790D4BCB
:1047C000584308181018FBF7B9FE22462B46FBF792
:1047D000F9FC094A094BFBF7A7FD03F021FDFBF7A4
:1047E000DFFE0FB0F0BD000038137E4150287E413F
:1047F000FC860008805101008BC058DFC024DF3FD9
:104800000B498B680022984205D94B78002B02D0C7
:104810004A708B68C01A8B68984202D9322801D23C
:104820008A70704701228A708968401A70470000B8
:10483000D800002010B588B004460022124802A912
:10484000FDF7E0F900A900220F480231FDF7B8F9A1
:104850000E496846CA8802804379632B05D00878E0
:10486000002809D0002B03D006E00120087003E0E7
:10487000002008706432CA801C2269462046FBF77B
:104880006CFC08B010BD0000AC0D0020D80000206A
:1048900010B50020FFF72AFF04460548FFF726FF62
:1048A000844202D2201A401E10BD201A10BD000002
:1048B000CC0D002010B50020FFF718FF10BD000040
:1048C00070B586B014216846FBF760FC0024204ECA
:1048D00005943079002839D11E48016A0122D2039B
:1048E000114301621C491D48012512C08460C46047
:1048F00045600921046101600838FDF7B1F9684697
:10490000C475457585750575002205A91348FDF721
:10491000AFFA68460470447084700194C4700494C3
:10492000002269460D480394FDF706FB0B48FDF78E
:10493000B5F8002211460220FCF79EFD0220FCF78C
:1049400091FD29020548FDF7CAF8357106B070BD22
:10495000D80000200010024000280040AC0D0020CC
:1049600010B50D484168C943C9070FD00B49012054
:1049700048700B4841680907890F04D04068000758
:10498000800F022801D1FCF755F910BD01680422FF
:1049900011430160EDE7000000700040D8000020E6
:1049A0000010024010B500F001F810BD30B5FF2432
:1049B00005460134A5B021462648FDF790F8254864
:1049C0000168C86880221040FF388238C8602249D8
:1049D000900248611DA8FFF72DFF1C221DA90FA8FA
:1049E000FBF7BBFB1B481C220FA92030FBF7B5FBD4
:1049F000142211A96846FBF7B0FB29461DA8109B9D
:104A00000F9AFFF747FD1C221DA916A8FBF7A5FB6F
:104A1000002168460C91C1750B91089109910A918A
:104A200018A8069181786846817518A8417868466B
:104A3000417518A801786846017510A8017F08A87B
:104A40000175002205A903480E94FDF77BF925B0F6
:104A500030BD0000AC0D00200004014070B50920FD
:104A600000F0D7FC0446062000F0D3FC0504072024
:104A700000F0CFFC00020543082000F0CAFC2843E8
:104A8000FBF75CFD0022184BFBF74EFCFBF788FDA3
:104A900005460021092001F0D1FA3B2000F0B9FCC5
:104AA0004026304301463B2001F0C8FA3B2000F08D
:104AB000B0FC8006FAD40D4800F0A0FD3B2000F0C9
:104AC000A8FC304301463B2001F0B8FA3B2000F03F
:104AD000A0FC8006FAD42146092001F0AFFA28464E
:104AE00000F08CFD70BD000080844E4000A1BC33FE
:104AF000FFB520480D468DB0405D1F4C0B9060689F
:104B00001F46169E8047002802D0002011B0F0BD3D
:104B1000E1680D98884719480021057101200A9025
:104B2000039104910691079108226B46099605911D
:104B3000089086C3A76903460B9A0F99B847104897
:104B4000C07C002802D00B480C3001E00948801DD1
:104B5000405D626D0D30C1B20A989047002E04D0BE
:104B6000616B002088470120D0E70648616BC06870
:104B7000F8E70000B486000800880008BC060020A2
:104B80002C000020B4050020704701207047000071
:104B90000349884201D280207047002070470000FE
:104BA00040DD4A1F0148007A70470000381000209D
:104BB000F3B5014600206B4C8DB000290BD00129C4
:104BC0007ED10025A06A2E46072850D0082851D053
:104BD000092854D151E02068FBF7B0FC06460F4687
:104BE0000E98FBF7ABFC02900191302000F011FC15
:104BF0004007800F02D000205B4901E00020014601
:104C000008900D46272000F004FC4007400FA188C3
:104C1000401C4018FBF792FCA279012A20D0002208
:104C2000514BFBF7CFFA2B46089AFBF7CBFA019BC7
:104C3000029AFBF7C7FA227A012A14D000221346FF
:104C4000FBF7C0FA0322FBF74FFC32463B46FBF76B
:104C5000D3FB0022454BFBF767FB03F0E1FA7DE055
:104C600000221346DDE7002201239B07E8E7002529
:104C70003F4E04E000253F4E01E03F4E0025E76A2D
:104C80000120B840FBF746FC02460B462846314659
:104C9000FBF7B2FB02460B4600203349FBF7ACFBA7
:104CA00005460E46608EFBF749FC0022334BFBF7AE
:104CB00089FA2A463346FBF737FB2A4C203400E0BA
:104CC0004EE003910890607C001DFBF737FC0791D4
:104CD0000490207C002800D00220381A8000FBF7C6
:104CE0002DFC099106900E98B900C000401AA17DD4
:104CF00009014018217D002900D01421401A1C30E0
:104D0000FBF71CFC099B069AFBF776FB02F044FFBD
:104D1000079B049AFBF708FB002207460C46134644
:104D2000FBF770FC02D23846214601E00020014624
:104D30000022134BFBF746FA2A463346FBF7F4FAF8
:104D4000039B089AFBF73EFA0022084BFBF7ECFAAC
:104D50000C4A0D4BFBF736FA02F0E6FFFBF720FC9E
:104D60000FB0F0BD581000200000F03F00408F4011
:104D70008084FE4080840E4180841E4100001140EA
:104D8000000020402B8716D9CEF7EF3F70B51949A8
:104D900008601949194801F08BFD1848164914306C
:104DA00001F086FD15481449283001F081FD00F01E
:104DB00085FBFFF753FE002000F090FC0D48001D1E
:104DC00000F040F80E4D002460002618A85D00F0A9
:104DD0004DFC70198178407801F030F9641CE4B220
:104DE000102CF1D3002000F041FC044800216C3865
:104DF000017270BDF00000200D530008A4100020C7
:104E0000208700087CB50124009400232246042159
:104E10000B480194FCF7E6F8002509482B462A4682
:104E20001021D03801950094FCF7DCF804480023E9
:104E30001A461A21C43801950094FCF7D3F87CBDBA
:104E40003410002010B504460368032201210548F0
:104E5000FCF7BDF90348032201210C306368FCF71D
:104E6000B6F910BD640F002070B514460E46054615
:104E700000F0FCFB304600F0C1FB052000F02EFCEA
:104E80000120FCF76DF8284600F0F6FA054600F020
:104E900003FFA54201DD002070BD012070BD0000B0
:104EA000F8B500256846057001228DA18D4802F0F5
:104EB0009FF88D4E307A012809D0022859D130460A
:104EC0006C3001F0C1FD707A01287DD1F9E0707A73
:104ED00000281AD001284CD14021122001F0AEF850
:104EE000122000F096FA69460870087881067E481C
:104EF00040300090002968DA2021122001F09EF84D
:104F00000098807E002876D083E0774C2034207A89
:104F1000012835D13F2000F07CFA694608700878F6
:104F200080072DD40B213E2001F088F810213F206E
:104F300001F084F82046603001F086FDA07A002858
:104F400018D00D2000F065FA402101430D2001F03A
:104F500075F82046743001F047FD64480068002869
:104F600003D00069002800D0804725756575258429
:104F7000E583F8BD5C48943001F066FD3572ECE7DE
:104F8000E18B5B4F00290AD1208C002807D1A07942
:104F9000002831D0322000F03CFAE083A17F208C41
:104FA000091AC9B2C01900F05FFAE08B20844E489C
:104FB000803001F049FDA07A002823D00D2000F0B8
:104FC00028FA4021014301E07FE02CE00D2001F0B0
:104FD00035F84548943001F007FD44480068002842
:104FE000C3D08668002EC0D01622A256E18B0023C3
:104FF0003F48B047B9E70BE03B4801213E3000F0A5
:1050000033FACBE738483572943001F01DFDE4E700
:1050100035723548803001F017FD344800680028AB
:10502000A7D0006957E0192000F0F3F92E4C40B2E8
:1050300060342071010605D5C043401C0006800E77
:10504000474201E00006870E1A2000F0E2F92649E7
:10505000284A6039C96E002F09DA914203D901113B
:105060000818C01907E001110818C01907E091429B
:1050700003D9011108189D3802E001110818A4385D
:10508000E080132000F0C5F920720146184800F0B6
:10509000EBF90098807E002800D1357212488030EC
:1050A00001F0D2FC114800680028B9D08568002DB5
:1050B000B6D004230622E356A25E217A0C48A84704
:1050C000F8BD0821122000F0B9FF084835720068C9
:1050D0000028F5D000680028F2D08047F8BD000015
:1050E000300000002009002038100020F0000020CF
:1050F000580E002040DD4A1FF8B5012232A1334886
:1051000001F076FF324E334F3446E03C2546307A8C
:10511000FF35FF3421350134012811D0022826D172
:10512000707A002823D1E18B208C0A1AE9788A4210
:1051300044DDC01900F0AAFF208CE97840183BE05C
:10514000707A002814D0012811D12148803001F054
:105150007BFC8021122000F071FF002030721E487D
:105160000068002803D0C068002800D08047F8BD40
:10517000E08B002809D1208C002806D1A0790028D6
:105180000FD0322000F045F9E083E18B208C0A1A21
:10519000A9788A420BDDC01900F066F9208CA97845
:1051A000CCE70B4801213E3000F05EF9EDE7D1B2CB
:1051B000C01900F059F905E02084F8BDD1B2C0193A
:1051C00000F064FFE08BF7E73100000020090020C9
:1051D00038100020580E0020F000002070B52C4838
:1051E0002C4C0246037A4032417AD07D012B04D008
:1051F000022B01D1002902D170BD002916D001294E
:10520000FAD10128F8D10221122000F017FF2068FE
:105210000028F1D040690028EED01C2000F0F9F8F9
:10522000216880064969800E884770BD1848184C6F
:10523000E038006C01252034002827D0207D01288B
:10524000F3D1607D0028F0D11148943001F0FCFBCF
:105250006575112000F0DDF840084042A0751B2064
:1052600000F0D7F805021C2000F0D3F82843FBF724
:1052700065F90022084BFBF757F8FBF76DF9A061C1
:105280000C2000F0C6F84009207770BD2575D8E7DE
:1052900038100020F000002080844E4010B51248E5
:1052A000407A00281FD001281DD1122000F0B1F84B
:1052B0000E4CC0070BD00521122000F0BFFE206865
:1052C000002810D0816900290DD001200AE00421B6
:1052D000122000F0B3FE2068002804D08169002964
:1052E00001D00020884710BD38100020F0000020B9
:1052F0000548407A002806D103482030017D002966
:1053000001D101210175704738100020F8B52E4EEB
:10531000307A01282BD0022828D100F0CFF8FFF7EF
:105320009DFB002000F0DAF9284D002460002718CA
:10533000E85D00F09BF978198178407800F07EFEF6
:10534000641CE4B2102CF1D3002000F08FF91E4849
:105350006030007800F0DAF9002030721C480068F4
:10536000002803D04068002800D08047F8BD707A3C
:10537000002816D1144D002420352C756C752C8412
:10538000EC830B213E2000F059FE10213F2000F05D
:1053900055FEA87A01280AD028463472743001F0EC
:1053A00053FB0B4800680028E0D0C068DBE70D2005
:1053B00000F02FF8402101430D2000F03FFE02488D
:1053C000943001F011FBECE7381000202087000832
:1053D000F000002070B50025012000F047F9FF2102
:1053E000112000F02BFE052000F078F900240120A8
:1053F000FBF7B6FD2C2000F00CF8C007C00FA04052
:10540000641C0543E4B2202CF1D300F045FC28468F
:1054100070BD08B50122694600F004F868460078BE
:1054200008BD0000F8B504460E460E48154600219A
:105430000090FBF7D5FE0B4861068838490E0746F9
:1054400001F0E6F8002406E00021384601F0E0F81B
:105450003055641CE4B2AC42F6D301210098FBF74E
:10546000BFFEF8BD341000200A4610B501460020EA
:10547000FFF7D8FF10BD000010B5002804D00128A8
:1054800008D00020C04310BD1120FFF7C2FF400824
:10549000404210BD07480849C06E884204D91B200D
:1054A000FFF7B7FF9D3810BD1B20FFF7B2FFA438F0
:1054B00010BD0000D80F002040DD4A1F1CB500249D
:1054C000009423460122112109480194FBF78AFD2B
:1054D0000120FBF745FD0120002301901A46112110
:1054E00000940348FBF77EFD0620FBF739FD1CBD49
:1054F000580F002073B53A4C3949E03C2546064622
:10550000497AFF35FF34002021350134002902D0CB
:10551000012962D126E00020208468460179E183D8
:10552000A079002809D0322000F088FD6846027971
:10553000501E3F2806D8EA700AE0012101A800F0B9
:10554000A5FDF3E73146274802F01AFD2020E87058
:10555000E978304600F09AFD208CE97840182084E4
:10556000E0683AE0687EBE25012821D03320FFF7AD
:1055700050FF2840411C332000F060FD1D213B20DE
:1055800000F05CFD68460179154860300172222008
:1055900000F054FD00210E2000F050FD00210D20F0
:1055A00000F04CFD0120FFF734FF40070AD00EE069
:1055B0003320FFF72EFF28400146332000F03EFD48
:1055C0001921DCE700F07AFB0120FBF7C9FC6846F3
:1055D0000179304600F05AFDE06B00F081FB7CBDA4
:1055E00038100020580E00207047000002490A7849
:1055F000824200D0087070470C01002010B50D49A0
:10560000C866FAF79BFF00220B4BFAF7F5FEFAF794
:10561000C7FF04460002010E062000F00FFD200423
:10562000010E072000F00AFDE1B2082000F006FD9F
:1056300010BD0000D80F002080844E4070B50D468C
:10564000044600F013F8002C04D0012C0AD129469E
:10565000232005E004488079002803D12946322020
:1056600000F0ECFC70BD00005810002010B504469E
:105670000120FFF7CEFE01061748002901DA0121BB
:1056800000E000214172C9B2A14224D04472012C31
:105690000FD000F001FB0120FFF7BBFE4106490ED1
:1056A000012000F0CBFC0021402000F0C7FC30219D
:1056B0000EE000F0F1FA0120FFF7ABFE802101437C
:1056C000012000F0BBFC0021402000F0B7FC0021CD
:1056D000412000F0B3FC10BD3810002010B50400CC
:1056E0000FD00020FFF782FF2046FFF77DFF01204B
:1056F000FFF78FFEC108C9002143012000F09EFC86
:1057000010BD0120FFF772FFF1E7000010B504465D
:105710000120FFF7ABFF0548002C047001D03421B5
:1057200000E01221392000F089FC10BD9810002003
:1057300070B504460920FFF76CFE06464D20FFF7C2
:1057400068FE05462148C06EFFF722FA7106490E31
:10575000084370210843C1092AD0112C02DD07211A
:105760000D4302E0ED08ED002D1DE943490703D08C
:10577000022C0CDA02240DE0052C01DA052402E0EB
:10578000142C00DD142401090901641F05E0112C0B
:1057900000DD112401090901A41E2007000F0143A7
:1057A000092000F04BFC29464D2000F047FC70BD5D
:1057B0000021C9438C4201DA0C4602E00E2C00DDC8
:1057C0000E2401090901641CE7E70000D80F00203E
:1057D000F1B5834F00263C46E03C2546787AFF35FC
:1057E000FF3421350134002802D0012823D123E0E1
:1057F000A67A4020FFF70DFE8107890F40200C316B
:1058000000F01CFC4120FFF704FE3E210840014649
:10581000C131412000F012FC3520FFF7FAFD80066F
:10582000800EA8701E210D2000F008FC00202075BD
:1058300060752084E08394E0687E012827D03320BF
:10584000FFF7E7FDBE210840411C332000F0F6FBC6
:105850001D213B2000F0F2FBA06A09287ED23120F6
:10586000FFF7D7FD4106490E312000F0E7FB00218C
:10587000302000F0E3FB5A4EA06A603E030001F0C6
:105880006AFC09101A242E38425252525600332014
:10589000FFF7BFFD41210143332000F0CFFB192169
:1058A000D7E748212F2000F0C9FBF06EFAF746FE3B
:1058B00000224C4B30E044212F2000F0BFFBF06E63
:1058C000FAF73CFE0022484B26E044212F2000F04E
:1058D000B5FBF06EFAF732FE0022444B1CE0442187
:1058E0002F2000F0ABFBF06EFAF728FE0022404BB1
:1058F00012E044212F2000F0A1FBF06EFAF71EFE0B
:1059000000223C4B08E044212F2000F097FBF06E72
:10591000FAF714FE0022384BFAF754FCFAF740FE6F
:10592000FFF76CFE03E040212F2000F087FBE87DAD
:10593000AE7E012836D01F21112000F07FFB4020D1
:10594000FFF767FD8106890E402000F077FB0021FC
:105950000F2000F073FB00210D2000E01BE000F0A1
:105960006DFBFF2101312548FAF710FC0120387248
:105970000098002808D001461948803001F02CF822
:105980001748803001F030F8787A002814D0002EC3
:1059900021D0052020E03120FFF73BFD802101438D
:1059A0003120C2E71D21112000F048FB4020FFF705
:1059B00030FD33210140C7E70520FFF78FFE002EA1
:1059C00008D107482169943001F006F80448943062
:1059D00001F00AF8F8BD0620FFF780FEF8BD0000D0
:1059E000381000200082BE40005AC4400082CE40E1
:1059F0008057D4408084DE40C058E440580E0020D8
:105A0000FFB589B016460D460746FFF72FFE1398DF
:105A1000000A07909A48C41D8030F9340190002F85
:105A200004D0012F7BD1022D7BD9FEE7856726604C
:105A300001991298C8671598A0711698E071179887
:105A400020721A9860721B98A0721398A08030463A
:105A5000FAF774FD06460B4601913246002089494B
:105A6000FAF7CAFC0322FAF73FFD0746059114989E
:105A7000FAF764FD3A46059BFAF756FC0022824B82
:105A8000FAF752FCFAF78CFD2061324600207F497C
:105A9000019BFAF7B1FCFAF783FD84B2210A0220D8
:105AA00000F0CCFAE1B2032000F0C8FA2846FBF778
:105AB00083FA0146122000F0C1FA1298FBF77CFA33
:105AC0000146132000F0BAFA2520079900F0B6FA33
:105AD0001398C1B2262000F0B1FA1598002801D021
