:020000040800F2
:1000000048150020C900000889370008812A000827
:1000100000000000000000000000000000000000E0
:10002000000000000000000000000000EB5200088B
:10003000000000000000000013430008E56F000806
:10004000DB0000080000000079490008DB00000820
:10005000DB000008490F0008590F0008690F00086D
:1000600000000000DB000008DB000008DB000008E7
:10007000DB000008DB000008DB00000800000000D7
:10008000DB000008DB00000800000000DB000008C7
:10009000DB000008DB000008DB000008DB000008D4
:1000A000DB000008DB000008DB000008C176000868
:1000B000DB0000080348854600F0C8FB0048004705
:1000C000F18600084815002004488047044800478E
:1000D000FEE7FEE7FEE7FEE7FEE7FEE7F170000859
:1000E000B500000830B50B4601460020202201244F
:1000F00009E00D46D5409D4205D31D469540491B5C
:100100002546954040191546521E002DF1DC30BDA4
:1001100070B500242546002801DA01244042002958
:1001200001DA01254942FFF7DDFFAC4200D0404231
:10013000002C00D0494270BD10B5202A04DB0846CF
:10014000203AD040002110BD0B46D340D04020249F
:10015000A21A91400843194610BD03460B439B0762
:1001600003D009E008C9121F08C0042AFAD203E02C
:100170000B780370401C491C521EF9D27047D2B252
:1001800001E00270401C491EFBD270470022F6E7D6
:1001900010B513460A4604461946FFF7F0FF2046FD
:1001A00010BD421C0178401C0029FBD1801A704709
:1001B0000321001D401E037812021A43491EF9D57F
:1001C00010467047F0B507460846584087B0C00F44
:1001D000049048000E46590040084908BC1A88415E
:1001E00005D2384631461E4617460B460246580091
:1001F000400810434CD0300D039040055900400D8D
:10020000490D0590401A0290402872DA1803012126
:10021000000B09050843019004980092002805D0BE
:100220000199524200208841009201900298402199
:100230000A1A0199009800F029FA05460C466B4607
:1002400007CB00F033FAC0197141039A0E0D002359
:10025000D71756401A467A40164344D0049A002ACB
:100260002DD0029A012A039A15DC1205C01A914179
:1002700001263605001C7141D20F059ED20700935E
:10028000019202962A46234600F030FA07B0F0BDEC
:1002900038463146FAE71605224A0F46B218C01A08
:1002A000B74101210905001C4F4100187F4111464B
:1002B00018187941E20F10436D19644113E0E20709
:1002C0006D0815436408C2071443039A01261205FA
:1002D000C01A91413605001C7141CE0740083043D9
:1002E0004908C01851412A46234600F0F2F9CDE7EB
:1002F000FFE7049801224000C117121A00238B4126
:1003000004983146C417381AA141EEE730B40124ED
:10031000E407634030BC55E730B40124E407614092
:1003200030BC4FE70000E0FFF0B51FB488B00B9978
:100330000998002448400999C00F490049080991CB
:10034000C0070B990090490049080B91099908983A
:10035000A64608431CD00B990A98084318D0099860
:1003600001244000420D4800410D09982405000376
:10037000000B204309900B980003000B20430B90C7
:1003800050181C494018002201901446104605E000
:10039000002001460DB0F0BD032801DA034600E05D
:1003A00003239C46C11A0AAE0AE05F0008ADED5B6C
:1003B0004F00F75B7D430027AA187C41491C5B1E58
:1003C0006145F2DD410004AB5A522104120C0A438C
:1003D000240C401C0828DFDB01980290009970462D
:1003E00001910090059B049A0799069800F07EF908
:1003F000D0E700000DFCFFFFF0B50C465C4085B077
:10040000E40FE40703944C00002664085900944666
:10041000490802460296224321D062460A431ED072
:100420006200570D4A000E032303550D01240246B6
:100430002C492405781B1B0B360B401823432643FD
:10044000614600901C46501AB44103D30098401CEA
:10045000009002E0921800985B41002803DA002027
:10046000014605B0F0BD002001210905074686467A
:1004700011E064461D46141BB54106D36546521B68
:10048000B341744607430C43A646CD0740084908CC
:10049000284392185B4105460D43EAD110461843A4
:1004A00013D06046194650407140084306D060465C
:1004B000101AB34106D20122002306E000220123D4
:1004C000DB0702E00122D243531000987446010575
:1004D000381C6141029C039D0019694100F0F9F844
:1004E000BFE70000FD03000070B54B005B0803434D
:1004F0000BD04B005C0D002633466542B341D41748
:10050000AD1AA34102DB0020014670BD1205301870
:10051000514170BD0EB5C217C10F5040CA074018F7
:100520000021054B0293019200910A460B4600F010
:10053000DDF803B000BD0000330400000EB505492E
:100540000291002100910A460B46019100F0CEF87D
:1005500003B000BD3304000070B5CD0F4A0009039D
:100560000123090B1B0519430B4BED070024520D0A
:100570009A4201DA002070BD074B34339A4203DC03
:100580009A1AFFF7D9FD02E00449511888402C431C
:10059000F1D0404270BD0000FF030000CDFBFFFF23
:1005A0004A0009030123090B1B051943094B10B528
:1005B000520D9A4201DA002010BD064B34339A42A4
:1005C00003DC9A1AFFF7B8FD10BD034951188840A3
:1005D00010BD0000FF030000CDFBFFFF10B5002998
:1005E00004DB0124E40740428C412146002B04DB5C
:1005F0001C460123DB075242A3418B4200D18242B9
:1006000010BD000010B5002904DB0124E4074042BE
:100610008C412146002B04DB1C460123DB075242A0
:10062000A341994200D1904210BD0000F0B51FB423
:100630000646002082B005464024019100901BE050
:10064000019922460F463046FFF776FD049A059B36
:10065000801A994110D310461946224600F016F828
:10066000361A8F410197224601200021009F00F099
:100670000DF838184D4100902046641E0028DFDC3C
:10068000019B00982946324607B0F0BD10B5202ADC
:1006900004DB0146203A9140002010BD9140202308
:1006A0009C1A0346E3401943904010BD10B5202A20
:1006B00006DBCB170846203A1041C1170B4306E072
:1006C0000B461341D0402024A21A914008431946FA
:1006D00010BD10B5002B08DA0024401C61419218AF
:1006E0005B411A4301D14008400010BDF0B51FB472
:1006F00082B005460C0003D0084607F06BF902E013
:1007000007F068F920300246009021462846FFF79E
:10071000BDFF049B059A04460F4618431143084346
:1007200014D0184610431BD0009840210A1A1846CE
:100730000599FFF701FD05460E46009A05990498B4
:10074000FFF7A4FF084305D0012004E02046394606
:1007500007B0F0BD0020C11705430E432C433743BB
:1007600000990E986305401A7905E40A00220C43AB
:10077000FD0A0A3002D500200146E9E701051019FB
:1007800069410C9C0D9D00196941FFF7A2FFDFE74D
:10079000F8B50546480040080C46284304D06000E0
:1007A000184A400D904201DD2846F8BD15493539FB
:1007B000884210DC88420BDB290D20030843290303
:1007C000014305D0E00F1049C00741180020F8BDD3
:1007D00000200146F8BD161A4020821B28462146FB
:1007E000FFF754FF07460091284621463246FFF79F
:1007F000A3FC3A46009BFFF76CFF3246FFF746FF2B
:10080000F8BD0000330400000000F03F4A00090377
:100810000123090B1B0519430A4B10B5520D9A42CF
:1008200002DA0020014610BD064B34339A4203DC45
:100830009A1AFFF781FC10BD034BD218FFF726FF71
:1008400010BD0000FF030000CDFBFFFF064C01259B
:10085000064E05E0E36807CC2B430C3C9847103468
:10086000B442F7D3FFF72AFC7C9100089C91000862
:10087000F0B589B00C46074610220021684608F002
:1008800027F869462246084607F033FD6846007897
:1008900087260106684600290FDA00214318425CCA
:1008A0005B785200DB091A434254491C0F29F5DBDF
:1008B000C17B0246490071400DE000214318425CB3
:1008C0005B785200DB091A434254491C0F29F5DBBF
:1008D000C17B02464900D173E21DF93251691029EA
:1008E00012D0017809061BD500214518435C6D78AC
:1008F0005B00ED092B434354491C0F29F5DBC17BF9
:1009000003464900714019E000216218FF320132AC
:100910005378455C491C6B4053701029F5DB26E089
:1009200000214518435C6D785B00ED092B4343546F
:10093000491C0F29F5DBC17B03464900D973E11D32
:1009400055698023FA316B54002500E05D545369EA
:100950005B1C5361102BF9D300216218FF32013266
:100960005378455C491C6B4053701029F5DB00211E
:1009700062181046FF32E0300132437C5278491C45
:10098000534043741029F3DB21461022F13104A8AF
:1009900007F086FF2246394604A807F0AAFC102279
:1009A0000021684607F094FF09B0F0BD10B5044679
:1009B00010220021F13007F08BFFFF2000211530BD
:1009C0000151F022204607F083FF10BD0B4610B501
:1009D00002461021184607F0B7FC10BDF0B50446DA
:1009E000FF308BB00F4601300890E11D4069FA31AD
:1009F0000091103915460791002843D010210E1A96
:100A0000AE4200D316460099B2B24018394607F0FC
:100A100047FF0898089940698019486110283AD31F
:100A2000B54238D0002162181046FF32E030013262
:100A3000437C5278491C534043741029F3DB0799D7
:100A40002246084607F055FCBF19AD1B1AE00020EE
:100A50002118E0314A7C3B5C401C5A404A74102803
:100A6000F6DB102202A8079907F01AFF02A9224616
:100A7000084607F03EFC102202A9079807F010FF75
:100A8000103D1037102DE2D8AAB23946009807F071
:100A900007FF089845610BB0F0BD0000F7B51F498E
:100AA0000F22897A1D4B511ACDB2597A9B7A0F26A3
:100AB000F31A0A46DEB2871E491C0124C9B2761E0B
:100AC0003B0006F09EFF07050B050B150B052900E3
:100AD000124BAA421ED2124CA05407E00F4BB24256
:100AE00018DA0F4CA05401986054491C59720DE05B
:100AF0000A4BAD1EAA420DDA094CA054019860546D
:100B0000491CC8B202992154401C58720024034861
:100B1000012101722046FEBD0220FEBD2C000020F6
:100B2000FA03002070B51646144A01240025145714
:100B3000002820D000231248002C0BD0C06A402887
:100B400001D301251370602815D3C006C00E0128FB
:100B500002D010E0C3620EE0002C0CDD641E64B213
:100B6000002C08D1002906D004490C226431084623
:100B7000383807F095FE3470284670BD18060020FE
:100B80002C00002070B5054600243021FFF7AAFA9A
:100B900000290CD0E8060CD018212846FFF7A2FA4D
:100BA000002908D0280708D0680708D00524204667
:100BB00070BD0124FBE70224F9E70324F7E70424CE
:100BC000F5E7000010B5040001D004F097F90148E2
:100BD000C47010BDD800002072B602488178491C4C
:100BE00081707047D000002004498878401E0006BC
:100BF000000E887000D162B670470000D00000205F
:100C000010B5054900208880FF24214603A000F08C
:100C100081F9204610BD0000D0000020626174748C
:100C20006572794C6576656C2069732025640D0AC0
:100C30000000000070B5394C0025207886B00028EF
:100C400048D006F02BFA0126760232463449354860
:100C500000F0B8F93349324624310846303800F004
:100C6000B1F930493048283948632E480A2309220F
:100C70000021283806F042FD2A48E122009501951E
:100C80000023520202212838029506F021FD00209F
:100C9000C0430090052306220721244806F0F2F8FD
:100CA00004F060FC2078002835D1012020706078A5
:100CB000002830D11B481E49103006F04FFA194861
:100CC0007D21C900103006F0DDFA1648103006F01C
:100CD000E1FA1DE000F0D6FB06F08AF904F0C2F854
:100CE0000095002303220B2102A8019500F0A8F92A
:100CF0000095002303220C2102A8019500F0A0F921
:100D000000F0B0FA00F0A6FA9DE70A2000F018F90A
:100D100060780028F9D006B070BD0000D000002037
:100D2000D00B0020AC090020DD8600081010002048
:100D30000938000870470000F8B5C1001C481D4E76
:100D40000F1878790C214843355A0022811934460E
:100D5000683C8A60207900280FD0207D002804D0CC
:100D6000A06B02466A43101A8860E18BA06B414376
:100D7000081A616D40186065F8BD206B06F0EAF94D
:100D80000D49884201D2642006E00C49884202D213
:100D90007D20C00000E00A48854200D92846A16BAA
:100DA0000C224843411A7879504380198160DCE76E
:100DB000180400209400002080EE3600803F5C0282
:100DC00010270000F7B586B000200D460090019076
:100DD000694602900D704149AA008958404A012491
:100DE0008B18002B05D0D34200D102206A465070E8
:100DF00001E0684644700846FFF7A0FB0746374805
:100E00000E462438405D84402046FFF783FB3A4677
:100E10003346FFF7F1FA0022324BFFF785FA04461A
:100E200008980D464000FFF789FB07462E480491BD
:100E30000391067A70000838FFF76CFB22462B46B8
:100E400002910190FFF770FA3A46039BFFF7BAF957
:100E500022462B46FFF7D0FA07F0F4FAFFF7A0FB83
:100E6000B04215D904993E460F4622462B460299B8
:100E70000198FFF759FA32463B46FFF7A3F922469D
:100E80002B46FFF7B9FA07F0DDFAFFF789FB00E020
:100E900030460190FFF752FB22462B46FFF744FAFB
:100EA0000022D243FFF720FB0E46074602222046CF
:100EB0002946FFF719FB3A463346FFF727FA002287
:100EC0000A4BFFF723FA07F0BDFAFFF745FB029044
:100ED0006E460ECE06980EC009B0F0BDF88F000821
:100EE000702FFCFF00408F40180600200000F03FEC
:100EF00030B5034600200246012507E02C46944009
:100F00009C4301D1401CC0B2521CD2B28A42F5D3DC
:100F100030BD00000FB400B5B3B035AA68463499AF
:100F200006F046FD6846FFF73CF9C2B26946034841
:100F300006F0B4FC33B008BC04B0184784090020A4
:100F400010B500F0BBF910BD10B5012000F0D6F9C6
:100F5000022000F0D3F910BD10B5042000F0CEF946
:100F6000082000F0CBF910BD10B5102000F0C6F934
:100F7000202000F0C3F9402000F0C0F9802000F0EC
:100F8000BDF9FF20013000F0B9F90120400200F066
:100F9000B5F90120800200F0B1F90120C00200F093
:100FA000ADF90120000300F0A9F90120400300F091
:100FB000A5F90120800300F0A1F90120C00300F091
:100FC0009DF910BD0023038043804160028170477A
:100FD00010B50A460189501CFFF784F888B210BD8D
:100FE00070B504460188FFF7F3FF61680D5C218846
:100FF0002046FFF7EDFF2080284670BD70B50D46F6
:1010000004464188FFF7E4FF608061680D5470BDBD
:101010000120704710B5094A0021CB00D458844202
:1010200007D89B189B68834203D9C80080180079B1
:1010300010BD491CC9B21529EFD3FEE77090000816
:101040007CB50E11079D069C062E03D801950094D1
:1010500000F002F87CBD0000F0B587B00D9D04469D
:101060000170481C51D00F0701203F0F0646BE40BB
:1010700066800E062649370F1DD0360F012E21D06F
:10108000022E24D0234E66604F69060537434F6118
:10109000496931400591618800910C99A1720291D2
:1010A00003210391002A17D0032A18D0022A18D04E
:1010B000012B1ED01EE00926F60666604F69012648
:1010C0007604E3E7144E66604F693602DEE7134E9E
:1010D00066604F693602D9E70020019011E0019166
:1010E0000FE0012B03D002200495019009E01220AB
:1010F000FAE711200190012A03D12946204600F089
:1011000089F86946606800F005F907B0F0BD000095
:1011100000100240000C004800040048000800488D
:10112000FFB50025052685B01F460446002B65D077
:1011300060880090012915D0022915D0314801900E
:10114000A07A0290032003906946606800F0E2F8FC
:10115000079800280AD0012808D0022808D00328C0
:1011600009D107E02848EAE72848E8E7032502E034
:10117000022500E001256188FF220132881A914290
:101180002ED012DC10292BD008DC012929D002290D
:1011900027D0042934D0082923D131E020291FD0B9
:1011A00040291DD080291CD11AE00F210902421AC2
:1011B000884215D009DCFF38401E11D0FF38FF38B7
:1011C000801E0DD00121890208E001200003101AC1
:1011D00006D001214903401A02D04900884200D1BB
:1011E000072620780A490007800E0F500022294662
:1011F000304600F08FF9304600F082F909B0F0BDBA
:101200000626EEE70000311000001110000021104A
:10121000D00D002010B500228256702A06DA521C2A
:1012200004D0CAB24188406800F018F910BD10B56A
:10123000002404572411062C01D8FFF771FF10BDBC
:1012400010B5002282561211062A01D8FFF7E2FFDC
:1012500010BD0000024841680422114341607047FC
:101260000058014002484168022211434160704722
:101270000058014070B50024014620314A78022A06
:1012800003D004218163012416E0026813680E254F
:10129000AB431360026813685B085B0013600122B4
:1012A000056C1346AB40C56B6B604A7000220A7038
:1012B000416B002900D08847204670BD31B500F051
:1012C000D3F8009C0546601C00D0641C00F0CCF8EC
:1012D000401BA042FAD338BD0021002803D104E00E
:1012E0004008491CC9B20128FAD103488900405876
:1012F000002800D000477047D00D002010B50449E9
:101300004A69024202D04861FFF7E6FF10BD0000C3
:1013100000040140F8B500238DE001249C40A44660
:1013200022407DD04C68022C01D0122C0CD1DC085C
:10133000A40027183C6A5D07ED0E0F26AE40B443AB
:101340000E69AE4026433E6205685E000324B44049
:101350000F79A543BF07BF0FB7402F4307604D6804
:10136000012D05D0022D03D0112D01D0122D0ED14B
:101370008568CF68A543B7402F43876047686546B7
:10138000AF430D79ED06ED0F9D403D434560C568C7
:10139000A5438C68B4402C43C4604C68E40049D534
:1013A000284CA56901263543A561A4699D083440F0
:1013B0000094254CAD002F19BC689D072E0F0F25FA
:1013C000B540AC430925ED06A84201D100250FE048
:1013D0001E4DA84201D101250AE01D4DA84201D1B0
:1013E000022505E01B4DA84201D1032500E005259B
:1013F000B5402543BD60184C25684E689543F603FB
:1014000000D51543256065684E689543B60300D541
:1014100015436560A5684E689543F60202D500E065
:1014200008E01543A560E5684E689543B60200D50F
:101430001543E5605B1C0A681446DC4000D06CE78D
:10144000F8BD000000100240000001400004004808
:1014500000080048000C004800040140002A01D0A8
:1014600081617047816270470148006870470000E1
:10147000CC00002002480168491C01607047000050
:10148000CC00002010B5064801681022114301600D
:10149000002000F007F800F017F8002010BD000051
:1014A0000020024010B5044600F04AF97D21C90031
:1014B000FEF718FE01F012F900222146501E00F03E
:1014C00029F8002010BD000008B50C4881690122F0
:1014D00011438161816911400091C26901040A438D
:1014E000C261C0690022084000901146042000F04B
:1014F00011F8042000F004F808BD000000100240BC
:10150000C106C90E012088400149086070470000EB
:1015100000E100E010B502F039F910BD02480168A1
:10152000821511430160704700700040F8B5054610
:101530000068354CC00352D5E0690026C00007D4CE
:10154000E16920040143E161E16901400126009164
:101550002E480168C90510D4016882151143016045
:10156000FFF782FF074604E0FFF77EFFC01B6428F9
:1015700024D826480068C005F6D5206A03273F0214
:10158000384020D06968394081421CD0206A226AE4
:10159000B843012109040A432262226A8A43226273
:1015A0002062C0070FD0FFF75FFF009008E0FFF751
:1015B0005BFF0099411A1648814201D90320F8BD0A
:1015C000206A8007F3D5206A6968B843084320621F
:1015D000002E04D0E169012000078143E1612878F1
:1015E000C00705D0206BA9688008800008432063ED
:1015F0002878800605D5206B10218843E9680843C8
:1016000020630020F8BD0000001002400070004080
:1016100088130000F8B5054644480E460068C00728
:10162000C00FB0420AD2414801684908490031431D
:1016300001600068C007C00FB0425CD128783C4C04
:10164000800705D56068F0218843A9680843606079
:101650002878C0073FD06868012813D02168022885
:1016600013D08907002946DA616889088900014397
:101670006160FFF7F9FE6968074601290DD002296C
:1016800017D024E021688903ECE78901EAE7FFF736
:10169000EBFEC11B2748814217D860680007800F06
:1016A0000128F4D117E0FFF7DFFEC11B214881427A
:1016B0000BD860680007800F0228F4D10BE0FFF719
:1016C000D3FEC11B1B48814201D90320F8BD6068CD
:1016D0000007800FF3D115480168C907C90FB1424F
:1016E0000BD9016849084900314301600068C0070F
:1016F000C00FB04201D00120F8BD2878400706D5C0
:101700006068072109028843E9680843606000F0C7
:101710002DF86168084A0906090F515CC84007495D
:1017200008600020FFF7BEFE0020F8BD0020024048
:10173000001002408813000028900008EC000020F0
:101740000148006870470000EC000020044805498B
:1017500000684968044A4905490F515CC840704710
:10176000EC000020001002403890000810B512A3D1
:101770000FCB88B06C460FC413A30FCB0FC4164910
:101780004A680C20134603401448042B0FD0082B42
:101790000DD193021B0F6C46E45CC96A04AB0907C8
:1017A000090F595CD20304D5FEF79CFC604308B0D6
:1017B00010BD0B486043FAE7020304050607080959
:1017C0000A0B0C0D0E0F101001020304050607088A
:1017D000090A0B0C0D0E0F100010024000127A00C7
:1017E00000093D00FEB504460078D04DC00747D043
:1017F00068680007800F012807D068680007800F1D
:10180000022809D16868C00306D52868800337D547
:10181000606800287ED033E0012062680004012A5D
:1018200011D08100002A01D0052A10D02A688243F5
:101830002A602868884328606068002814D0FFF771
:1018400013FE06460CE0296801432960F4E72A6884
:101850000A432A60F7E7FFF707FE801B64286FD86A
:1018600028688003F7D50BE0FFF7FEFD064604E08D
:10187000FFF7FAFD801B6428F1D828688003F7D4AD
:1018800020780126800700283BDA68680007800F6F
:1018900007D068680007800F022809D16868C00374
:1018A00006D42868800715D5E068012832D111E0F8
:1018B000E0680028286815D030432860FFF7D4FD81
:1018C000074604E0FFF7D0FDC01B0228C7D82868F0
:1018D0008007F7D52868F82188432169C9000843A3
:1018E00028600EE0400840002860FFF7BDFD074675
:1018F00004E0FFF7B9FDC01B0228B0D828688007B4
:10190000F7D42078000724D5E0690028686A10D051
:10191000304300E008E16862FFF7A6FD074604E0F7
:10192000FFF7A2FDC01B022899D8686A8007F7D587
:101930000FE0400840006862FFF796FD074605E0AB
:101940009DE0FFF791FDC01B022888D8686A8007D8
:10195000F7D4207804274007002860DA002001909F
:10196000E869C00008D4E969B8060143E961E9699A
:1019700001400120009101906D480168C90511D412
:101980000168821511430160FFF76EFD009005E0CC
:10199000FFF76AFD0099401A642870D8644800680F
:1019A000C005F5D5A06801280AD0002801D0052877
:1019B00010D0286A400840002862286AB84301E035
:1019C000286A30432862A068002812D0FFF74CFD37
:1019D00000900AE0286A38432862F1E7FFF744FDE7
:1019E0000099411A5348814249D8286A8007F5D5A1
:1019F0000DE0FFF739FD009006E0FFF735FD009997
:101A0000411A4C4881423AD8286A8007F5D4019897
:101A1000002804D0E969012000078143E9612078AA
:101A2000C00635D5606901280CD0401D686B23D0F5
:101A300038436863686B400840006863FFF714FD33
:101A4000064622E0686B38436863686B304368631E
:101A5000FFF70AFD064604E0FFF706FD801B02289B
:101A60005BD8686B8007F7D5686BF8218843A1695C
:101A7000C900084368630BE0B8436863F4E74CE0CF
:101A8000FFF7F2FC801B022847D8686B8007F7D469
:101A9000206A002846D069680907890F022943D0C7
:101AA000012636060228286805D0B0432860FFF7D3
:101AB000DBFC044633E0B0432860FFF7D5FC074663
:101AC00004E0FFF7D1FCC01B022826D8286880015B
:101AD000F7D4E86AE16A000900010843E862616A34
:101AE000A06A084369683D22120491430843686074
:101AF000286830432860FFF7B7FC044604E0FFF78E
:101B0000B3FC001B022808D828688001F7D509E03B
:101B1000FFF7AAFC001B022801D90320FEBD28689C
:101B20008001F5D40020FEBD0120FEBD0010024062
:101B3000007000408813000010B5017F012916D005
:101B400001210177022242770368CA225A620368A0
:101B500053225A62026893682024234393600368E7
:101B6000FF225A62417700210177084610BD02200A
:101B700010BD704710B5044600688168C9040CD5D3
:101B8000C068C00509D52046FFF7F3FF2168C86883
:101B900080221040FF388238C8600120024940048A
:101BA00048610120607710BD00040140F8B504468B
:101BB000007F012818D0012626770220607721684F
:101BC000CA20486221685320486220688168320236
:101BD0009143816020688168120191438160FFF721
:101BE00043FC054600270FE00220F8BDFFF73CFC50
:101BF000411B7D20C000814206D92168FF20486238
:101C0000032060772777F8BD2068C068C007EDD053
:101C10002168FF204862667727770020F8BD000022
:101C200070B50C46FF21013161620068C169406CEA
:101C30004D0442048802800E20706D0E65704D06C2
:101C40006D0EA5700D0C40263540E570520C62609B
:101C50008A002546920E20352A7032060A40E2613B
:101C60000A4A11406161002B0ED102F055FE20702E
:101C7000607802F051FE6070A07802F04DFEA07016
:101C8000287802F049FE2870002070BD8080808096
:101C900010B500680B464068C021C94301400002EE
:101CA000000ECC04D870E40E5C708C06A40E0904FF
:101CB000490F9C701970002A0AD102F02DFED870CD
:101CC000587802F029FE5870987802F025FE987036
:101CD000002010BD30B50B460168896A5960016863
:101CE00009694904490C9960006804680F48214655
:101CF000014088024D04800E18706D0E49065D701B
:101D0000490E99706102490E40242140D970002A81
:101D10000AD102F001FE1870587802F0FDFD5870EB
:101D2000987802F0F9FD9870002030BD7F7F7F0029
:101D300070B5040003D0607F002802D006E00120C7
:101D400070BD00202077204600F04CF8022060771C
:101D50002168CA204862216853204862204602F068
:101D6000EEFDFF250426002824D1206881681C4A46
:101D70001140816021688868626863691043226944
:101D80001A43104388602168E0680861206801698F
:101D900022891204114301612068C16880229143A5
:101DA000C16020688068800608D4204600F088F969
:101DB000002803D0206845626677C0E72068016C80
:101DC00001229204914301642068016CA2691143CD
:101DD00001642068456201206077002070BD00002A
:101DE000BFFF8FFF70470000F8B50446007F0B4629
:101DF00001283ED0012020770220607720681F460E
:101E0000002620378068002A35D040064AD5187849
:101E100002F082FD387802F07FFD18789D7800048A
:101E200005435878D97800020904084305433878F7
:101E3000996900060543D869054358690543586800
:101E4000084300902168CA204862216853204862F4
:101E500020688268FF2101318A4382602168C86856
:101E600080221040FF388238C860FFF7FDFA07462D
:101E700028E00220F8BD400600D4DE70187802F099
:101E800053FD0504587802F04FFD00020543987891
:101E900002F04AFD0543D87800040543387802F083
:101EA00043FDC5E7DE70B5E7FFF7DEFAC11B7D2015
:101EB000C000814206D92168FF2048620320607774
:101EC0002677F8BD2068C068C007EDD02068C561DE
:101ED00021680098486420688268FF2101310A4324
:101EE00082602068816801221203114381600848E2
:101EF0000268012149040A43026082680A43826041
:101F00002168FF2048620120607726770020F8BD15
:101F100000040140F8B50446007F0B46012815D0A7
:101F200001202077022060775878002A10D002F034
:101F3000F3FC987802F0F0FCD8789D780004054313
:101F40005878197800024903084316E00220F8BDCA
:101F5000C10603D5EF2108400A305870D87802F046
:101F6000E3FC0504587802F0DFFC00020543987892
:101F700002F0DAFC05431878400305432168CA20C3
:101F80004862216853204862204602F0D8FC0026AF
:101F9000FF27002811D110480540206845602068BF
:101FA000C16880229143C1602068806880060BD49C
:101FB000204600F085F8002806D0206847620420FB
:101FC000607726770120F8BD20684762012060779E
:101FD00026770020F8BD00003FFFFF00F8B504465B
:101FE000007F0D4601280ED0012020770220607767
:101FF000206800278068002A07D0400618D5287876
:1020000002F08AFC15E00220F8BD400600D4EF7013
:10201000287802F089FC0604687802F085FC00024A
:102020000643A87802F080FC0643E878000409E043
:10203000EF702878AE78000406436878E9780002EB
:102040000904084306432168CA20486221685320D6
:102050004862204602F073FC00281ED11748064053
:1020600020680660206881680122920491438160A3
:102070002969E868084321688A68104388602068F5
:10208000C16880229143C1602068806880060CD4BA
:10209000204600F015F8002807D02168FF2048628C
:1020A0000420607727770120F8BD2168FF2048626F
:1020B0000120607727770020F8BD00007F7F7F0038
:1020C00070B504460068C168A0229143C160FFF763
:1020D000CBF97D260546F60006E0FFF7C5F9401B63
:1020E000B04201D9032070BD2068C0688006F4D5D5
:1020F000002070BDF8B5040007D000262546403505
:10210000A662687F002802D005E00120F8BD2E7786
:10211000204600F04BF802236B77206801684022CC
:10212000914301600721E0680902884201D9002239
:1021300001E0012212030F273F02B84202D0884279
:1021400000D0A662276B002F05D1884201D92363F6
:1021500001E001202063A168606863690843216988
:10216000194308430123A1695B0219400843E1694F
:102170000843216A0843A16A084321680860616B2B
:10218000606AA36908431B0C0427E1683B401943BC
:1021900008432168104348602068C1697A0291436E
:1021A000C1612666012068770020F8BD7047FFB541
:1021B00004460E464068FF2125460027053140357C
:1021C00081B0884202D1A06800280CD0287F012865
:1021D00015D001202877FFF747F90090687F012884
:1021E0000FD0022789E004206877049800903246D7
:1021F00011462046039B00F03EF905B0F0BD0220D9
:10220000FBE7002E78D00398002875D0042068776B
:102210000020206626640399A9800399E980A063C1
:10222000A087E087E064206507200121E2680002C2
:10223000090382422268536801D98B4300E00B43B3
:1022400053600122A168D203914205D121680A6836
:1022500001239B039A430A6021680A68520603D44B
:102260000A6840231A430A60E168814218D934E0C1
:1022700020688168C90706D0007B3070E888401E5E
:10228000E880761C0CE00498002824D0401C07D07D
:10229000FFF7EAF801460098091A049881421AD219
:1022A000E8880028E4D11BE020688168C90706D0CF
:1022B000C0683080E888401EE880B61C0DE00498B5
:1022C000002808D0401C08D0FFF7CEF80099411A2A
:1022D0000498814201D303270FE0E8880028E3D166
:1022E0002046009A049902F00DFF002801D020201A
:1022F0002066206E002800D001270120687700208A
:102300002877384679E7FFB5064604464036307FE1
:10231000002781B00D46012809D001203077FFF752
:10232000A3F80090707F012804D002279DE00220CE
:1023300005B0F0BD002D72D0039800286FD00320A7
:10234000707700202066A5630399A1870399E18730
:102350002064B080F0802065E0640121A068C9039A
:10236000884205D12068016801229203114301606F
:1023700020680168490603D40168402211430160C6
:102380000720E16800028142606823D9002802D05A
:10239000E08F01281AD121682888C86005E02068EC
:1023A0008168890706D52988C160E08F401EE087D3
:1023B000AD1C0BE0049800283ED0401C06D0FFF76F
:1023C00053F80099411A0498814235D2E08F0028D1
:1023D000E5D136E0002802D0E08F01282ED1E08F31
:1023E000012803D921682888C8600CE02168287872
:1023F00008730FE020688168890711D5E18F0129F2
:1024000006D92988C160E08F801EE087AD1C15E0E9
:1024100029780173E08F401EE0876D1C0EE023E0F9
:102420000498002808D0401C08D0FFF71DF8009938
:10243000411A0498814201D3032716E0E08F002857
:10244000D8D12046009A049902F098FE002801D0C5
:1024500020202066A068002803D12068C168806819
:102460000090206E002800D0012701207077002006
:10247000307738465CE7FFB5044683B00120254637
:1024800040350090287F00270E4601280FD00120FC
:102490002877FEF7E9FF0190687F616801280DD079
:1024A000CA1FFD3A08D1A168002905D102E0022027
:1024B00007B0F0BD042801D00227FAE0002E7CD03E
:1024C00005980028FBD006980028F8D0687F0428DB
:1024D00001D00520687700202066059921640699BF
:1024E000E9800699A980A6630699E1870699A187E4
:1024F000E06420650723E1681B02994202D8E8885E
:10250000012806D920684268012109038A434260F4
:1025100005E02068416801221203114341602068F0
:102520000168490603D40168402211430160E16853
:102530006068994242D9002802D0E08F012835D145
:1025400021683088C860E08F401EE087B61C2DE00F
:10255000009800280ED0E08F00280BD020688168FA
:10256000890707D53188C160E08F401EE0870020D1
:10257000B61C0090E88800280ED020688168C90742
:102580000AD0C068059908800598801C0590E888E5
:10259000401EE880012000900C98401C06D0FEF7F9
:1025A00063FF0199411A0C9881426DD2E08F002897
:1025B000CED1E8880028CBD16EE079E0002802D0A7
:1025C000E08F012862D1E08F012807D92168308887
:1025D000C860E08F801EE087B61C57E02168307825
:1025E0000873E08F401EE087761C4FE000980028BB
:1025F00018D0E08F002815D020688168890711D590
:10260000E18F012906D93188C160E08F801EE08703
:10261000B61C05E031780173E08F401EE087761C20
:1026200000200090E888002824D020688168C9072D
:1026300020D0E988012912D9C06805990880059839
:10264000801C0590E888801EE880E88801280FD863
:1026500020684168012212031143416008E0017BB8
:10266000059801700598401C0590E888401EE88098
:10267000012000900C98401C08D0FEF7F5FE01994F
:10268000401A0C99884201D3032712E0E08F0028FA
:10269000ACD1E8880028A9D12046019A0C9902F013
:1026A0006DFD002801D020202066206E002800D07B
:1026B000012701206877002028773846F8E60000D7
:1026C000042204490428086902D090430861704735
:1026D0001043FBE700E000E070470000094910B537
:1026E000401E884201D9012010BD074C60610321C2
:1026F000081F01F04BF80020A06107202061002096
:1027000010BD0000FFFFFF0000E000E010B5FFF784
:10271000E3FF10BD10B501220249034800F000F9A3
:1027200010BD0000E80000204C0E0020F8B5036842
:102730000446D96918680D072D0F07D18A0605D5FB
:10274000820603D5204604F0B1FEF8BD9A68002D3C
:1027500064D0D507ED0FFF26213606402E435DD00D
:10276000CE0706D0C60504D501261E62E36E3343AC
:10277000E3668F0702230426002F06DAD70704D06A
:1027800027683B62E76E3743E7664F0706D5D207F7
:1027900004D022681662E26E1A43E2660A0709D57F
:1027A000202202402A4305D0236808221A62E36EE1
:1027B0001343E366E26E002AC7D0890604D580067B
:1027C00002D5204604F072FEE06E000703D42068B4
:1027D000806840061CD5204604F04CFE20688168C5
:1027E000490611D58168402291438160606E0028BE
:1027F0000AD012494163606EFEF73CFD0028A4D068
:10280000606E416B8847F8BD2046FFF783FFF8BD37
:102810002046FFF77FFF0020E066F8BD0A0605D5D9
:10282000020603D5204604F017FFF8BD4906FCD583
:102830004006FAD5204604F02CFEF8BD617400086D
:1028400070B5040005D025466035687A002802D0AE
:1028500006E0012070BD00202872204600F026F816
:1028600024206872206801684908490001602046F8
:1028700004F05AFE0128EDD0606A002802D02046FC
:1028800004F080FD206841680122D202914341603A
:1028900020688168082291438160206801680122D4
:1028A00011430160204604F0D2FD70BD10B586B022
:1028B000044614216846FDF769FC174920688842E0
:1028C00027D116488269012189030A4382618269FE
:1028D0000A4005924269C9000A43426140690840C2
:1028E00005900320400200900220019000200290F9
:1028F000032003900120049009206946C006FEF7DA
:1029000009FD002203211B20FEF704FE1B20FEF719
:10291000F7FD06B010BD0000003801400010024075
:1029200070B5034660339C7A202C39D100290BD036
:10293000002A09D0012584682D03AC4206D106691E
:10294000002E03D1CE0701D0012070BD1E7A012ECA
:1029500026D001261E724165014640310A834A8312
:10296000FF22AC4204D10469002C07D10D4A05E0D6
:10297000002C04D10469002C00D07F228A8300211E
:10298000C16622229A72197201688A6832438A608B
:1029900000680168FF22213211430160002070BDF0
:1029A000022070BDFF01000010B50C48044600F085
:1029B0009FF8002804D10A4801782046FEF71EFB44
:1029C00006482838416B002901D0012088470122A0
:1029D00003490448FFF7A4FF10BD0000AC09002024
:1029E000E80000204C0E002030B5034660335C7ACE
:1029F000202C23D100290BD0002A09D0012584687E
:102A00002D03AC4206D10469002C03D1CC0701D0C0
:102A1000012030BD1C7A012C10D0C1640146403128
:102A20000A824A820021C16621225A721972006804
:102A30000168802211430160002030BD022030BDBA
:102A400010B50C48044600F04BF8002809D1204688
:102A5000FEF7C6FA084901224870491C0748FFF7EB
:102A6000C3FF04481C38416B002901D0002088476F
:102A700010BD0000A0090020E80000204C0E00203E
:102A8000FEE730B5002803D0002903D0002323E05F
:102A9000012030BD022030BDC45C2409092C02D8BD
:102AA0005D00303405E025460A3D062D02D85D0064
:102AB00037345455C45C2407240F092C03D85D0017
:102AC000AD18303406E025460A3D062D03D85D00DA
:102AD000AD1837346C705B1C8B42DDD3002030BDE9
:102AE00001884088814201D1012070470020704751
:102AF00010B504464188FEF76BFA2188884201D15F
:102B0000012010BD002010BD884200DC084670473F
:102B1000F8B5174605460A461948069C089E0799C7
:102B2000447183711C0AC4711C0C04721B0E437225
:102B300081720B0AC3720B0C0373090E4173D4B27A
:102B4000C4731048FDF732FF39460E48FDF73EFFCB
:102B500010220B490B48FDF741FF22462946094840
:102B6000FDF73CFF0749C81FFD38FDF781FE064C05
:102B7000601CFDF71DFB2178000208433060F8BDA2
:102B8000A00000206C08002068070020F0B585B088
:102B900000287DD00268002AFBD04268002AF8D0C5
:102BA0008268002AF5D0554A0125D1659065114605
:102BB000002018310870507450639075D575D0742A
:102BC000106550654E49107502220A7048700A223D
:102BD0004A60049206220A7203924A4ACA607D261B
:102BE000F600029272000E614A610192464A8A61C1
:102BF00000920A46454F2032CF611570444B507009
:102C0000DA690C461B6A0C34E361A261FF228A85F3
:102C1000C885088648868886C88600242046FDF731
:102C20008DFC00223B4BFDF77FFB032252073A4B02
:102C3000FDF7C8FAFDF7B4FC0246E1003748641C12
:102C400042500818502200210271E4B24171402C18
:102C5000E4D32B48049938384160039901720299F2
:102C60000661C160019941610099C76181610146B6
:102C700020310D7001F096FE21482949383004F0CA
:102C80006DFA1F483146383004F0FCFA254900E05F
:102C900032E01B48683004F061FA194822497C3060
:102CA00004F05CFA16482149903004F057FA1448B1
:102CB0001F49BC3004F052FA04F048FA0F4E1D4987
:102CC00030630F48204C4C3001601B4981601B4928
:102CD00001611B4941601B49C160216888476069E7
:102CE000804705F0AFFFB574A16D28468847E06ABC
:102CF0008047002005B0F0BD0320FBE72C0000203A
:102D000050060020B80B0000881300007017000068
:102D1000D48F0008006A08413508BC41180400201F
:102D200015380008D1410008F94000087141000839
:102D3000D1370008DD3F0008653A00082D3F000844
:102D4000BD400008913F000820910008F8B50446F6
:102D50001D4617460E460D48FDF728FE39460B481E
:102D6000FDF734FEF2B221460848FDF737FE074969
:102D7000C81FFD38FDF77CFD054C601CFDF718FAF7
:102D80002178000208432860F8BD00006C0800208C
:102D900068070020FFB585B00F46044607ADF02256
:102DA00000211D480E9E05F093FD1B4A1021204670
:102DB00005F0CAFA10220021684605F089FD0121BC
:102DC00068460170062239466C46401C05F068FDD5
:102DD00002222946E01D05F063FD0F4A6846089966
:102DE00005F087FA10220021684605F071FD0221E6
:102DF0006846017006223946601C05F051FD02222A
:102E00002946E01D05F04CFD034A3146684605F0B1
:102E100070FA09B0F0BD000078070020F8B5174639
:102E20000E4605461C46F02200210B4805F050FDD9
:102E3000094A1021384605F087FA074A21462846F4
:102E400005F057FA102E06D321462846024A1031C3
:102E5000103005F04EFAF8BD78070020FEB50446A4
:102E6000002002260190002C5BD03348416BCA073A
:102E700001D1C80601D50120FEBD002069460872B7
:102E8000014614222D4805F023FD2C4801254570EC
:102E90002078002804D001280AD003283FD119E067
:102EA000254869464573087AC006C00E403008E0E0
:102EB00021488573E17B41736946087AC006C00EDC
:102EC0008030087220790190A06800900E26A789B2
:102ED000A6570CE0184869464573087AE021084374
:102EE00069460872606800900A262789A65712482A
:102EF0004079002808D105220021304604F03CFD2D
:102F000000280ED00E4846703B4602A8009A019950
:102F100003F076FD060006D0074900208871304690
:102F2000FEBD0320FEBD054821780170024818301F
:102F3000017829430170F2E72C00002038070020B7
:102F40001806002070B50446002535A0FDF7E2FF05
:102F5000002C17D03F4A267811463D4838393300B7
:102F600004F04FFD1D121417191B1E2023252729BD
:102F70002E37353B3F41434547494B4F4D51535504
:102F800057595B00032070BD407C00E00079207140
:102F900044E04079FBE7806C00E0C06C60603DE09D
:102FA0002D48FBE72C481030F8E7807CEFE7C07C29
:102FB000EDE72A48F2E727497439086E496E03E0C5
:102FC00024490C318869C969A160606026E0214804
:102FD00001E0204838382C30E0E71E4818380078E7
:102FE000D5E7C868DAE70869D8E74869D6E78869A5
:102FF000D4E7C869D2E75078C9E74878C7E71078BE
:10300000C5E70878C3E7406AC8E7806AC6E7006A90
:10301000C4E74868C2E7087AB9E70225284670BDC8
:103020004C6F52614D61635374617475735F7420AA
:10303000737461747573203D204C4F52414D414370
:103040005F5354415455535F4F4B3B0D0A000000F2
:103050002C00002050060020DC0100201804002075
:10306000F8B500250446002805D06448818EC907BC
:1030700003D00120F8BD0320F8BD624F22783E4600
:103080005F49383E130004F0BCFC1D102124272AA0
:103090002D333A40B5434A575161696C6F72757868
:1030A00083998EA7AAB5ADB1B50022794274002AE2
:1030B00004D0012A04D0022A02D102E0C86A804763
:1030C00099E00021817101F053F894E021790171B8
:1030D00091E0217941718EE0616881648BE06168E3
:1030E000C16488E06168002974D0102246482AE053
:1030F000616800296ED044481022103023E0227904
:103100008274896D1046884775E02179C17472E038
:103110003C48A26874386168426601666BE03948D1
:10312000A2680C306168C261816164E06168002955
:1031300050D00C22334805E0616800294AD031485C
:103140000C2238382C3005F0ABFB54E02079411EBE
:103150000E293FD82B49183908704CE06068F060A0
:1031600049E06068306146E06068706143E0606833
:10317000B06140E06068F0613DE004202056052227
:10318000002104F0F9FB002824D02079787032E087
:10319000042020560522002104F0EEFB002819D05F
:1031A0002079707027E0042020560722002104F0C7
:1031B000E3FB00280ED0207938701CE00420205654
:1031C0000722002104F0D8FB002803D020793070BA
:1031D00011E0FFE703250EE0616841620BE06168E2
:1031E000816208E060687860706004E0207938727D
:1031F000307200E002252846F8BD00002C000020B7
:103200002091000850060020DC010020F8B50227BC
:103210000446002858D03C4EB08EC00717D10C226F
:1032200000213A4805F054FB3848012141702278CA
:10323000354608211835002A06D0012A46D0022A30
:103240004FD0032A35D154E0B28ED20601D50120E9
:10325000F8BD6268002A37D0A268002A34D0E2683C
:10326000002A31D0237C002B2ED0302B01D23023EA
:1032700023742B780B432B70217801706068F06306
:10328000A06872643064207CF0750020B0756946D7
:10329000087001F087FBB07D401CFDF773FC1C49F2
:1032A000002348701A461946684603F0A9FB070038
:1032B00008D018A0FDF72EFE0020B0712878F72165
:1032C000084028703846F8BD0320F8BD2A780A4324
:1032D0002A7021780170002211460220FDF7DEFBE2
:1032E000E5E70270287808432870A08803F028FDDD
:1032F000DDE70270287808432870227BA088A16847
:1033000003F056FDD3E700002C0000204C070020FE
:103310001806002073746174757320213D204C4F92
:1033200052414D41435F5354415455535F4F4B0DF0
:103330000A000000FEB508AF70CF6F4670C700F0FE
:1033400001F8FEBDFFB50D46002681B01F460124E1
:10335000F0223146294805F0BBFA284A102103988B
:1033600004F0F2FF26480A9941718771390AC17148
:10337000390C0172390E41720B9981720B991F4FF2
:10338000090AC1720B99090C01730B99090E41735B
:10339000203F18E01A48194AC473641C1146A4B2AD
:1033A000203904F0A6FF00203118019A3B5C525CE2
:1033B000401C5A400C9B80B25A541028F4D3103D44
:1033C0001036ADB2F6B2102DE4D2002D13D00B4A58
:1033D0000B481146C473203904F08BFF002008E02D
:1033E000019A3118525C3B5C5A400C9B401C5A5469
:1033F00080B2A842F4D305B0F0BD000078070020E9
:10340000B0000020F8B507461C480C4640786946D5
:103410001B4D0870687AA97A4018C6B2002C09D0F2
:103420006A4600216879FDF77DFBE87C002803D01F
:10343000144803E00320F8BD1248801F6A460021AB
:103440005156405C6070B04216D3801B2070002241
:1034500068468156384604F079FA00280AD0684652
:10346000002141563246384604F070FA002803D055
:103470000020F8BD0820F8BD0920F8BD5006002046
:103480002C000020E08F00080149012008717047DE
:1034900000000020F0B504464078EFB0002864D169
:1034A000A07C012809D114227AA1804804F0F6F901
:1034B0000E227FA17D4804F0F1F9814D2878012882
:1034C00002D1A889401CA881C8213DA8FCF75EFE56
:1034D000C8210BA8FCF75AFE607B012845D1C82102
:1034E0003DA8FCF753FEC8210BA8FCF74FFE217B3B
:1034F0000BAAA068FFF7C5FA207B002741000BA8A4
:1035000047540090607C237B002801D06DA200E02E
:103510006EA270A13DA804F037FA3DA8FCF741FE69
:1035200082B23DA9614804F0B9F9E07871490128F7
:1035300013D0022811D0E02817D12A7801260220C2
:10354000002A14D0A26812786A70130004F059FAA5
:10355000082B383A3C3E4F54720D207B012804D191
:10356000A0680078C007C00FC8706FB0F0BD227BA4
:10357000042AFAD1A2681378012BF6D15378012BD3
:10358000F3D19378012BF0D1D278012AEDD18F704D
:10359000E0220A704870AF81AF73EF732F742E7002
:1035A0006E70694606E08E70087018224A70AF810E
:1035B0002F7008A908700E710846FFF751FDD4E777
:1035C0004870D2E78E7063E08F7061E0227B4A70B2
:1035D0003B49042054390870012005E0A3681B5CB6
:1035E0005B1C0B54401CC0B29042F7D3BDE7684649
:1035F0000670FFF70BFEB8E78E700C4608701821B6
:103600006170AF812F70694608750E7605A8FFF7C7
:1036100027FD384869460F700C3001900830029041
:1036200008300390032008746846FFF7EFFD04207C
:1036300060719AE7217B032902D007290CD027E08B
:1036400069460870A068817842780802104340BA41
:1036500069468880684619E0032168460170A068C1
:10366000817842780802104341BA68468180A06898
:10367000C1780279090412024079114301436420A0
:1036800041430291A068817968460173FFF7BEFD4E
:103690006E706AE72B53454E443A41434B205245E6
:1036A0004345495645440D0A0000000084090020A6
:1036B0002B53454E443A444F4E450D0A0D0A000027
:1036C000C8010020525857494E32000052585749FD
:1036D0004E3100002B524556204D53473A25732C4E
:1036E000525853495A452025642C222573220D0A2D
:1036F0000D0A00000000002070B50178124C012571
:10370000002902D001291CD10FE04078002801D007
:10371000657116E00E220DA1104804F0BFF80220DA
:1037200060710FA0FDF7F6FB0BE04178002908D18E
:1037300014490A78012A04D18D73027ACA73407A37
:103740000874257170BD0000000000202B4A4F490D
:103750004E3A444F4E450D0A0D0A000084090020E0
:103760004465766963655374617465203D20444502
:10377000564943455F53544154455F53454E443B7E
:103780000D0A0000C8010020704700008307FF22D7
:10379000DB0E9A408907090E994000280BDA0007D2
:1037A000000F0838830808489B001818C369934322
:1037B0000B43C3617047830804489B001B181868BB
:1037C000904308431860704700ED00E000E400E01B
:1037D00010B50B4803F08EFD0A488179002905D009
:1037E0000121C173416B042291434163407C022853
:1037F00005D104481022183001781143017010BD22
:103800000C0700202C00002001490120487070475F
:10381000D0000020F8B586A0FDF77CFB8E4803F0B1
:1038200069FD8E4D002228788D4CC10670D5616BE4
:103830004B0604D5402399434908490061638649F2
:103840000307C4310F46143F0026002B01DBC307DA
:103850000FD07B78022B02D04B78022B09D1626B00
:103860005208520062636672A27B7A713E71012235
:10387000BE60A379134333D1020702D4C10703D139
:103880002EE00A78002A08D07349E27A5039097884
:1038900091420ED9810712D41DE0A27D8A72497827
:1038A000002903D0E17D8A4210D214E06662E672FC
:1038B0000CE0800703D46672E06A401CE062E672A6
:1038C000A078002802D1606A401C6062606B4008EA
:1038D0004000606304E0EF210840287000F078FCAD
:1038E0002878800715D53879012803D0A07B617B23
:1038F00088420ED9E673A671A078002802D1606ACA
:10390000401C6062A07B7871606B4008400060637F
:103910004BE0E07B002848D0A08EC00645D4E6737B
:10392000A07B617B88422CD208282AD8401CA07337
:10393000C0070AD04849012070390856421E002AA3
:1039400001DD401E00E00020487002F0CBFF00289F
:1039500012D0082078706672606B40084000606387
:10396000A6713E71A07B78713B4870384078B87082
:10397000A078002816D018E02878EF210840287099
:1039800013E035490C220C390846383804F088FF1A
:10399000606B4008400060636672A6713E71A07B58
:1039A0007871E5E7606A401C6062606B810702D550
:1039B00002218843606300280ED07D21C90026487B
:1039C00003F060FC244803F065FC287880072ED5BE
:1039D000607C02281DD01EE02878C00708D0A06DAA
:1039E00001681D48B030884728784008400028709A
:1039F0002878000708D5A06D81681748C43088472B
:103A00002878F721084028702878EF21084028708E
:103A1000DBE700F0ADFB2878400704D4A06D4168D7
:103A20000D48983088472878F92108402870F8BD5B
:103A30004F6E4D61635374617465436865636B5485
:103A4000696D65724576656E742069732072756E56
:103A50006E696E67200D0A00880600204400002071
:103A60002C000020FFB504460020FF4D93B02870C5
:103A7000FE49049110310C9106900990FC490F9079
:103A80000E90109008711839CA81169A0A742A7C0F
:103A90004A74C87088704871886008734873887465
:103AA000486107460870F348C06A8047F0485838B4
:103AB00003F020FC20786946087041091498149E90
:103AC000001F761E11910D9001291CD003297CD076
:103AD0000529FCD0072979D0E5490120183948701B
:103AE00000F032FDE04810221830017811430170D7
:103AF000DF480121B03803F0C5FBDD48B03803F0E2
:103B0000C9FB17B0F0BD2879002803D0D84901209F
:103B100018394DE1D84FB1B27B1C601C6A6CFFF7BD
:103B20007DF96846007838700D9806AB81B238464A
:103B30006A6CFFF70BF9149838182038417F027F20
:103B400009021143827FC07F12040A4300060699CE
:103B5000104388426ED1C5483C4610300090C34B9C
:103B6000AA8B611C686CFFF715F960792179000256
:103B70000843A17909040143A964207AE17900028C
:103B80000843617A09040143A07A00060843E86407
:103B9000E17A4806420FB94809074270090F0172DD
:103BA000207B0107B648090F016101D101210161A4
:103BB000B34C2069FCF7C2FCB24F00223B46FCF735
:103BC000B3FBFCF7EDFC206101E037E094E1FCF78A
:103BD000B5FC00223B46FCF7F5FAFCF7E1FC60611E
:103BE000102E1BDD5020694608746F6B20200743A0
:103BF000032600246F63A04800190D30FCF7D8FAA3
:103C00000002000A64214843761CE41CF6B2E4B2C8
:103C10000390082EEFD3202087436F639449002040
:103C200014314870012028710846FC384178383832
:103C3000417057E78E4806211430F9E7A178607883
:103C400009020143E078884A000408432179090603
:103C500001430391D26C05209142834917D00F6A2A
:103C60000CE03A6803998A4207D101210E91391D6F
:103C7000049110310C917D6A0AE0BF6A002FF0D1E7
:103C80000A217B481838417000F05EFC39E78D6AE4
:103C9000265C69460E70401C215C401C205C099B20
:103CA00002023007000F0830089014980A432018C9
:103CB0002038017F1943437F1B020B43817FC07F64
:103CC00009041943000608430990501B80B20122E1
:103CD000D20306A90B90904215D22D180120009016
:103CE0000D98029181B201952046039B049AFEF73C
:103CF0000FFF0699099888421CD101210B9889036E
:103D000088421CD224E000B2012228181204801834
:103D1000129001900D9801220291009281B22046EA
:103D2000039B049AFEF7F4FE06990998884201D194
:103D3000129DE2E701210B988903884205D34C4884
:103D400009211838417045619EE71098002874D009
:103D500047490020183948700E9A8A70F206D20F2F
:103D60004A7188600873424B4D613F495870C86280
:103D700088720E9800280CD018460221183801705D
:103D8000796AA94203D1002901D007217BE77D622E
:103D90001FE0119805280DD0334835490022C27123
:103DA00018390A70806AA84211D100280FD0072064
:103DB000487069E72C482E4A0121C171183A1170E8
:103DC000806AA84203D1002801D001200F90264824
:103DD000856227480078012801D1B00602D5224922
:103DE0000020487208991498401A001F002853DDDB
:103DF000605C4F1C1499C91B091FC9B20D911C4965
:103E00001839C870002819D0300707D01698082133
:103E1000C3B2781EC2B2204600F0F4FB164801215E
:103E2000029000910195E019039B0C9A0D99FFF700
:103E300081FA0F98002827D050E05BE0300702D0CD
:103E400001200F904AE00C48012100910290019559
:103E5000E019039B049A0D99FFF76CFA169800215C
:103E6000C3B205480D9A1EE02C000020DC010020A2
:103E70003807002020910008FB02002038060020AF
:103E80001806002000408F402648254981600D9982
:103E90000173012141730BE0300706D016980A46E2
:103EA000C3B20821204600F0ADFB0F98002815D1C1
:103EB000B00606D51B4901201831087118398874DD
:103EC00008E018490020183108711748817B407BB1
:103ED000814203D91348143803F00CFA1249022224
:103EE000183108781043FB2210400F9A92001043BB
:103EF0000870F7E50B21C4E6611C0948149A04F028
:103F0000CFFC084803210170002141700449816001
:103F10000673054802221830017811430170E1E56B
:103F2000FB020020200700202C00002070B5154C5B
:103F300001202070607C022803D01348C06A8047AB
:103F400001E000F015F911480E4D227C01461835AC
:103F500010261431A379002A05D00522002B00D0A9
:103F600042704A700AE00422002B00D042704A706E
:103F7000206D03F0EFF8616E884202D32878304359
:103F8000287070BD2C000020209100083807002008
:103F900010B50F4C00202070607C022803D00D4823
:103FA000C06A804701E000F0E3F8207C01280ED1D0
:103FB000A1790320002901D0074948700649102241
:103FC000143148700248183001781143017010BD57
:103FD0002C0000202091000838070020F8B503F0DD
:103FE000B5F8324C0546607C022803D03048C06AE0
:103FF000804701E000F0BCF8E07800262D4F002853
:104000002DD038466C38216E03F03CF938466C38B8
:1040100003F040F9607C02280ED038465838616EB3
:1040200003F030F93846583803F034F9607C022840
:1040300002D0A079002822D07D21C900484204F096
:1040400073FD616E40187D210901411819482C3813
:1040500003F018F917482C3803F01CF90FE0154944
:104060007E70032014314870104818300178002900
:1040700001D101210170C9B2102211430170607D8C
:104080000D4AC100891849790C225143074A683208
:1040900089184D602565FCF74FFEA079002803D1F3
:1040A0007E70E07A401CE072F8BD00002C00002019
:1040B00020910008380700201804002010B50B4894
:1040C000407C022803D00A48C06A804701E000F023
:1040D0004FF80849022048701431487003481022F4
:1040E000183001781143017010BD00002C00002031
:1040F000209100083807002038B5124C01202070AC
:10410000114803F0F7F800252574607C022802D1DD
:104110000E48006B80470EA0FCF7FCFE3021607D4E
:10412000FBF7E0FF1048084C4143104828340818BA
:104130000095A18862788BB20021615600F096FF4D
:1041400038BD00002C000020CC0600202091000883
:104150000D0A0D0A5258312057696E646F77206F2F
:1041600070656E0D0A0D0A00400D0300E0F8D11DC8
:10417000F8B50F4C0126267000250E4803F0BAF85A
:10418000607C022800D101250BA0FCF7C3FE094882
:1041900000951430018A427B8BB20C214156DC38E9
:1041A000406A00F063FF002800D02674F8BD0000CC
:1041B0002C000020E00600200D0A0D0A5258322083
:1041C00057696E646F77206F70656E0D0A0D0A0077
:1041D0003EB5174803F08EF8164C1021606B8843EB
:1041E000606320461830007800071DD510489430D1
:1041F0000078002818D100F0D5FBA07D401CFCF70A
:10420000C1FC0B49A03948700020694608716179EA
:104210000246C9010A4369460A72034602460090F3
:1042200002A901A800F076F802F05CFB3EBD000098
:10423000B80600202C0000203EB50D4803F05AF8C7
:10424000012568460570FEF77DFE002808D1684606
:104250000079084C012804D007A0FCF75BFE6571CB
:104260003EBD0EA0FCF756FE0220607125713EBDDA
:10427000B401002000000020446576696365537432
:10428000617465203D204445564943455F53544180
:1042900054455F4A4F494E3B0D0A0000446576691C
:1042A00063655374617465203D2044455649434518
:1042B0005F53544154455F53454E443B0D0A000043
:1042C000F0B5064600242046002E01D0002A1DD15C
:1042D0000020F0BD355DAF1E3B0003F092FB0715DB
:1042E00013150511130D1500641C1554E4B2401C80
:1042F000C0B2335D135400E01554401CC0B203E05B
:10430000A41C00E0641CE4B2641CE4B28C42E1D35F
:10431000F0BD7047F0B585B00F4600210A9D854C71
:104320000391009261831E1EA17100D10025EAB2A3
:104330006270814D0178297000780121400908D010
:1043400002283DD0042839D007287DD0022005B0AE
:10435000F0BD6183681C0822216C04F0ACFA608B0C
:104360000822083080B260832818E16B04F0A3FAB9
:10437000608B083060837148406980470146A083A4
:10438000608B03AB2954401C80B2090A2954401C9D
:104390006083C1B26848626CFEF7D8FC608B0399F9
:1043A0002954401C80B20A0A2A54401C80B20A0CCC
:1043B0002A54401C80B2090E2954B6E00120A07195
:1043C000207900284AD038785D4AC0090121FCF7DD
:1043D000A9FB81013878BF22104008433870E17989
:1043E000002904D00021E17120210843387052488F
:1043F000E16C41700A0A82700A0CC270090E0171E8
:1044000039784171A18C8171090AC171FF30617ADB
:10441000FF3040180825A27A4A4904F041FA607A30
:10442000A17A4018C1B26172002E22D060780028B3
:104430001FD00F2927D8207A002824D038780309E4
:104440001B014018000700E066E0000F03433B70CB
:10445000394A3C4F002053710F3F07E0072076E7B1
:104460003B5C53556D1C401CEDB280B28842F7D3C3
:1044700009E0002907D0207A002804D0314E61706D
:104480000F3E002000902F4A0027104627720F3859
:10449000FFF716FFA072002801D001202072002E25
:1044A00015D06178002912D02348009A42556D1C1E
:1044B000009AEDB2002A26D0626A40190192009754
:1044C00002901D4AE36C103A3046FEF73BFF6078DD
:1044D00029186183626A03A801920290164A009724
:1044E000203A1548E36CFEF713FB134A618B0398DF
:1044F0005054030A52185370030C000E9370D0707E
:10450000091D618313E0626A401901920A4A00970B
:104510000290203AE36CD7E7002B08D0002A06D09F
:10452000681C314604F0BCF96078401C60830020B0
:104530000DE700002C000020FC0100202091000865
:10454000190600200904002010B50C484022416BD8
:10455000114341638079002801D0FFF739F90749F9
:10456000122218310878104308700121044802F023
:1045700089FE034802F08EFE10BD00002C000020D2
:104580008806002010B5022810D0E0280DD116486A
:104590000122847B01465439144B012C11D04478FC
:1045A000012C19D0042C00D1427010BD0E484021BE
:1045B0005438FBF7EBFD0E220DA1114803F06EF904
:1045C00010BD0024847303245C7005230B70C37B2F
:1045D0004B70037C8B70E7E702225A708089020AD5
:1045E0000A70487010BD0000C801002000000020C3
:1045F0002B526561644F766572616C6C0D0A000028
:1046000084090020FFB58DB0BB480C46B94F04901B
:1046100069E10D98005D641C801EE4B2030003F0A4
:10462000F0F9070513C5D2FEFDFCFB00B3490020DD
:1046300048700D98005D0872641C0D9AE0B2125C1F
:10464000401C4A72C4B24EE107200990002001903C
:10465000029001AB03904100A74A401C203A8A18FF
:10466000928DC0B25A520628F5D30D98005D641C95
:1046700001070006000F0A90090FA1480B9140792D
:10468000E4B2002813D19C480122203882560A99AE
:104690008A4204D1002141560B98814207D0002262
:1046A00011460320FCF7FAF9E41CE4B21BE10D9873
:1046B0000D99025D641CE0B2095C401C09021143C3
:1046C0000D9AC0B2125C401CC4B25006400F844622
:1046D0001007000F009001D10120009060460628CD
:1046E0000FD0072828D062460020160101252A464F
:1046F00082400A4229D03218D200BA58002A20D06B
:1047000023E000210A46002053000D18ED007D59DA
:10471000002D06D001ADED5A01268640354301AE8D
:10472000F552401CC0B21028EFD31031521CC9B250
:10473000D2B24029E7D30FE0099840084000099021
:104740000AE0099A520852000992401CC0B210288F
:10475000CDD360464000195201A90A9803F0C4F86D
:10476000002803D10998FD21084009900722002163
:104770000B9803F001F90028099802D1FB210840A9
:104780000990C04340070DD15B480A992038417019
:104790000B9901700C2201A92C3004F081F80499C6
:1047A000009808700022032009999AE00D980121D1
:1047B000025D5348641C02739140C1830022E4B23D
:1047C000114604208DE00D980726005D641C41060B
:1047D000490F0007000F069105900D99E0B20A5CA1
:1047E000401CC0B2095C401C090211430D9AC0B2C2
:1047F000125C401C1504C4B20D436420454341487B
:104800000295016A28468847002812D03E48854212
:104810000FD33E48854203E069E041E03AE02CE0F6
:1048200007D839483A4940422818FBF75BFC002971
:1048300000D0062605220021059803F09DF80028E7
:1048400001D1FD20064003220021069803F094F8D0
:10485000002801D1FB200640F043400709D104980D
:1048600005990172244902982039486204990698F2
:10487000487000223146052033E02148FF21C06DF9
:10488000002804D00068002801D080470146062097
:10489000109A26E00021641DE4B20A46072020E0B9
:1048A0000D98005D641C0007000FE4B2002800D1E1
:1048B0000120FBF743FE174E00223346FBF734FD81
:1048C000FBF76EFE0C4D203D2861FBF737FE002202
:1048D0003346FBF777FCFBF763FE00226861114665
:1048E0000820FCF7DBF80F98844200D291E611B063
:1048F000F0BD000018040020380600204C070020FE
:104900002C00002020910008E0F8D11DA067611E56
:10491000400D030000408F4001090A220007514367
:10492000000F4018C0B27047002102E00A38C0B240
:10493000491C0A28FAD20907090E0843704770B5C6
:1049400004460068C168490613D40021C943C16008
:10495000FCF78AFD7D260546F60006E0FCF784FD9F
:10496000401BB04201D9032070BD2068C0684006DA
:10497000F4D5002070BD000010B50948FDF7FAF825
:10498000FF2101310648FDF711F900F0B7FA00F0F8
:1049900037F90020FCF716F902F028FC10BD0000E2
:1049A000100E002070B51A4C002525716562A562B5
:1049B000E562E57201206073A073E5732573E083FF
:1049C0006572A572E07013480146027838390A70A2
:1049D00040784870084658304178383841705C3823
:1049E000024680329169D2694266016601460C2214
:1049F000A031683003F054FFA571E5712572206A7B
:104A000001E04562806A0028FBD14020607570BDDE
:104A10002C0000205006002010B5040007D0002014
:104A200000F036F9A04204D2001B401E10BD002049
:104A300010BD001B10BD00000FB4F0B58BB00C46CC
:104A40001C2212A96846FBF788FB10A8807C0A90FC
:104A500010A8477C067C007B07905F48844202D206
:104A6000002C02D002E0044600E001242046FBF7BF
:104A700065FD5A4A5A4BFBF757FC0991089004F020
:104A80005FF804460D46099B089AFBF73FFC00229D
:104A9000544BFBF749FC089053480991C068FBF759
:104AA00039FD099B089AFBF78DFBFBF755FD4E4935
:104AB000C860FF21E931884218DB4B49FF38E938EB
:104AC000C8600022494B20462946FBF77BFB044681
:104AD0000D460BE00022464B20462946FBF716FC0C
:104AE000044607980D46401C80B207900022404BB8
:104AF00020462946FBF786FD0AD8EBE700223D4B0E
:104B000020462946FBF702FC761C04460D46B6B249
:104B10000022384B20462946FBF774FD0AD8EDE702
:104B20000022354B20462946FBF7F0FB7F1C04464C
:104B30000D46BFB20022304B20462946FBF762FDEE
:104B4000EED90A98FBF7FAFC22462B46FBF73AFB14
:104B5000FBF726FD84B203E03C3C7F1CA4B2BFB24D
:104B60003C2CF9D203E03C3F761CBFB2B6B23C2FDE
:104B7000F9D205E0183E0798B6B2401C80B2079003
:104B8000182EF7D210A8407B00281FD0164989792B
:104B9000401880071AD010A8C17A1848401E095C36
:104BA0000798814202D2FBF79DFA0791684684720A
:104BB00047720672079901711C2269461098FBF72B
:104BC000CCFA0BB0F0BC08BC04B0184710A8C17AEE
:104BD0000A480C30E2E7000062071200E17A14AEE6
:104BE0004761004000408F40D80000200000F03FA7
:104BF0000018F5400020AC4000004E401090000826
:104C000010B51F4C98B06079002836D111A800F07B
:104C1000E3F81C2211A90AA8FBF79FFAFF22002340
:104C2000013269461748FCF7FBFF684641783C2093
:104C3000414368460078E122120150430918684652
:104C40008078E123091808A8427C3C20424308A848
:104C5000007C1B015843121808A8807C1018401AC9
:104C6000FBF76CFC084A094BFBF75EFB03F0EAFB21
:104C7000FBF796FCA0600120607118B010BD000029
:104C8000D8000020100E00204ED83C16F441DF3F23
:104C9000F0B500248FB0254600280BD01C22014619
:104CA0006846FBF75AFA69460888497900260F18C2
:104CB000079113E007A800F08FF81C2207A9EFE77F
:104CC000002E17D0B00715D0304B002220462946C1
:104CD000FBF778FA761C04460D4636B2B742EFDC95
:104CE0000798002809D0B80707D06846C77800267B
:104CF0007F1E27E00022264BE8E76846C77800269B
:104D00007F1E0DE023482449805D4843FBF716FCD5
:104D100022462B46FBF756FA761C04460D46F6B2A1
:104D2000B742EFDC10E01B481B490C38805D48435C
:104D3000FBF704FC22462B46FBF744FA761C04469C
:104D40000D46F6B2B742EEDC6846817A407A3C22E4
:104D500050430A186846017AE12000014143684641
:104D600000790D4B584308181018FBF7E7FB224653
:104D70002B46FBF727FA094A094BFBF7D5FA03F054
:104D8000DFFEFBF70DFC0FB0F0BD000038137E41D5
:104D900050287E411C900008805101004ED83C16DE
:104DA000F441DF3F0B498B680022984205D94B78CC
:104DB000002B02D04A708B68C01A8B68984202D9C7
:104DC000322801D28A70704701228A708968401A9D
:104DD00070470000D800002010B588B004460022BB
:104DE000124802A9FCF776FF00A900220F48023101
:104DF000FCF74EFF0E496846CA8802804379632B50
:104E000005D00878002809D0002B03D006E0012047
:104E1000087003E0002008706432CA801C226946D2
:104E20002046FBF79AF908B010BD0000100E0020D4
:104E3000D800002010B50020FFF72AFF04460548DF
:104E4000FFF726FF844202D2201A401E10BD201A0E
:104E500010BD0000300E002010B50020FFF718FF35
:104E600010BD000070B586B014216846FBF78EF9BE
:104E700000241E4D05942879002835D11C48016A6C
:104E80000122D203114301621A491B4812C00321B7
:104E900001608460C460046141600838FCF748FF29
:104EA0006846C4750126467586750675002205A9F3
:104EB0001148FDF72FF8684604704470847001941F
:104EC000C4700494002269460B480394FDF786F8E9
:104ED0000948FCF731FE002201210220FCF71AFBF1
:104EE0000220FCF70DFB2E7106B070BDD80000202B
:104EF0000010024000280040100E002010B50D48A0
:104F00004168C943C9070FD00B49012048700B48BD
:104F100041680907890F04D040680007800F022804
:104F200001D1FBF787FE10BD016804221143016027
:104F3000EDE7000000700040D800002000100240A3
:104F400010B500F001F810BD30B5FF24054601345E
:104F5000A5B021461F48FCF729FE1DA8FFF73CFF1E
:104F60001C221DA90FA8FBF7F8F81A481C220FA94C
:104F70002030FBF7F2F8142211A96846FBF7EDF890
:104F800029461DA8109B0F9AFFF756FD1C221DA94C
:104F900016A8FBF7E2F8002069460E940C90C8753D
:104FA0000B900A9018A9069088786946887518A908
:104FB00048786946487518A908786946087510A99F
:104FC000087F08A90875002205A90248FCF70CFF14
:104FD00025B030BD100E002070B5092000F0EBFDAB
:104FE0000446062000F0E7FD0504072000F0E3FD7D
:104FF00000020543082000F0DEFD2843FBF79EFA7F
:105000000022184BFBF790F9FBF7CAFA054600217E
:10501000092001F0F5FB3B2000F0CDFD4026304398
:1050200001463B2001F0ECFB3B2000F0C4FD800674
:10503000FAD40D4800F0C4FE3B2000F0BCFD304324
:1050400001463B2001F0DCFB3B2000F0B4FD800674
:10505000FAD42146092001F0D3FB284600F0B0FE27
:1050600070BD000080844E4000A1BC33FFB52048D5
:105070000D468DB0405D1F4C0B9060681F46169E1C
:105080008047002802D0002011B0F0BDE1680D98E3
:10509000884719480021057101200A900391049165
:1050A0000691079108226B4609960591089086C3E0
:1050B000A76903460B9A0F99B8471048C07C00288F
:1050C00002D00B480C3001E00948801D405D626D44
:1050D0000D30C1B20A989047002E04D0616B0020B9
:1050E00088470120D0E70648616BC068F8E70000F8
:1050F000D48F000820910008200700202C000020F9
:1051000018060020F7B504464068FF26053682B031
:105110001546B0420CD10121A068C903884202D0D3
:105120004911884204D120680168402291430160FE
:105130000095002280212046039B00F090F8202754
:10514000002813D16068B04216D1A068B902884225
:1051500002D0491188420FD1032100950022490253
:105160002046039B00F030F8002805D0206E38431D
:105170002066032005B0F0BD0020FBE7F8B50F4620
:105180000B4615460092032104460022C90200F096
:105190001BF82026002812D13B4600228021204601
:1051A000009500F05CF8002809D103213B4600225D
:1051B00049022046009500F007F8002803D0206E31
:1051C000304320660320F8BDF8B51D4617460E464D
:1051D00004463DE0032149028E4205D1002F03D150
:1051E000017B684601700078681C31D0002D05D025
:1051F000FCF73AF90699401AA84229D32068416879
:10520000E022914341606068C11FFD390CD101214A
:10521000A068C903884202D04911884204D120689D
:1052200001684022914301600120A16A400381424C
:1052300007D121680A6882430A6021680A6802432C
:105240000A60012040346077002020770320F8BDF9
:10525000206881683140B942BCD10020F8BDF8B562
:105260001D4617460E46044633E0681C31D0002D1B
:1052700005D0FCF7F9F80699401AA84229D320680E
:105280004168E022914341606068C11FFD390CD143
:105290000121A068C903884202D04911884204D183
:1052A000206801684022914301600120A16A400307
:1052B000814207D121680A6882430A6021680A682E
:1052C00002430A60012040346077002020770320E9
:1052D000F8BD206881683046884304D00020B84279
:1052E000C3D10020F8BD0120F9E7704701207047C5
:1052F0000349884201D28020704700207047000097
:1053000040DD4A1F0148007A704700009C100020D1
:10531000F3B5014600206B4C8DB000290BD001295C
:105320007ED10025A06A2E46072850D0082851D0EB
:10533000092854D151E02068FBF700F906460F46D2
:105340000E98FBF7FBF802900191302000F033FC3F
:105350004007800F02D000205B4901E00020014699
:1053600008900D46272000F026FC4007400FA1883A
:10537000401C4018FBF7E2F8A279012A20D0002255
:10538000514BFAF71FFF2B46089AFAF71BFF019BB8
:10539000029AFAF717FF227A012A14D00022134644
:1053A000FAF710FF0322FBF79FF832463B46FBF764
:1053B00023F80022454BFAF7B7FF03F0C1FB7DE06D
:1053C00000221346DDE7002201239B07E8E70025C2
:1053D0003F4E04E000253F4E01E03F4E0025E76AC6
:1053E0000120B840FBF796F802460B4628463146A6
:1053F000FBF702F802460B4600203349FAF7FCFFA0
:1054000005460E46608EFBF799F80022334BFAF7FB
:10541000D9FE2A463346FAF787FF2A4C203400E0AB
:105420004EE003910890607C001DFBF787F8079120
:105430000490207C002800D00220381A8000FBF75E
:105440007DF8099106900E98B900C000401AA17D20
:1054500009014018217D002900D01421401A1C3078
:10546000FBF76CF8099B069AFAF7C6FF02F0EAFF11
:10547000079B049AFAF758FF002207460C4613468A
:10548000FBF7C0F802D23846214601E00020014671
:105490000022134BFAF796FE2A463346FAF744FFEA
:1054A000039B089AFAF78EFE0022084BFAF73CFF9E
:1054B0000C4A0D4BFAF786FE03F08CF8FBF770F8F8
:1054C0000FB0F0BDBC1000200000F03F00408F4046
:1054D0008084FE4080840E4180841E410000114083
:1054E000000020402B8716D9CEF7EF3F70B5194941
:1054F00008601949194801F031FE1848164914305E
:1055000001F02CFE15481449283001F027FE00F068
:10551000B7FBFFF761FD002000F0C2FC0D48001D45
:1055200000F040F80E4D002460002618A85D00F041
:105530007FFC70198178407801F062F9641CE4B254
:10554000102CF1D3002000F073FC044800216C38CB
:10555000017270BDF0000020B15A0008081100204F
:10556000409000087CB501240094002322460421C9
:105570000B480194FBF764FD002509482B462A4699
:105580001021D03801950094FBF75AFD0448002300
:105590001A461A21C43801950094FBF751FD7CBDD1
:1055A0009810002010B50446036803220121054825
:1055B000FBF73DFE0348032201210C306368FBF733
:1055C00036FE10BDC80F002070B514460E460546C5
:1055D00000F02EFC304600F0F3FB052000F060FCEC
:1055E0000120FBF7ADFC284600F028FB054600F043
:1055F00035FFA54201DD002070BD012070BD000017
:10560000F8B500256846057092A0FBF783FC934E21
:10561000307A012809D0022859D130466C3001F087
:1056200069FE707A01287DD105E1707A00281AD0D0
:1056300001284CD14021122001F0E2F8122000F0A4
:10564000BAFA6946087008788106844840300090AC
:10565000002968DA2021122001F0D2F80098807E1B
:10566000002876D083E07D4C2034207A012835D183
:105670003F2000F0A0FA69460870087880072DD412
:105680000B213E2001F0BCF810213F2001F0B8F8BA
:105690002046603001F02EFEA07A002818D00D20A0
:1056A00000F089FA402101430D2001F0A9F82046BD
:1056B000743001F0EFFD6A480068002803D00069EB
:1056C000002800D08047257565752584E583F8BDE1
:1056D0006248943001F00EFE3572ECE7E18B614FC9
:1056E00000290AD1208C002807D1A079002831D0C8
:1056F000322000F060FAE083A17F208C091AC9B241
:10570000C01900F07FFAE08B20845448803001F00B
:10571000F1FDA07A002823D00D2000F04CFA4021A2
:10572000014301E08BE033E00D2001F069F84B48C4
:10573000943001F0AFFD4A4800680028C3D0866865
:10574000002EC0D01622A256E18B00234548B04758
:10575000B9E70BE0414801213E3000F053FACBE7B6
:105760003E483572943001F0C5FDE4E735723B48A0
:10577000803001F0BFFD3A4C20680028A7D00069B6
:105780000028A4D038A0FBF7C5FB206800695EE0C4
:10579000192000F010FA314C40B26034207101063B
:1057A00005D5C043401C0006800E474201E00006BC
:1057B000870E1A2000F0FFF92849324A6039C96E75
:1057C000002F09DA914203D901110818C01907E026
:1057D00001110818C01907E0914203D901110818F6
:1057E0009D3802E001110818A438E080132000F071
:1057F000E2F9207201461B4800F004FA0098807E0E
:10580000002800D135721548803001F073FD144D29
:1058100028680028B2D080680028AFD01AA0FBF713
:1058200079FB042306222868E356A25E217A846865
:105830000C48A047F8BD0821122000F0E1FF0848FD
:10584000357200680028F5D000680028F2D0804743
:10585000F8BD00000D0A2030200D0A009C10002029
:10586000F0000020BC0E00200D0A526164696F45F3
:1058700076656E74732D3E52784572726F72282071
:10588000290D0A0040DD4A1F0D0A526164696F4507
:1058900076656E74732D3E5278446F6E650D0A0006
:1058A000F8B532A0FBF736FB324E334F3446E03CBE
:1058B0002546307AFF35FF3421350134012811D0D7
:1058C000022826D1707A002823D1E18B208C0A1A75
:1058D000E9788A4244DDC01900F0B8FF208CE978ED
:1058E00040183BE0707A002814D0012811D12148DB
:1058F000803001F0FFFC8021122000F081FF0020A9
:1059000030721E480068002803D0C068002800D00C
:105910008047F8BDE08B002809D1208C002806D1F3
:10592000A07900280FD0322000F045F9E083E18B08
:10593000208C0A1AA9788A420BDDC01900F062F99E
:10594000208CA978CCE70B4801213E3000F05AF9B1
:10595000EDE7D1B2C01900F055F905E02084F8BD9B
:10596000D1B2C01900F072FFE08BF7E70D0A2031C9
:10597000200D0A009C100020BC0E0020F00000202A
:1059800070B52C482C4C0246037A4032417AD07DC7
:10599000012B04D0022B01D1002902D170BD0029B6
:1059A00016D00129FAD10128F8D10221122000F0E5
:1059B00027FF20680028F1D040690028EED01C2085
:1059C00000F0F9F8216880064969800E884770BDAB
:1059D0001848184CE038006C01252034002827D0E6
:1059E000207D0128F3D1607D0028F0D1114894304A
:1059F00001F080FC6575112000F0DDF840084042A0
:105A0000A0751B2000F0D7F805021C2000F0D3F889
:105A10002843FAF793FD0022084BFAF785FCFAF7C2
:105A20009BFDA0610C2000F0C6F84009207770BDF6
:105A30002575D8E79C100020F000002080844E409F
:105A400010B51248407A00281FD001281DD112201D
:105A500000F0B1F80E4CC0070BD00521122000F069
:105A6000CFFE2068002810D0816900290DD00120C8
:105A70000AE00421122000F0C3FE2068002804D0B0
:105A80008169002901D00020884710BD9C100020AA
:105A9000F00000200548407A002806D10348203055
:105AA000017D002901D10121017570479C10002062
:105AB000F8B52E4E307A01282BD0022828D100F0DC
:105AC000DFF8FFF789FA002000F0EAF9284D0024FA
:105AD00060002718E85D00F0ABF97819817840780C
