:020000040800F2
:1000000098050020C9000008711D0008491B000860
:1000100000000000000000000000000000000000E0
:100020000000000000000000000000002F20000879
:100030000000000000000000B91D0008E1230008D6
:10004000DB00000800000000DB000008DB00000807
:10005000DB000008DB000008DB000008DB00000814
:1000600000000000DB000008DB000008DB000008E7
:10007000DB000008DB000008DB00000800000000D7
:10008000DB000008DB00000800000000DB000008C7
:10009000DB000008DB000008DB000008DB000008D4
:1000A000DB000008DB000008DB000008DB000008C4
:1000B000DB0000080348854600F04AFA0048004784
:1000C000D1300008980500200448804704480047C4
:1000D000FEE7FEE7FEE7FEE7FEE7FEE76D24000829
:1000E000B500000830B50B4601460020202201244F
:1000F00009E00D46D5409D4205D31D469540491B5C
:100100002546954040191546521E002DF1DC30BDA4
:1001100010B5202A04DB0846203AD040002110BD4B
:100120000B46D340D0402024A21A914008431946E0
:1001300010BDD2B201E00270401C491EFBD27047D4
:100140000022F6E710B513460A4604461946FFF7A3
:10015000F0FF204610BD421C0178401C0029FBD155
:10016000801A7047F0B51FB40646002082B00546DD
:100170004024019100901BE0019922460F46304631
:10018000FFF7C6FF049A059B801A994110D31046C9
:100190001946224600F0EEF9361A8F4101972246A1
:1001A00001200021009F00F0E5F938184D41009032
:1001B0002046641E0028DFDC019B00982946324659
:1001C00007B0F0BDF0B507460846584087B0C00FED
:1001D000049048000E46590040084908BC1A88415E
:1001E00005D2384631461E4617460B460246580091
:1001F000400810434CD0300D039040055900400D8D
:10020000490D0590401A0290402872DA1803012126
:10021000000B09050843019004980092002805D0BE
:100220000199524200208841009201900298402199
:100230000A1A0199009800F09DF905460C466B4694
:1002400007CB00F0A7F9C0197141039A0E0D0023E6
:10025000D71756401A467A40164344D0049A002ACB
:100260002DD0029A012A039A15DC1205C01A914179
:1002700001263605001C7141D20F059ED20700935E
:10028000019202962A46234600F0A4F907B0F0BD79
:1002900038463146FAE71605224A0F46B218C01A08
:1002A000B74101210905001C4F4100187F4111464B
:1002B00018187941E20F10436D19644113E0E20709
:1002C0006D0815436408C2071443039A01261205FA
:1002D000C01A91413605001C7141CE0740083043D9
:1002E0004908C01851412A46234600F066F9CDE777
:1002F000FFE7049801224000C117121A00238B4126
:1003000004983146C417381AA141EEE730B40124ED
:10031000E407634030BC55E730B40124E407614092
:1003200030BC4FE70000E0FFF0B51FB488B00B9978
:100330000998002448400999C00F490049080991CB
:10034000C0070B990090490049080B91099908983A
:10035000A64608431CD00B990A98084318D0099860
:1003600001244000420D4800410D09982405000376
:10037000000B204309900B980003000B20430B90C7
:1003800050181C494018002201901446104605E000
:10039000002001460DB0F0BD032801DA034600E05D
:1003A00003239C46C11A0AAE0AE05F0008ADED5B6C
:1003B0004F00F75B7D430027AA187C41491C5B1E58
:1003C0006145F2DD410004AB5A522104120C0A438C
:1003D000240C401C0828DFDB01980290009970462D
:1003E00001910090059B049A0799069800F0F2F895
:1003F000D0E700000DFCFFFFF0B50C465C4085B077
:10040000E40FE40703944C00002664085900944666
:10041000490802460296224321D062460A431ED072
:100420006200570D4A000E032303550D01240246B6
:100430002C492405781B1B0B360B401823432643FD
:10044000614600901C46501AB44103D30098401CEA
:10045000009002E0921800985B41002803DA002027
:10046000014605B0F0BD002001210905074686467A
:1004700011E064461D46141BB54106D36546521B68
:10048000B341744607430C43A646CD0740084908CC
:10049000284392185B4105460D43EAD110461843A4
:1004A00013D06046194650407140084306D060465C
:1004B000101AB34106D20122002306E000220123D4
:1004C000DB0702E00122D243531000987446010575
:1004D000381C6141029C039D0019694100F06DF8D0
:1004E000BFE70000FD0300004A0009030123090BD8
:1004F0001B0519430A4B10B5520D9A4202DA00202F
:10050000014610BD064B34339A4203DC9A1AFFF7BA
:10051000FFFD10BD034BD21800F02CF810BD0000F9
:10052000FF030000CDFBFFFF10B5002904DB012411
:10053000E40740428C412146002B04DB1C4601238A
:10054000DB075242A341994200D1904210BD000006
:10055000064C0125064E05E0E36807CC2B430C3C16
:1005600098471034B442F7D3FFF7A8FD7431000860
:100570009431000810B5202A04DB0146203A91404E
:10058000002010BD914020239C1A0346E3401943EC
:10059000904010BD10B5202A06DBCB170846203A44
:1005A0001041C1170B4306E00B461341D0402024F5
:1005B000A21A91400843194610BD10B5002B08DA65
:1005C0000024401C614192185B411A4301D140084C
:1005D000400010BDF0B51FB482B005460C0003D03A
:1005E000084602F0BBF802E002F0B8F820300246FC
:1005F000009021462846FFF7BDFF049B059A04465C
:100600000F4618431143084314D0184610431BD01B
:10061000009840210A1A18460599FFF779FD05460A
:100620000E46009A05990498FFF7A4FF084305D0E9
:10063000012004E02046394607B0F0BD0020C11774
:1006400005430E432C43374300990E986305401A27
:100650007905E40A00220C43FD0A0A3002D5002085
:100660000146E9E70105101969410C9C0D9D00192F
:100670006941FFF7A2FFDFE70FB400B5B3B035AAB9
:100680006846349902F058F86846FFF764FDC2B234
:100690000A236946034801F0F3F933B008BC04B0FB
:1006A000184700001801002001A0FFF7E5FFFBE755
:1006B0005468652070726F6772616D2069732045A0
:1006C00072726F720000000031B500F0B5F8009C46
:1006D0000546601C00D0641C00F0AEF8401BA04230
:1006E000FAD338BDF8B500238DE001249C40A44620
:1006F00022407DD04C68022C01D0122C0CD1DC0899
:10070000A40027183C6A5D07ED0E0F26AE40B443E7
:100710000E69AE4026433E6205685E000324B44085
:100720000F79A543BF07BF0FB7402F4307604D6840
:10073000012D05D0022D03D0112D01D0122D0ED187
:100740008568CF68A543B7402F43876047686546F3
:10075000AF430D79ED06ED0F9D403D434560C56803
:10076000A5438C68B4402C43C4604C68E40049D570
:10077000284CA56901263543A561A4699D0834402C
:100780000094254CAD002F19BC689D072E0F0F2536
:10079000B540AC430925ED06A84201D100250FE084
:1007A0001E4DA84201D101250AE01D4DA84201D1EC
:1007B000022505E01B4DA84201D1032500E00525D7
:1007C000B5402543BD60184C25684E689543F60337
:1007D00000D51543256065684E689543B60300D57E
:1007E00015436560A5684E689543F60202D500E0A2
:1007F00008E01543A560E5684E689543B60200D54C
:100800001543E5605B1C0A681446DC4000D06CE7C9
:10081000F8BD000000100240000001400004004844
:1008200000080048000C004800040140002A01D0E4
:10083000816170478162704701480068704700001D
:100840001C00002002480168491C0160704700003C
:100850001C00002010B506480168102211430160F9
:10086000002000F007F800F017F8002010BD00008D
:100870000020024010B5044600F030F97D21C90087
:10088000FFF730FC01F06CF800222146501E00F00A
:1008900017F8002010BD000008B508488169012242
:1008A00011438161816911400091C26901040A43C9
:1008B000C261C0690840009008BD000000100240FD
:1008C00010B501F057FA10BDF8B505460068354C73
:1008D000C00352D5E0690026C00007D4E1692004B6
:1008E0000143E161E1690140012600912E48016860
:1008F000C90510D40168821511430160FFF79CFF00
:10090000074604E0FFF798FFC01B642824D8264858
:100910000068C005F6D5206A03273F02384020D082
:100920006968394081421CD0206A226AB84301219B
:1009300009040A432262226A8A4322622062C007B3
:100940000FD0FFF779FF009008E0FFF775FF0099DF
:10095000411A1648814201D90320F8BD206A800758
:10096000F3D5206A6968B84308432062002E04D09A
:10097000E169012000078143E1612878C00705D0C3
:10098000206BA968800880000843206328788006CF
:1009900005D5206B10218843E968084320630020B7
:1009A000F8BD0000001002400070004088130000F5
:1009B000F8B5054644480E460068C007C00FB0426F
:1009C0000AD2414801684908490031430160006882
:1009D000C007C00FB0425CD128783C4C800705D5D9
:1009E0006068F0218843A968084360602878C007E0
:1009F0003FD06868012813D02168022813D08907E6
:100A0000002946DA61688908890001436160FFF7BF
:100A100013FF6968074601290DD0022917D024E089
:100A200021688903ECE78901EAE7FFF705FFC11BAD
:100A30002748814217D860680007800F0128F4D149
:100A400017E0FFF7F9FEC11B214881420BD860680F
:100A50000007800F0228F4D10BE0FFF7EDFEC11B69
:100A60001B48814201D90320F8BD60680007800F50
:100A7000F3D115480168C907C90FB1420BD9016804
:100A800049084900314301600068C007C00FB04207
:100A900001D00120F8BD2878400706D560680721FD
:100AA00009028843E9680843606000F02DF8616836
:100AB000084A0906090F515CC84007490860002030
:100AC000FFF7D8FE0020F8BD0020024000100240D1
:100AD000881300005C3100082000002001480068F5
:100AE000704700002000002004480549006849685C
:100AF000044A4905490F515CC84070472000002056
:100B0000001002406C31000810B512A30FCB88B062
:100B10006C460FC413A30FCB0FC416494A680C20B0
:100B2000134603401448042B0FD0082B0DD1930219
:100B30001B0F6C46E45CC96A04AB0907090F595CDA
:100B4000D20304D5FFF7CEFA604308B010BD0B48BE
:100B50006043FAE702030405060708090A0B0C0DB7
:100B60000E0F10100102030405060708090A0B0CFA
:100B70000D0E0F100010024000127A0000093D0017
:100B8000FEB504460078D04DC00747D0686800071E
:100B9000800F012807D068680007800F022809D15C
:100BA0006868C00306D52868800337D560680028C8
:100BB0007ED033E0012062680004012A11D0810058
:100BC000002A01D0052A10D02A6882432A602868AA
:100BD000884328606068002814D0FFF72DFE064681
:100BE0000CE0296801432960F4E72A680A432A6077
:100BF000F7E7FFF721FE801B64286FD82868800381
:100C0000F7D50BE0FFF718FE064604E0FFF714FEE9
:100C1000801B6428F1D828688003F7D42078012647
:100C2000800700283BDA68680007800F07D06868F3
:100C30000007800F022809D16868C00306D428681D
:100C4000800715D5E068012832D111E0E06800285E
:100C5000286815D030432860FFF7EEFD074604E012
:100C6000FFF7EAFDC01B0228C7D828688007F7D520
:100C70002868F82188432169C900084328600EE0EC
:100C8000400840002860FFF7D7FD074604E0FFF763
:100C9000D3FDC01B0228B0D828688007F7D420787D
:100CA000000724D5E0690028686A10D0304300E0CE
:100CB00008E16862FFF7C0FD074604E0FFF7BCFDEE
:100CC000C01B022899D8686A8007F7D50FE0400852
:100CD00040006862FFF7B0FD074605E09DE0FFF7C2
:100CE000ABFDC01B022888D8686A8007F7D420783B
:100CF00004274007002860DA00200190E869C0005E
:100D000008D4E969B8060143E961E96901400120B5
:100D1000009101906D480168C90511D401688215E0
:100D200011430160FFF788FD009005E0FFF784FDA7
:100D30000099401A642870D864480068C005F5D549
:100D4000A06801280AD0002801D0052810D0286A00
:100D5000400840002862286AB84301E0286A30430E
:100D60002862A068002812D0FFF766FD00900AE014
:100D7000286A38432862F1E7FFF75EFD0099411ABF
:100D80005348814249D8286A8007F5D50DE0FFF71E
:100D900053FD009006E0FFF74FFD0099411A4C48C3
:100DA00081423AD8286A8007F5D40198002804D0F7
:100DB000E969012000078143E9612078C00635D543
:100DC000606901280CD0401D686B23D038436863EC
:100DD000686B400840006863FFF72EFD064622E07E
:100DE000686B38436863686B30436863FFF724FDC2
:100DF000064604E0FFF720FD801B02285BD8686BE5
:100E00008007F7D5686BF8218843A169C9000843BA
:100E100068630BE0B8436863F4E74CE0FFF70CFD50
:100E2000801B022847D8686B8007F7D4206A002807
:100E300046D069680907890F022943D00126360682
:100E40000228286805D0B0432860FFF7F5FC044667
:100E500033E0B0432860FFF7EFFC074604E0FFF7FC
:100E6000EBFCC01B022826D828688001F7D4E86A6A
:100E7000E16A000900010843E862616AA06A084368
:100E800069683D2212049143084368602868304332
:100E90002860FFF7D1FC044604E0FFF7CDFC001BFF
:100EA000022808D828688001F7D509E0FFF7C4FCBC
:100EB000001B022801D90320FEBD28688001F5D45B
:100EC0000020FEBD0120FEBD001002400070004069
:100ED0008813000070B50446007F012818D0012552
:100EE0002577022060772168CA2048622168532054
:100EF0004862204600F08CFF02460020FF21002AB5
:100F0000226807D05162042161772077012070BDEB
:100F1000022070BD93681026334393602268D36823
:100F20008026B343D3602268516265772077002022
:100F300070BD000030B5027F012A1CD00123037769
:100F4000022242770468A2680C4D2A400A43CA2153
:100F5000616204685321616201688A6001688A687D
:100F6000DC0222438A600268FF215162437700213C
:100F70000177084630BD022030BD0000F7F7FFFFC3
:100F800070B5040003D0607F002802D006E0012085
:100F900070BD00202077204600F04CF802206077DA
:100FA0002168CA204862216853204862204600F028
:100FB0002FFFFF250426002824D1206881681C4AC1
:100FC0001140816021688868626863691043226902
:100FD0001A43104388602168E0680861206801694D
:100FE00022891204114301612068C1688022914363
:100FF000C16020688068800608D4204600F084F92B
:10100000002803D0206845626677C0E72068016C3D
:1010100001229204914301642068016CA26911438A
:1010200001642068456201206077002070BD0000E7
:10103000BFFF8FFF00680549884205D10448016A57
:101040000122D203114301627047000000280040D2
:1010500000100240F8B50446007F0B4601283CD042
:10106000012020770220607720681F460026203765
:101070008068002A33D0400648D5187800F0B5FEC5
:10108000387800F0B2FE18789D780004054358784F
:10109000D9780002090408430543387899690006A5
:1010A0000543D869054358690543586808430090CB
:1010B0002168CA20486221685320486220688168FC
:1010C000FF220132914381602068816812019143BF
:1010D0008160FFF7B1FB074628E00220F8BD40061B
:1010E00000D4DE70187800F088FE0504587800F00F
:1010F00084FE00020543987800F07FFE0543D8780F
:1011000000040543387800F078FEC7E7DE70B7E7E3
:10111000FFF792FBC11B7D20C000814206D92168E8
:10112000FF204862032060772677F8BD2068C068FA
:10113000C007EDD02068C561216800984864206828
:101140008168FF220132114381602168FF204862DB
:101150000120607726770020F8BD0000F8B504462E
:10116000007F0B46012815D00120207702206077F0
:101170005878002A10D000F038FE987800F035FE3C
:10118000D8789D78000405435878197800024903FF
:10119000084316E00220F8BDC10603D5EF21084040
:1011A0000A305870D87800F028FE0504587800F00E
:1011B00024FE00020543987800F01FFE05431878CE
:1011C000400305432168CA204862216853204862D1
:1011D000204600F01DFE0026FF27002811D11048F0
:1011E0000540206845602068C16880229143C16045
:1011F0002068806880060BD4204600F085F800281F
:1012000006D0206847620420607726770120F8BD69
:10121000206847620120607726770020F8BD000033
:101220003FFFFF00F8B50446007F0D4601280ED0B1
:101230000120207702206077206800278068002A3C
:1012400007D0400618D5287800F0CFFD15E0022021
:10125000F8BD400600D4EF70287800F0CEFD0604FB
:10126000687800F0CAFD00020643A87800F0C5FDCA
:101270000643E878000409E0EF702878AE780004AF
:1012800006436878E97800020904084306432168A8
:10129000CA204862216853204862204600F0B8FD09
:1012A00000281ED117480640206806602068816823
:1012B00001229204914381602969E868084321680A
:1012C0008A68104388602068C16880229143C160A9
:1012D0002068806880060CD4204600F015F80028AD
:1012E00007D02168FF20486204206077277701201B
:1012F000F8BD2168FF204862012060772777002031
:10130000F8BD00007F7F7F0070B504460068C168AB
:10131000A0229143C160FFF78FFA7D260546F600B3
:1013200006E0FFF789FA401BB04201D9032070BDE7
:101330002068C0688006F4D5002070BDF8B50400B0
:1013400007D0002625464035A662687F002802D0D7
:1013500005E00120F8BD2E77204600F04BF802236F
:101360006B77206801684022914301600721E068A3
:101370000902884201D9002201E0012212030F274D
:101380003F02B84202D0884200D0A662276B002FED
:1013900005D1884201D9236301E001202063A168BF
:1013A0006068636908432169194308430123A169FF
:1013B0005B0219400843E1690843216A0843A16AB6
:1013C000084321680860616B606AA36908431B0CCD
:1013D0000427E1683B4019430843216810434860F3
:1013E0002068C1697A029143C1612666012068774D
:1013F0000020F8BD10B586B0044614216846FEF7FB
:101400009FFE1149206888421CD1104882698114CE
:101410000A43826182690A400592426949010A438E
:101420004261406908400590E02000900220019050
:101430000021032003900291049109206946C0060F
:10144000FFF750F906B010BD003001400010024017
:10145000FFB504460E464068FF21254600270531AA
:10146000403581B0884202D1A06800280CD0287F86
:10147000012815D001202877FFF7DEF90090687F5A
:1014800001280FD0022789E0042068770498009093
:10149000324611462046039B00F03EF905B0F0BDF0
:1014A0000220FBE7002E78D00398002875D0042096
:1014B00068770020206626640399A9800399E98053
:1014C000A063A087E087E064206507200121E2682F
:1014D0000002090382422268536801D98B4300E06D
:1014E0000B4353600122A168D203914205D12168C8
:1014F0000A6801239B039A430A6021680A6852061E
:1015000003D40A6840231A430A60E168814218D96B
:1015100034E020688168C90706D0007B3070E88815
:10152000401EE880761C0CE00498002824D0401C63
:1015300007D0FFF781F901460098091A0498814203
:101540001AD2E8880028E4D11BE020688168C90726
:1015500006D0C0683080E888401EE880B61C0DE0E8
:101560000498002808D0401C08D0FFF765F90099BE
:10157000411A0498814201D303270FE0E88800282C
:10158000E3D12046009A049900F05EFC002801D0C7
:1015900020202066206E002800D0012701206877D7
:1015A00000202877384679E7FFB5064604464036DE
:1015B000307F002781B00D46012809D00120307707
:1015C000FFF73AF90090707F012804D002279DE0D0
:1015D000022005B0F0BD002D72D0039800286FD016
:1015E0000320707700202066A5630399A1870399E3
:1015F000E1872064B080F0802065E0640121A0686C
:10160000C903884205D12068016801229203114371
:10161000016020680168490603D401684022114333
:1016200001600720E16800028142606823D9002838
:1016300002D0E08F01281AD121682888C86005E00F
:1016400020688168890706D52988C160E08F401E1F
:10165000E087AD1C0BE0049800283ED0401C06D06B
:10166000FFF7EAF80099411A0498814235D2E08FD9
:101670000028E5D136E0002802D0E08F01282ED1E5
:10168000E08F012803D921682888C8600CE0216810
:10169000287808730FE020688168890711D5E18FE9
:1016A000012906D92988C160E08F801EE087AD1C22
:1016B00015E029780173E08F401EE0876D1C0EE075
:1016C00023E00498002808D0401C08D0FFF7B4F8A5
:1016D0000099411A0498814201D3032716E0E08F54
:1016E0000028D8D12046009A049900F0E9FB002890
:1016F00001D020202066A068002803D12068C1689E
:1017000080680090206E002800D0012701207077AB
:101710000020307738465CE7FFB5044683B00120EF
:10172000254640350090287F00270E4601280FD01F
:1017300001202877FFF780F80190687F6168012811
:101740000DD0CA1FFD3A08D1A168002905D102E0D9
:10175000022007B0F0BD042801D00227FAE0002ED5
:101760007CD005980028FBD006980028F8D0687F28
:10177000042801D00520687700202066059921649F
:101780000699E9800699A980A6630699E1870699DA
:10179000A187E06420650723E1681B02994202D813
:1017A000E888012806D920684268012109038A4394
:1017B000426005E020684168012212031143416044
:1017C00020680168490603D4016840221143016082
:1017D000E1686068994242D9002802D0E08F012870
:1017E00035D121683088C860E08F401EE087B61C84
:1017F0002DE0009800280ED0E08F00280BD0206844
:101800008168890707D53188C160E08F401EE08775
:101810000020B61C0090E88800280ED0206881685F
:10182000C9070AD0C068059908800598801C0590F2
:10183000E888401EE880012000900C98401C06D0EB
:10184000FEF7FAFF0199411A0C9881426DD2E08FA0
:101850000028CED1E8880028CBD16EE079E00028BE
:1018600002D0E08F012862D1E08F012807D92168DA
:101870003088C860E08F801EE087B61C57E0216882
:1018800030780873E08F401EE087761C4FE00098A8
:10189000002818D0E08F002815D0206881688907BB
:1018A00011D5E18F012906D93188C160E08F801EF2
:1018B000E087B61C05E031780173E08F401EE087B9
:1018C000761C00200090E888002824D020688168D9
:1018D000C90720D0E988012912D9C0680599088074
:1018E0000598801C0590E888801EE880E88801281B
:1018F0000FD820684168012212031143416008E0BB
:10190000017B059801700598401C0590E888401EF1
:10191000E880012000900C98401C08D0FEF78CFF56
:101920000199401A0C99884201D3032712E0E08FF5
:101930000028ACD1E8880028A9D12046019A0C994A
:1019400000F0BEFA002801D020202066206E00287A
:1019500000D0012701206877002028773846F8E674
:10196000094910B5401E884201D9012010BD074C1D
:1019700060610321081F00F0FDF90020A06107202D
:101980002061002010BD0000FFFFFF0000E000E02C
:1019900070B5040005D025466035687A002802D06D
:1019A00006E0012070BD00202872204600F026F8D5
:1019B00024206872206801684908490001602046B7
:1019C00000F0F0FD0128EDD0606A002802D020462A
:1019D00000F07AFD206841680122D2029143416003
:1019E0002068816808229143816020680168012293
:1019F00011430160204600F0CCFD70BDF0B587B00A
:101A0000044614216846FEF79BFB1A4F0121266805
:101A1000002219484904022303240125BE420ED1A5
:101A20008769CE10374387618769374005974669D4
:101A30000E43466140690840059060020FE00F4F79
:101A4000BE4215D1C6690E43C661C6690E400596F1
:101A500046690E4346614069084005900C2000909D
:101A6000019302AE34C609206946C006FEF73AFE6D
:101A700007B0F0BD003801400010024000440040B3
:101A8000FFB5064604466036707A83B00D462028BE
:101A900058D1002D0CD00598002809D00120A1684C
:101AA0000003814207D12069002804D1E80702D051
:101AB000012007B0F0BD307A012843D001203072F8
:101AC0000020E06621207072FEF7B6FE01902746E6
:101AD0004037059838820598788218E0788A401E49
:101AE000788206980090002280212046019B00F019
:101AF000F1FD002818D10120A1680003814202D124
:101B00002069002812D02168287808856D1C788A01
:101B10000028E3D106980090002240212046019B36
:101B200000F0D8FD002808D00320C2E728882168EB
:101B3000C005C00D0885AD1CE9E7202070720020AB
:101B40003072B6E70220B4E7FEE70000F0B587B0D8
:101B500014216846FEF7F4FA1F4842690121C904BE
:101B60000A43426142690A400592426989100A4368
:101B7000426142690A400592426949000A43426152
:101B800040690022084012218E0605903046FEF77B
:101B90004DFE124F002203213846FEF747FE002477
:101BA000012501946946304600950294FEF79AFD9E
:101BB0001220009002946946019503943046FEF786
:101BC00091FD0320009002946946019503943846E4
:101BD000FEF788FD07B0F0BD001002400004004889
:101BE00030B591B014216846FEF7AAFA00242821E6
:101BF00006A80594FEF7A4FA2C492D4812C07F21AF
:101C000001608460C460FF21046141600838FFF70F
:101C1000B7F9002801D0FEF747FD6846047044700C
:101C2000847003940122694621480494FFF7FAFA6C
:101C3000002801D0FEF738FD012568460575457579
:101C40008575C4752A4605A91948FFF787FA002843
:101C500001D0FEF729FD6846047644768476079421
:101C600009940A940B940C9408A80D940576FF200F
:101C700001300F90012206A90D48FFF7EBF900286B
:101C800001D0FEF711FD002211460948FFF752F975
:101C9000002801D0FEF708FD0548FFF71BF90028D2
:101CA00001D0FEF701FD11B030BD0000002800405A
:101CB0002400002010B511480F490160FF210531B3
:101CC000416000210322816012020161C260416112
:101CD000C161012201625202416282618162072276
:101CE000C262016308214163FFF728FB002801D08D
:101CF000FEF7DAFC10BD0000003001404400002077
:101D000010B50C480A490160E121490241600021F7
:101D10008160C16001618161C1610C220162426127
:101D20004162FFF735FE002801D0FEF7BDFC10BD73
:101D300000380140A800002010B50C480A49016095
:101D4000E1214902416000218160C160016181613E
:101D5000C1610C22016242614162FFF719FE002855
:101D600001D0FEF7A1FC10BD004400401801002086
:101D7000704700008307FF22DB0E9A408907090E97
:101D8000994000280BDA0007000F0838830808483C
:101D90009B001818C36993430B43C36170478308C2
:101DA00004489B001B18186890430843186070474C
:101DB00000ED00E000E400E0704710B5012000F005
:101DC000D3F99F21112000F072FAFF21242000F0A6
:101DD0006EFA0021402000F06AFA0021412000F054
:101DE00066FA052000F0C0F910BD01090A220007BB
:101DF0005143000F4018C0B27047002102E00A387A
:101E0000C0B2491C0A28FAD20907090E08437047D4
:101E100070B504460068C168490613D40021C9435F
:101E2000C160FEF709FD7D260546F60006E0FEF7D7
:101E300003FD401BB04201D9032070BD2068C0687B
:101E40004006F4D5002070BDF7B504464068FF2673
:101E5000053682B01546B0420CD10121A068C903F5
:101E6000884202D04911884204D12068016840228A
:101E7000914301600095002280212046039B00F0E1
:101E800090F82027002813D16068B04216D1A068CE
:101E9000B902884202D0491188420FD1032100952E
:101EA000002249022046039B00F030F8002805D0AC
:101EB000206E38432066032005B0F0BD0020FBE70C
:101EC000F8B50F460B461546009203210446002242
:101ED000C90200F01BF82026002812D13B46002240
:101EE00080212046009500F05CF8002809D10321EC
:101EF0003B46002249022046009500F007F80028E2
:101F000003D0206E304320660320F8BDF8B51D468F
:101F100017460E4604463DE0032149028E4205D194
:101F2000002F03D1017B684601700078681C31D016
:101F3000002D05D0FEF780FC0699401AA84229D34F
:101F400020684168E022914341606068C11FFD390B
:101F50000CD10121A068C903884202D049118842EE
:101F600004D1206801684022914301600120A16AE8
:101F70004003814207D121680A6882430A602168D0
:101F80000A6802430A60012040346077002020770D
:101F90000320F8BD206881683140B942BCD10020DF
:101FA000F8BDF8B51D4617460E46044633E0681CDA
:101FB00031D0002D05D0FEF73FFC0699401AA8420B
:101FC00029D320684168E022914341606068C11FC5
:101FD000FD390CD10121A068C903884202D0491102
:101FE000884204D1206801684022914301600120A9
:101FF000A16A4003814207D121680A6882430A60CE
:1020000021680A6802430A6001204034607700209A
:1020100020770320F8BD206881683046884304D0CB
:102020000020B842C3D10020F8BD0120F9E7704775
:1020300010B533210A2000F03AF90A2000F00CF91B
:1020400001461CA0FEF718FB002000F08DF8802050
:1020500000F04AF8012000F087F80021402000F04D
:1020600026F90021412000F022F900F09DF8134CE0
:10207000E07800F0ABF8207800F0C4F8607800F069
:102080003FF8012000F07CF8A07800F0ADF80020C7
:1020900000F044F8FF2000F081F8094800F0C3F890
:1020A000012000F047F807A0FEF7E6FAFFF785FEEB
:1020B00010BD000025780D0A00000000000000207F
:1020C000FF0300004C6F5261204368697020535831
:1020D0003132377820496E697469616C20646F6EA3
:1020E00065210D0A0000000010B50446012000F033
:1020F000B3F84106490E2143012000F0D8F810BD85
:1021000010B504461D2000F0A7F8F1210840610039
:102110000843C1B21D2000F0CAF810BD10B5044636
:102120001D2000F099F84108490021431D2000F0CE
:10213000BEF810BD10B50446262000F08DF8F7213A
:102140000840E1000843C1B2262000F0B0F810BDFD
:1021500010B50446312000F07FF8C108C9002143C2
:10216000312000F0A4F810BD10B50446012000F0A5
:1021700073F8C108C9002143012000F098F810BD90
:1021800010B504461E2000F067F8FB210840A100AE
:102190000843C1B21E2000F08AF810BD10B50146F8
:1021A000222000F084F810BD10B5074C06202178DD
:1021B00000F07DF86178072000F079F8A178082018
:1021C00000F075F810BD00000800002010B50446AE
:1021D00087214D2000F06BF80248015D092000F0D6
:1021E00066F810BD0B00002010B504461D2000F05D
:1021F00033F80007000F21010843C1B21D2000F091
:1022000056F810BD10B504460320FFF7A1FF1E20AD
:1022100000F022F80007000F21010843C1B21E2080
:1022200000F045F810BD70B504461E2000F014F80B
:1022300005461F2000F010F8210AA808FC228000A3
:1022400091430843C1B2E4B21E2000F030F82146A9
:102250001F2000F02CF870BD70B509250446ED066E
:10226000002210212846FEF7E1FA6006400E00F039
:102270001FFF00F007FF0446012210212846FEF749
:10228000D5FA204670BD10B50924E40600220221CB
:102290002046FEF7CBFAC820FEF716FA01220221EB
:1022A0002046FEF7C3FAC820FEF70EFA10BD70B53F
:1022B00009250E460446ED06002210212846FEF7A9
:1022C000B5FA20468021084300F0F2FE304600F0C7
:1022D000EFFE012210212846FEF7A8FA70BD00008B
:1022E00070B51220FFF7B8FF3B4C4106207134D582
:1022F0001E20FFF7B1FF607140072AD500210D2095
:10230000FFF7D5FF1320FFF7A7FF0925A071ED0602
:10231000002210212846FEF789FA002000F0C8FEAE
:10232000A0790A2801D90A20A0710020E0712B4E63
:1023300006E000F0A7FE0146E0793154401CE07150
:10234000A179C0B28842F4D3012210212846FEF7B9
:102350006DFA224800F084FE01E001070CD501204F
:10236000FFF702FF9F211120FFF7A1FFFF2124208B
:10237000FFF79DFF00210FE0410701D5C00714D0F2
:102380000120FFF7F1FE9F211120FFF790FFFF21B1
:102390002420FFF78CFF02214020FFF788FF002157
:1023A0004120FFF784FF05200FE00120FFF7DCFE4E
:1023B000FF211120FFF77BFF00214020FFF777FF6F
:1023C00000214120FFF773FF0020FFF7CDFEFF2122
:1023D0001220FFF76CFF70BD000000208801002074
:1023E00010B5FEF72FFA10BD30B595B03021684614
:1023F000FDF7A6FE00240F940A2000900D94012002
:102400000C9412941194039007900E94032013944B
:10241000C00410941021022509940A900895049193
:102420000B946846FEF7ACFB002801D0FEF73CF9A0
:1024300007200C900E9401210D950F940CA8FEF727
:10244000B7FA002801D0FEF72FF907481090C01105
:102450001190129410A8FEF737FA002801D0FEF769
:1024600023F915B030BD00000100010013480168D8
:102470000122114301604168114A11404160016825
:10248000104A1140016001680122920491430160E9
:1024900041683F22120491434160C16A0909090160
:1024A000C162016BFF22143291430163416B490801
:1024B0004900416300218160704700000010024024
:1024C0000CB8FF08FFFFF6FE10B5818CC90707D0D6
:1024D00001684A6801235B049A43836A1A434A608D
:1024E000818C890707D501684A6801231B049A4338
:1024F000C36A1A434A60818C490707D501684A6854
:1025000001239B049A43036B1A434A60818C090799
:1025100007D501684A680123DB039A43436B1A43DA
:102520004A60818CC90607D50268916801231B03A4
:102530009943836B19439160818C890607D50168A3
:102540008A6801235B039A43C36B1A438A60818CB8
:10255000490612D503685A6801210905046C8A43AB
:1025600022435A60026C8A4207D1026851680323F1
:102570005B059943436C19435160818C090607D56B
:1025800001684A680123DB04806C9A4302434A6075
:1025900010BD0021C1662022603042728272017239
:1025A00008467047F8B504462369A268E5691A43EE
:1025B000636910202B43002125681A432B680E46BF
:1025C0003E4F3B4013432B6023685A6803252D037D
:1025D000AA43E5682A435A60236AA26925681A4318
:1025E000AB680B273F02BB431343AB60344A2568FB
:1025F000954210D1334A126B9207920F0ED0012AE6
:1026000005D0022A05D0032A09D1022007E00420C0
:1026100005E0082003E02C4A954200D10020012269
:10262000E369D203934224D100280CD002280DD0B4
:10263000042813D0082817D001260A091201080718
:10264000400F10432FE0FEF74FFA09E061681F4A80
:1026500048088018FDF746FD81B2EEE7FEF754FA10
:10266000616840004A08F4E76168012248081204E2
:10267000EFE7002808D0022809D004280BD008284A
:1026800014D001263046F8BDFEF72EFA05E0616849
:102690000F4A48080CE0FEF737FA61684A088018CC
:1026A000FDF720FD80B22168C860EBE7616848084B
:1026B0008018FDF717FD80B2E860E3E7F369FFFFDC
:1026C0000038014000100240004400400024F400A3
:1026D00000127A00FFB581B017460E4604460A9DE7
:1026E0001DE0681C1BD0002D05D0FEF7A5F804994D
:1026F000401AA84213D920680168FF22A1329143F1
:1027000001602068816849084900816020206034A8
:102710006072A07200202072032005B0F0BD206816
:10272000C1693046884304D00020B842D9D0002087
:10273000F3E70120F9E7000037B514460846064BD9
:102740006A46214600F0EAF804466946002000F097
:1027500081FC20463EBD0000553000082021020CBF
:1027600001D010211046020A01D010460839020992
:1027700001D01046091F820801D01046891E420868
:1027800001D0881E7047081A704702E008C8121F5F
:1027900008C1002AFAD170477047002001E001C14A
:1027A000121F002AFBD17047F0B51FB486B00998FC
:1027B000089A030D0021024314D05148514A1818B9
:1027C000504305141198012810981AD0281A401C5B
:1027D00000264D4F4D49009601910490002812DAD1
:1027E000444211E01198012449A3012801D1109815
:1027F000C1430698119A84600360C26041600BB0C7
:10280000F0BD4042E4E70446210500203F4A001C99
:1028100051410391029012E0E00707D032463B4657
:1028200001990098FDF780FD0191009032463B46EA
:1028300010461946FDF778FD06460F466410002C39
:10284000EAD10498039B0028029A0999089806DAAD
:10285000FDF76AFD019B009AFDF766FD05E0FDF7B7
:10286000CBFD019B009AFDF7C7FD04460E460022F2
:10287000284BFDF759FE03D80020C043014607E06E
:102880000022254B20463146FDF79CFCFDF72CFE2F
:10289000102409E0002C0ADB0A220023FDF762FC69
:1028A000079B30321A55641E02460A43F2D11122A8
:1028B000641C079B121B1C19119B012B03D00123C5
:1028C00008430ED10AE0084304D0112010900020E4
:1028D000119077E71098151A6D1E0BE01098824240
:1028E00002DD00236D1C03E0824201DA00236D1E2D
:1028F000002BEED0069811998260C16030C07EE74F
:1029000001FCFFFF104D0000000014400000F03FEC
:10291000300000000000F0430000E03FFFB597B03A
:102920000646002518E2252877D100242746FD49D0
:10293000049400E00443761C32780120203A904051
:102940000842F7D130782A280ED00222307801468A
:102950003039092916D804990A23594330394018C7
:102960001443761C0490F1E7189802C8049118905B
:10297000002904DA01204003044348420490022065
:102980000443761C30782E2814D104200443707838
:10299000761C2A2809D11898761C80C8189009E05E
:1029A0000A214F43303FC719761C30780146303931
:1029B0000929F5D930786C2810D006DC4C281AD0BB
:1029C00068280ED06A2817D104E0742813D07A281A
:1029D00012D110E00120400504430CE0012109055B
:1029E00001E0032109050C437178814203D10120E4
:1029F00000052418761C761C3078119066280BD0C0
:102A000013DC58287DD009DC00287BD04528F6D07F
:102A10004628F4D047281AD1A5E118E0632835D01C
:102A2000642870D0652812D19DE170286CD008DC34
:102A30006728F1D069287BD06E280DD06F2806D189
:102A4000BAE073282ED0752871D0782859D01A9AF8
:102A5000199990476D1C7EE16002400F022809D051
:102A600003280DD00428189801680DD00D60001DB2
:102A7000189070E11898EA1701680D604A60F6E74F
:102A8000189801680D80F2E70D70F0E718986A4613
:102A900001781172001D18900020507202A8009059
:102AA000012005E0189802C8189000200091C0434A
:102AB00061070DD5002101E00199491C0191B9423E
:102AC00012DA8142F8DB009A515C0029F4D10BE064
:102AD000002101E00199491C01918142FADB019A30
:102AE0000099895C0029F5D1019904981A9B471A2D
:102AF00021463846199A00F097FA0199401945186D
:102B00000BE04FE02CE113E04EE0009800990078D4
:102B1000491C00911A9A199990470198401E0190FA
:102B2000401CF2D1214638461A9B199A10E137E031
:102B30000A200021009001916002410F022907D074
:102B4000189A01CA1892C2179446032908D00AE0BD
:102B50001898C01DC108C90005C91891944607E01E
:102B600000B2C2179446042902D140B2C1178C4664
:102B700000226146944506DA0A460021404291410E
:102B80008C462D2102E0210504D52B216A461173C4
:102B9000012103E0E10701D02021F7E7029155E090
:102BA0000A200AE0102008E01020009000210420F4
:102BB00004430191082703E00820002101910090BF
:102BC0006002410F022907D0189A01CA1892002208
:102BD0009446032908D008E01898C01DC108C90010
:102BE00005C91891944603E080B2042900D1C0B20F
:102BF00000210291210729D51199702906D0009A48
:102C00001021019B4A401A4305D00EE040216A463C
:102C10001173012108E06146014306D030216A4664
:102C200011731199517302210291009A0821019B9D
:102C30004A401A430AD16146014301D1610705D5D3
:102C400030216A46117301217F1E02911199582982
:102C500004D035A10E910DA90D910DE037A1F9E732
:102C60006146019B009AFDF77DFA0E9B8C469B5CAA
:102C70000D9A521E0D92137061460143F0D10D98CA
:102C800005A9081A20300190600703D5012000042F
:102C9000844300E001270198874201DD381A00E0F3
:102CA0000020019900904118029809180498401AD0
:102CB0000490E00306D421461A9B199A049800F068
:102CC000B3F94519002706E003A81A9AC05D1999BF
:102CD00090476D1C7F1C02988742F5DBE0030CD502
:102CE00021461A9B199A049800F09EF9451904E0B0
:102CF0001A9A3020199990476D1C0099481E00902F
:102D00000029F5DC08E00D980D990078491C0D911B
:102D10001A9A199990476D1C0199481E0190002933
:102D2000F1DC63E1092801003031323334353637C4
:102D30003839616263646566000000003031323307
:102D400034353637383941424344454600000000A7
:102D500000F05AF94519761C3078002800D0E2E5D9
:102D600028461BB0F0BD600700D406271898C01D88
:102D7000C108C90048680A680831C30FDB07189109
:102D8000190001D09CA108E0210501D59BA104E018
:102D9000E10701D09AA100E09AA1430011985B08D5
:102DA000109165280CD006DC452809D046281DD096
:102DB000472841D141E0662818D067283CD13CE043
:102DC0000021112F01DB112000E0781C01910090FF
:102DD00008A911A8FFF7E8FC139905910021119AA1
:102DE00015927F1C12980197009150E00120C007B6
:102DF00003900120019008A9009711A8FFF7D4FCC7
:102E0000139A149905920022119B0092129815931F
:102E1000059A0192002901D0104602E0791C401861
:102E20000190381A01D5019804E04042401E0090FC
:102E3000781C0190C01B029043E0012F00DA0127AB
:102E40000021112F01DD112000E038460191009092
:102E500008A911A8FFF7A8FC13990591119A002160
:102E6000129815920091019721070CD40599B94247
:102E700001DB019900E00191012904DD159A491E49
:102E8000515C302906D0B84201DA011D05DA012172
:102E9000029115E00199491EEDE7002805DC009933
:102EA000411800910199091A03E0019A411C9142CD
:102EB00000DD01910099401A401C02900120C007DA
:102EC0000390200706D402990198814202DB00207A
:102ED000C043029000206946C87707AF01210398DC
:102EE0000337C907884224D0022011902B2012906A
:102EF000039800280CDA404203902D20129007E03E
:102F00000A210398FDF7EEF830317F1E03903970E7
:102F10001199481E11900029F2DC03980028EFD186
:102F2000791E129808703078202108404530BF1E65
:102F3000387006A8C01BC01D0390109800780028A8
:102F400000D00120019941180298C0170918039870
:102F500009180498401A401E0490E00306D4214644
:102F60001A9B199A049800F05FF845191098007898
:102F7000002803D01A9A199990476D1CE00324D5B4
:102F800021461A9B199A049800F04EF845191CE046
:102F90000098002807DB00990598884203DD159802
:102FA000405C199901E0199930201A9A90470098CD
:102FB0006D1C401C00900298401E0290002804D115
:102FC0001A9A2E20199990476D1C0199481E01905C
:102FD0000029DDDC05E038781A9A7F1C19999047A2
:102FE0006D1C0399481E03900029F4DC21461A9BAE
:102FF000199A0498ACE600002D0000002B00000098
:103000002000000000000000F8B5044600251E4620
:103010001746880404D405E039462020B0476D1CCB
:10302000641EF9D52846F8BDFFB50446002581B0D9
:103030001E46C80301D5302700E02027880404D5A8
:1030400005E038460399B0476D1C641EF9D5284643
:1030500005B0F0BD0A68531C0B601070704700008B
:1030600010B540780107090F0548012905D002294C
:1030700002D10122FDF7DAFB10BD01221146F9E76A
:103080000004004808B50021684601700A4609207E
:103090001021C006FDF7CAFB0A2301226946034836
:1030A000FEF7D6F96846007808BD0000440000200D
:1030B00001B5092000221021C006FDF7B7FB0A2345
:1030C000012269460148FEF76FFA08BD440000205E
:1030D000FDF7C0FBFFF788F9FEF738FDFEF780FD2E
:1030E000FEF7E8FDFEF70CFEFEF726FE15A0FDF745
:1030F000C3FAFFF7C8F8FEF79BFF174C01221146F1
:103100002046FDF793FB7D25ED002846FDF7DCFA10
:10311000002201212046FDF789FB012202212046E1
:10312000FDF784FB2846FDF7CFFA00220221204656
:10313000FDF77CFB1220FFF78FF80028FAD0FFF78D
:10314000CFF8F7E7556172743220496E69742064D4
:103150006F6E65210D0A00000004004800000000A9
:103160000000000001020304060708090000000037
:103170000102030494310008000000202400000034
:103180008A270008B83100082400002074050000D8
:103190009A2700080B01070E00000000D90678806E
:1031A0008182838485868788898A8B8C8D8E8F0027
:0831B0000000000000127A008B
:04000005080000B53A
:00000001FF
